{
  "address": "0x71fa87A49a1333DD47E8feB3Aa978a74DfDac790",
  "abi": [
    {
      "inputs": [
        {
          "internalType": "uint256",
          "name": "_booksPerOrder",
          "type": "uint256"
        },
        {
          "internalType": "uint256",
          "name": "_bookPrice",
          "type": "uint256"
        },
        {
          "internalType": "address",
          "name": "_econNFTAddress",
          "type": "address"
        },
        {
          "internalType": "address",
          "name": "_usdcAddress",
          "type": "address"
        }
      ],
      "stateMutability": "nonpayable",
      "type": "constructor"
    },
    {
      "inputs": [],
      "name": "bookPrice",
      "outputs": [
        {
          "internalType": "uint256",
          "name": "",
          "type": "uint256"
        }
      ],
      "stateMutability": "view",
      "type": "function"
    },
    {
      "inputs": [],
      "name": "booksPerOrder",
      "outputs": [
        {
          "internalType": "uint256",
          "name": "",
          "type": "uint256"
        }
      ],
      "stateMutability": "view",
      "type": "function"
    },
    {
      "inputs": [
        {
          "internalType": "uint256",
          "name": "_numberOfBooks",
          "type": "uint256"
        }
      ],
      "name": "buyBooks",
      "outputs": [],
      "stateMutability": "nonpayable",
      "type": "function"
    },
    {
      "inputs": [],
      "name": "econNFT",
      "outputs": [
        {
          "internalType": "contract EconNFT",
          "name": "",
          "type": "address"
        }
      ],
      "stateMutability": "view",
      "type": "function"
    },
    {
      "inputs": [
        {
          "internalType": "address",
          "name": "",
          "type": "address"
        }
      ],
      "name": "numberOfBooksBought",
      "outputs": [
        {
          "internalType": "uint256",
          "name": "",
          "type": "uint256"
        }
      ],
      "stateMutability": "view",
      "type": "function"
    },
    {
      "inputs": [],
      "name": "owner",
      "outputs": [
        {
          "internalType": "address",
          "name": "",
          "type": "address"
        }
      ],
      "stateMutability": "view",
      "type": "function"
    },
    {
      "inputs": [
        {
          "internalType": "uint256",
          "name": "_newBookPrice",
          "type": "uint256"
        }
      ],
      "name": "setBookPrice",
      "outputs": [],
      "stateMutability": "nonpayable",
      "type": "function"
    },
    {
      "inputs": [
        {
          "internalType": "uint256",
          "name": "_newBooksPerOrder",
          "type": "uint256"
        }
      ],
      "name": "setBooksPerOrder",
      "outputs": [],
      "stateMutability": "nonpayable",
      "type": "function"
    },
    {
      "inputs": [
        {
          "internalType": "address",
          "name": "_newOwner",
          "type": "address"
        }
      ],
      "name": "setOwner",
      "outputs": [],
      "stateMutability": "nonpayable",
      "type": "function"
    },
    {
      "inputs": [],
      "name": "totalNumberOfBooksSold",
      "outputs": [
        {
          "internalType": "uint256",
          "name": "",
          "type": "uint256"
        }
      ],
      "stateMutability": "view",
      "type": "function"
    },
    {
      "inputs": [],
      "name": "usdc",
      "outputs": [
        {
          "internalType": "contract IERC20",
          "name": "",
          "type": "address"
        }
      ],
      "stateMutability": "view",
      "type": "function"
    }
  ],
  "transactionHash": "0x74e88fd8f94c0da70b2cbe527b944216e49e22cf24282e2725baf6d4acd80d85",
  "args": [
    "20",
    "70000000",
    "0x7E8435c76a59fb12c3997bC46bD124F4aBb1C09a",
    "0xeb8f08a975ab53e34d8a0330e0d34de942c95926"
  ],
  "solcInputHash": "2bb33abcdae9a386285208c8c7b2b417",
  "bytecode": "0x60806040523480156200001157600080fd5b5060405162000f6038038062000f6083398181016040528101906200003791906200013f565b836002819055508260038190555081600560006101000a81548173ffffffffffffffffffffffffffffffffffffffff021916908373ffffffffffffffffffffffffffffffffffffffff16021790555080600660006101000a81548173ffffffffffffffffffffffffffffffffffffffff021916908373ffffffffffffffffffffffffffffffffffffffff160217905550336000806101000a81548173ffffffffffffffffffffffffffffffffffffffff021916908373ffffffffffffffffffffffffffffffffffffffff1602179055505050505062000228565b6000815190506200012281620001f4565b92915050565b60008151905062000139816200020e565b92915050565b600080600080608085870312156200015c576200015b620001ef565b5b60006200016c8782880162000128565b94505060206200017f8782880162000128565b9350506040620001928782880162000111565b9250506060620001a58782880162000111565b91505092959194509250565b6000620001be82620001c5565b9050919050565b600073ffffffffffffffffffffffffffffffffffffffff82169050919050565b6000819050919050565b600080fd5b620001ff81620001b1565b81146200020b57600080fd5b50565b6200021981620001e5565b81146200022557600080fd5b50565b610d2880620002386000396000f3fe608060405234801561001057600080fd5b50600436106100a95760003560e01c80636e9164f4116100715780636e9164f414610150578063763893901461016e5780638da5cb5b1461018c578063b938c286146101aa578063c3037652146101c8578063d1524eec146101e6576100a9565b806313af4035146100ae578063157e8f34146100ca5780633cff3cdd146100e65780633e413bee14610116578063647b92e214610134575b600080fd5b6100c860048036038101906100c3919061077f565b610202565b005b6100e460048036038101906100df91906107d9565b6102d3565b005b61010060048036038101906100fb919061077f565b61036b565b60405161010d91906109c0565b60405180910390f35b61011e610383565b60405161012b9190610945565b60405180910390f35b61014e600480360381019061014991906107d9565b6103a9565b005b610158610637565b60405161016591906109c0565b60405180910390f35b61017661063d565b604051610183919061092a565b60405180910390f35b610194610663565b6040516101a191906108d8565b60405180910390f35b6101b2610687565b6040516101bf91906109c0565b60405180910390f35b6101d061068d565b6040516101dd91906109c0565b60405180910390f35b61020060048036038101906101fb91906107d9565b610693565b005b60008054906101000a900473ffffffffffffffffffffffffffffffffffffffff1673ffffffffffffffffffffffffffffffffffffffff163373ffffffffffffffffffffffffffffffffffffffff1614610290576040517f08c379a0000000000000000000000000000000000000000000000000000000008152600401610287906109a0565b60405180910390fd5b806000806101000a81548173ffffffffffffffffffffffffffffffffffffffff021916908373ffffffffffffffffffffffffffffffffffffffff16021790555050565b60008054906101000a900473ffffffffffffffffffffffffffffffffffffffff1673ffffffffffffffffffffffffffffffffffffffff163373ffffffffffffffffffffffffffffffffffffffff1614610361576040517f08c379a0000000000000000000000000000000000000000000000000000000008152600401610358906109a0565b60405180910390fd5b8060038190555050565b60046020528060005260406000206000915090505481565b600660009054906101000a900473ffffffffffffffffffffffffffffffffffffffff1681565b6000600560009054906101000a900473ffffffffffffffffffffffffffffffffffffffff1673ffffffffffffffffffffffffffffffffffffffff166370a08231336040518263ffffffff1660e01b815260040161040691906108d8565b60206040518083038186803b15801561041e57600080fd5b505afa158015610432573d6000803e3d6000fd5b505050506040513d601f19601f820116820180604052508101906104569190610806565b11610496576040517f08c379a000000000000000000000000000000000000000000000000000000000815260040161048d90610960565b60405180910390fd5b6000600254826104a69190610b2c565b146104e6576040517f08c379a00000000000000000000000000000000000000000000000000000000081526004016104dd90610980565b60405180910390fd5b600660009054906101000a900473ffffffffffffffffffffffffffffffffffffffff1673ffffffffffffffffffffffffffffffffffffffff166323b872dd3360008054906101000a900473ffffffffffffffffffffffffffffffffffffffff16600354856105549190610a42565b6040518463ffffffff1660e01b8152600401610572939291906108f3565b602060405180830381600087803b15801561058c57600080fd5b505af11580156105a0573d6000803e3d6000fd5b505050506040513d601f19601f820116820180604052508101906105c491906107ac565b5080600460003373ffffffffffffffffffffffffffffffffffffffff1673ffffffffffffffffffffffffffffffffffffffff168152602001908152602001600020600082825461061491906109ec565b92505081905550806001600082825461062d91906109ec565b9250508190555050565b60035481565b600560009054906101000a900473ffffffffffffffffffffffffffffffffffffffff1681565b60008054906101000a900473ffffffffffffffffffffffffffffffffffffffff1681565b60015481565b60025481565b60008054906101000a900473ffffffffffffffffffffffffffffffffffffffff1673ffffffffffffffffffffffffffffffffffffffff163373ffffffffffffffffffffffffffffffffffffffff1614610721576040517f08c379a0000000000000000000000000000000000000000000000000000000008152600401610718906109a0565b60405180910390fd5b8060028190555050565b60008135905061073a81610cad565b92915050565b60008151905061074f81610cc4565b92915050565b60008135905061076481610cdb565b92915050565b60008151905061077981610cdb565b92915050565b60006020828403121561079557610794610bbb565b5b60006107a38482850161072b565b91505092915050565b6000602082840312156107c2576107c1610bbb565b5b60006107d084828501610740565b91505092915050565b6000602082840312156107ef576107ee610bbb565b5b60006107fd84828501610755565b91505092915050565b60006020828403121561081c5761081b610bbb565b5b600061082a8482850161076a565b91505092915050565b61083c81610a9c565b82525050565b61084b81610ae4565b82525050565b61085a81610b08565b82525050565b600061086d6046836109db565b915061087882610bc0565b606082019050919050565b60006108906028836109db565b915061089b82610c35565b604082019050919050565b60006108b36015836109db565b91506108be82610c84565b602082019050919050565b6108d281610ada565b82525050565b60006020820190506108ed6000830184610833565b92915050565b60006060820190506109086000830186610833565b6109156020830185610833565b61092260408301846108c9565b949350505050565b600060208201905061093f6000830184610842565b92915050565b600060208201905061095a6000830184610851565b92915050565b6000602082019050818103600083015261097981610860565b9050919050565b6000602082019050818103600083015261099981610883565b9050919050565b600060208201905081810360008301526109b9816108a6565b9050919050565b60006020820190506109d560008301846108c9565b92915050565b600082825260208201905092915050565b60006109f782610ada565b9150610a0283610ada565b9250827fffffffffffffffffffffffffffffffffffffffffffffffffffffffffffffffff03821115610a3757610a36610b5d565b5b828201905092915050565b6000610a4d82610ada565b9150610a5883610ada565b9250817fffffffffffffffffffffffffffffffffffffffffffffffffffffffffffffffff0483118215151615610a9157610a90610b5d565b5b828202905092915050565b6000610aa782610aba565b9050919050565b60008115159050919050565b600073ffffffffffffffffffffffffffffffffffffffff82169050919050565b6000819050919050565b6000610aef82610af6565b9050919050565b6000610b0182610aba565b9050919050565b6000610b1382610b1a565b9050919050565b6000610b2582610aba565b9050919050565b6000610b3782610ada565b9150610b4283610ada565b925082610b5257610b51610b8c565b5b828206905092915050565b7f4e487b7100000000000000000000000000000000000000000000000000000000600052601160045260246000fd5b7f4e487b7100000000000000000000000000000000000000000000000000000000600052601260045260246000fd5b600080fd5b7f596f75206e65656420746f20686f6c64207468652070726f706572747920726960008201527f67687420746f6b656e20746f2062757920616e642073656c6c2074686f73652060208201527f626f6f6b732e0000000000000000000000000000000000000000000000000000604082015250565b7f596f752063616e206f6e6c79206275792061206d756c7469706c65206f66203260008201527f3020626f6f6b732e000000000000000000000000000000000000000000000000602082015250565b7f596f7520617265206e6f7420746865206f776e65720000000000000000000000600082015250565b610cb681610a9c565b8114610cc157600080fd5b50565b610ccd81610aae565b8114610cd857600080fd5b50565b610ce481610ada565b8114610cef57600080fd5b5056fea264697066735822122020fdfe9ea24bf73eaad3ddf67bc1fc1d7ac188ea11333f1e52cf56da58230ae164736f6c63430008060033",
  "devdoc": {
    "kind": "dev",
    "methods": {
      "buyBooks(uint256)": {
        "details": "Payements are handled in USDC."
      },
      "constructor": {
        "params": {
          "_bookPrice": "the number of USDC required to buy one book (/!\\ USDC have 6 decimals).",
          "_booksPerOrder": "the number of books you want per order (orders will need to be a multiple of this number).",
          "_econNFTAddress": "address of the EconNFT token contract.",
          "_usdcAddress": "address of the USDC token contract.*"
        }
      },
      "setBookPrice(uint256)": {
        "details": "Can only be called by the owner of the contract."
      },
      "setBooksPerOrder(uint256)": {
        "details": "Can only be called by the owner of the contract."
      },
      "setOwner(address)": {
        "details": "Can only be called by the current owner of the contract."
      }
    },
    "title": "Accounting contract for Economics Design.",
    "version": 1
  },
  "userdoc": {
    "kind": "user",
    "methods": {
      "buyBooks(uint256)": {
        "notice": "Function called by the owner of an EconNFT contract to order books to the company."
      },
      "setBookPrice(uint256)": {
        "notice": "Set the price of one book."
      },
      "setBooksPerOrder(uint256)": {
        "notice": "Set the number of books per order."
      },
      "setOwner(address)": {
        "notice": "Set the owner of the contract."
      }
    },
    "notice": "Helps the company to know who bought how much books and when.",
    "version": 1
  },
  "storageLayout": {
    "storage": [
      {
        "astId": 2250,
        "contract": "contracts/Accounting.sol:Accounting",
        "label": "owner",
        "offset": 0,
        "slot": "0",
        "type": "t_address"
      },
      {
        "astId": 2252,
        "contract": "contracts/Accounting.sol:Accounting",
        "label": "totalNumberOfBooksSold",
        "offset": 0,
        "slot": "1",
        "type": "t_uint256"
      },
      {
        "astId": 2254,
        "contract": "contracts/Accounting.sol:Accounting",
        "label": "booksPerOrder",
        "offset": 0,
        "slot": "2",
        "type": "t_uint256"
      },
      {
        "astId": 2256,
        "contract": "contracts/Accounting.sol:Accounting",
        "label": "bookPrice",
        "offset": 0,
        "slot": "3",
        "type": "t_uint256"
      },
      {
        "astId": 2260,
        "contract": "contracts/Accounting.sol:Accounting",
        "label": "numberOfBooksBought",
        "offset": 0,
        "slot": "4",
        "type": "t_mapping(t_address,t_uint256)"
      },
      {
        "astId": 2263,
        "contract": "contracts/Accounting.sol:Accounting",
        "label": "econNFT",
        "offset": 0,
        "slot": "5",
        "type": "t_contract(EconNFT)4352"
      },
      {
        "astId": 2266,
        "contract": "contracts/Accounting.sol:Accounting",
        "label": "usdc",
        "offset": 0,
        "slot": "6",
        "type": "t_contract(IERC20)567"
      }
    ],
    "types": {
      "t_address": {
        "encoding": "inplace",
        "label": "address",
        "numberOfBytes": "20"
      },
      "t_contract(EconNFT)4352": {
        "encoding": "inplace",
        "label": "contract EconNFT",
        "numberOfBytes": "20"
      },
      "t_contract(IERC20)567": {
        "encoding": "inplace",
        "label": "contract IERC20",
        "numberOfBytes": "20"
      },
      "t_mapping(t_address,t_uint256)": {
        "encoding": "mapping",
        "key": "t_address",
        "label": "mapping(address => uint256)",
        "numberOfBytes": "32",
        "value": "t_uint256"
      },
      "t_uint256": {
        "encoding": "inplace",
        "label": "uint256",
        "numberOfBytes": "32"
      }
    }
  }
}