{
  "address": "0x201aDD7b7957FA2438C3D131063F219d07025CF7",
  "abi": [
    {
      "inputs": [
        {
          "internalType": "uint256",
          "name": "_totalSupply",
          "type": "uint256"
        },
        {
          "internalType": "uint256",
          "name": "_expirationTimestamp",
          "type": "uint256"
        }
      ],
      "stateMutability": "nonpayable",
      "type": "constructor"
    },
    {
      "anonymous": false,
      "inputs": [
        {
          "indexed": true,
          "internalType": "address",
          "name": "owner",
          "type": "address"
        },
        {
          "indexed": true,
          "internalType": "address",
          "name": "approved",
          "type": "address"
        },
        {
          "indexed": true,
          "internalType": "uint256",
          "name": "tokenId",
          "type": "uint256"
        }
      ],
      "name": "Approval",
      "type": "event"
    },
    {
      "anonymous": false,
      "inputs": [
        {
          "indexed": true,
          "internalType": "address",
          "name": "owner",
          "type": "address"
        },
        {
          "indexed": true,
          "internalType": "address",
          "name": "operator",
          "type": "address"
        },
        {
          "indexed": false,
          "internalType": "bool",
          "name": "approved",
          "type": "bool"
        }
      ],
      "name": "ApprovalForAll",
      "type": "event"
    },
    {
      "anonymous": false,
      "inputs": [
        {
          "indexed": true,
          "internalType": "address",
          "name": "previousOwner",
          "type": "address"
        },
        {
          "indexed": true,
          "internalType": "address",
          "name": "newOwner",
          "type": "address"
        }
      ],
      "name": "OwnershipTransferred",
      "type": "event"
    },
    {
      "anonymous": false,
      "inputs": [
        {
          "indexed": true,
          "internalType": "address",
          "name": "from",
          "type": "address"
        },
        {
          "indexed": true,
          "internalType": "address",
          "name": "to",
          "type": "address"
        },
        {
          "indexed": true,
          "internalType": "uint256",
          "name": "tokenId",
          "type": "uint256"
        }
      ],
      "name": "Transfer",
      "type": "event"
    },
    {
      "inputs": [
        {
          "internalType": "address",
          "name": "to",
          "type": "address"
        },
        {
          "internalType": "uint256",
          "name": "tokenId",
          "type": "uint256"
        }
      ],
      "name": "approve",
      "outputs": [],
      "stateMutability": "nonpayable",
      "type": "function"
    },
    {
      "inputs": [
        {
          "internalType": "address",
          "name": "owner",
          "type": "address"
        }
      ],
      "name": "balanceOf",
      "outputs": [
        {
          "internalType": "uint256",
          "name": "",
          "type": "uint256"
        }
      ],
      "stateMutability": "view",
      "type": "function"
    },
    {
      "inputs": [
        {
          "internalType": "uint256",
          "name": "econNFTId",
          "type": "uint256"
        }
      ],
      "name": "burn",
      "outputs": [],
      "stateMutability": "nonpayable",
      "type": "function"
    },
    {
      "inputs": [
        {
          "internalType": "uint256",
          "name": "",
          "type": "uint256"
        }
      ],
      "name": "colors",
      "outputs": [
        {
          "internalType": "string",
          "name": "",
          "type": "string"
        }
      ],
      "stateMutability": "view",
      "type": "function"
    },
    {
      "inputs": [],
      "name": "currentExpirationTimestamp",
      "outputs": [
        {
          "internalType": "uint256",
          "name": "",
          "type": "uint256"
        }
      ],
      "stateMutability": "view",
      "type": "function"
    },
    {
      "inputs": [],
      "name": "econAuctionHouse",
      "outputs": [
        {
          "internalType": "address",
          "name": "",
          "type": "address"
        }
      ],
      "stateMutability": "view",
      "type": "function"
    },
    {
      "inputs": [
        {
          "internalType": "uint256",
          "name": "_randomNumber",
          "type": "uint256"
        }
      ],
      "name": "generatePath",
      "outputs": [
        {
          "internalType": "string",
          "name": "pathSvg",
          "type": "string"
        }
      ],
      "stateMutability": "view",
      "type": "function"
    },
    {
      "inputs": [
        {
          "internalType": "uint256",
          "name": "_randomNumber",
          "type": "uint256"
        }
      ],
      "name": "generatePathCommand",
      "outputs": [
        {
          "internalType": "string",
          "name": "pathCommand",
          "type": "string"
        }
      ],
      "stateMutability": "view",
      "type": "function"
    },
    {
      "inputs": [
        {
          "internalType": "uint256",
          "name": "_randomNumber",
          "type": "uint256"
        }
      ],
      "name": "generateSVG",
      "outputs": [
        {
          "internalType": "string",
          "name": "finalSvg",
          "type": "string"
        }
      ],
      "stateMutability": "view",
      "type": "function"
    },
    {
      "inputs": [
        {
          "internalType": "uint256",
          "name": "tokenId",
          "type": "uint256"
        }
      ],
      "name": "getApproved",
      "outputs": [
        {
          "internalType": "address",
          "name": "",
          "type": "address"
        }
      ],
      "stateMutability": "view",
      "type": "function"
    },
    {
      "inputs": [],
      "name": "getCurrentExpirationTimestamp",
      "outputs": [
        {
          "internalType": "uint256",
          "name": "",
          "type": "uint256"
        }
      ],
      "stateMutability": "view",
      "type": "function"
    },
    {
      "inputs": [],
      "name": "getNumberOfPeriodPassed",
      "outputs": [
        {
          "internalType": "uint256",
          "name": "",
          "type": "uint256"
        }
      ],
      "stateMutability": "view",
      "type": "function"
    },
    {
      "inputs": [
        {
          "internalType": "address",
          "name": "account",
          "type": "address"
        },
        {
          "internalType": "address",
          "name": "operator",
          "type": "address"
        }
      ],
      "name": "isApprovedForAll",
      "outputs": [
        {
          "internalType": "bool",
          "name": "",
          "type": "bool"
        }
      ],
      "stateMutability": "view",
      "type": "function"
    },
    {
      "inputs": [],
      "name": "isMinterLocked",
      "outputs": [
        {
          "internalType": "bool",
          "name": "",
          "type": "bool"
        }
      ],
      "stateMutability": "view",
      "type": "function"
    },
    {
      "inputs": [],
      "name": "lockMinter",
      "outputs": [],
      "stateMutability": "nonpayable",
      "type": "function"
    },
    {
      "inputs": [],
      "name": "maxNumberOfPath",
      "outputs": [
        {
          "internalType": "uint256",
          "name": "",
          "type": "uint256"
        }
      ],
      "stateMutability": "view",
      "type": "function"
    },
    {
      "inputs": [],
      "name": "maxNumberOfPathCommands",
      "outputs": [
        {
          "internalType": "uint256",
          "name": "",
          "type": "uint256"
        }
      ],
      "stateMutability": "view",
      "type": "function"
    },
    {
      "inputs": [],
      "name": "mint",
      "outputs": [
        {
          "internalType": "uint256",
          "name": "",
          "type": "uint256"
        }
      ],
      "stateMutability": "nonpayable",
      "type": "function"
    },
    {
      "inputs": [],
      "name": "minter",
      "outputs": [
        {
          "internalType": "address",
          "name": "",
          "type": "address"
        }
      ],
      "stateMutability": "view",
      "type": "function"
    },
    {
      "inputs": [],
      "name": "name",
      "outputs": [
        {
          "internalType": "string",
          "name": "",
          "type": "string"
        }
      ],
      "stateMutability": "view",
      "type": "function"
    },
    {
      "inputs": [],
      "name": "numberOfPeriodPassed",
      "outputs": [
        {
          "internalType": "uint256",
          "name": "",
          "type": "uint256"
        }
      ],
      "stateMutability": "view",
      "type": "function"
    },
    {
      "inputs": [],
      "name": "owner",
      "outputs": [
        {
          "internalType": "address",
          "name": "",
          "type": "address"
        }
      ],
      "stateMutability": "view",
      "type": "function"
    },
    {
      "inputs": [
        {
          "internalType": "uint256",
          "name": "tokenId",
          "type": "uint256"
        }
      ],
      "name": "ownerOf",
      "outputs": [
        {
          "internalType": "address",
          "name": "",
          "type": "address"
        }
      ],
      "stateMutability": "view",
      "type": "function"
    },
    {
      "inputs": [
        {
          "internalType": "uint256",
          "name": "",
          "type": "uint256"
        }
      ],
      "name": "pathCommands",
      "outputs": [
        {
          "internalType": "string",
          "name": "",
          "type": "string"
        }
      ],
      "stateMutability": "view",
      "type": "function"
    },
    {
      "inputs": [],
      "name": "renounceOwnership",
      "outputs": [],
      "stateMutability": "nonpayable",
      "type": "function"
    },
    {
      "inputs": [
        {
          "internalType": "address",
          "name": "from",
          "type": "address"
        },
        {
          "internalType": "address",
          "name": "to",
          "type": "address"
        },
        {
          "internalType": "uint256",
          "name": "tokenId",
          "type": "uint256"
        }
      ],
      "name": "safeTransferFrom",
      "outputs": [],
      "stateMutability": "nonpayable",
      "type": "function"
    },
    {
      "inputs": [
        {
          "internalType": "address",
          "name": "from",
          "type": "address"
        },
        {
          "internalType": "address",
          "name": "to",
          "type": "address"
        },
        {
          "internalType": "uint256",
          "name": "tokenId",
          "type": "uint256"
        },
        {
          "internalType": "bytes",
          "name": "_data",
          "type": "bytes"
        }
      ],
      "name": "safeTransferFrom",
      "outputs": [],
      "stateMutability": "nonpayable",
      "type": "function"
    },
    {
      "inputs": [
        {
          "internalType": "uint256",
          "name": "",
          "type": "uint256"
        }
      ],
      "name": "seeds",
      "outputs": [
        {
          "internalType": "uint256",
          "name": "expirationTimestamp",
          "type": "uint256"
        }
      ],
      "stateMutability": "view",
      "type": "function"
    },
    {
      "inputs": [
        {
          "internalType": "address",
          "name": "operator",
          "type": "address"
        },
        {
          "internalType": "bool",
          "name": "approved",
          "type": "bool"
        }
      ],
      "name": "setApprovalForAll",
      "outputs": [],
      "stateMutability": "nonpayable",
      "type": "function"
    },
    {
      "inputs": [
        {
          "internalType": "address",
          "name": "newAuctionHouse",
          "type": "address"
        }
      ],
      "name": "setAuctionHouse",
      "outputs": [],
      "stateMutability": "nonpayable",
      "type": "function"
    },
    {
      "inputs": [
        {
          "internalType": "uint256",
          "name": "_newExpirationTimestamp",
          "type": "uint256"
        }
      ],
      "name": "setCurrentExpirationTimestamp",
      "outputs": [],
      "stateMutability": "nonpayable",
      "type": "function"
    },
    {
      "inputs": [
        {
          "internalType": "address",
          "name": "_minter",
          "type": "address"
        }
      ],
      "name": "setMinter",
      "outputs": [],
      "stateMutability": "nonpayable",
      "type": "function"
    },
    {
      "inputs": [],
      "name": "size",
      "outputs": [
        {
          "internalType": "uint256",
          "name": "",
          "type": "uint256"
        }
      ],
      "stateMutability": "view",
      "type": "function"
    },
    {
      "inputs": [
        {
          "internalType": "bytes4",
          "name": "interfaceId",
          "type": "bytes4"
        }
      ],
      "name": "supportsInterface",
      "outputs": [
        {
          "internalType": "bool",
          "name": "",
          "type": "bool"
        }
      ],
      "stateMutability": "view",
      "type": "function"
    },
    {
      "inputs": [
        {
          "internalType": "string",
          "name": "_svg",
          "type": "string"
        }
      ],
      "name": "svgToImageURI",
      "outputs": [
        {
          "internalType": "string",
          "name": "",
          "type": "string"
        }
      ],
      "stateMutability": "pure",
      "type": "function"
    },
    {
      "inputs": [],
      "name": "symbol",
      "outputs": [
        {
          "internalType": "string",
          "name": "",
          "type": "string"
        }
      ],
      "stateMutability": "view",
      "type": "function"
    },
    {
      "inputs": [
        {
          "internalType": "uint256",
          "name": "tokenId",
          "type": "uint256"
        }
      ],
      "name": "tokenURI",
      "outputs": [
        {
          "internalType": "string",
          "name": "",
          "type": "string"
        }
      ],
      "stateMutability": "view",
      "type": "function"
    },
    {
      "inputs": [
        {
          "internalType": "address",
          "name": "from",
          "type": "address"
        },
        {
          "internalType": "address",
          "name": "to",
          "type": "address"
        },
        {
          "internalType": "uint256",
          "name": "tokenId",
          "type": "uint256"
        }
      ],
      "name": "transferFrom",
      "outputs": [],
      "stateMutability": "nonpayable",
      "type": "function"
    },
    {
      "inputs": [
        {
          "internalType": "address",
          "name": "newOwner",
          "type": "address"
        }
      ],
      "name": "transferOwnership",
      "outputs": [],
      "stateMutability": "nonpayable",
      "type": "function"
    }
  ],
  "transactionHash": "0x8ac4f00fbc4b22a813f230baed49a66bf9824c96bbe3eeca0763b74c1a2a93d3",
  "args": [
    0,
    1659013091
  ],
  "solcInputHash": "dc79de28ef606609174219cc56dc3594",
  "bytecode": "0x60806040523480156200001157600080fd5b5060405162002da538038062002da5833981016040819052620000349162000435565b6040518060400160405280600c81526020016b045636f6e74657269632049560a41b815250604051806040016040528060048152602001630454349560e41b815250620000906200008a6200022660201b60201c565b6200022a565b8151620000a59060019060208501906200027a565b508051620000bb9060029060208401906200027a565b5050600a805460ff1916815560006009819055600d55600c839055600e55506005600f556101f4601055604080516080810182526001818301818152604d60f81b6060840152825282518084019093528252601360fa1b6020838101919091528101919091526200013190601190600262000309565b506040518060c00160405280604051806040016040528060038152602001621c995960ea1b815250815260200160405180604001604052806004815260200163626c756560e01b81525081526020016040518060400160405280600581526020016433b932b2b760d91b81525081526020016040518060400160405280600681526020016579656c6c6f7760d01b815250815260200160405180604001604052806005815260200164626c61636b60d81b815250815260200160405180604001604052806005815260200164776869746560d81b81525081525060129060066200021d92919062000369565b50505062000497565b3390565b600080546001600160a01b038381166001600160a01b0319831681178455604051919092169283917f8be0079c531659141344cd1fd0a4f28419497f9722a3daafe3b4186f6b6457e09190a35050565b82805462000288906200045a565b90600052602060002090601f016020900481019282620002ac5760008555620002f7565b82601f10620002c757805160ff1916838001178555620002f7565b82800160010185558215620002f7579182015b82811115620002f7578251825591602001919060010190620002da565b5062000305929150620003bb565b5090565b8280548282559060005260206000209081019282156200035b579160200282015b828111156200035b57825180516200034a9184916020909101906200027a565b50916020019190600101906200032a565b5062000305929150620003d2565b8280548282559060005260206000209081019282156200035b579160200282015b828111156200035b5782518051620003aa9184916020909101906200027a565b50916020019190600101906200038a565b5b80821115620003055760008155600101620003bc565b8082111562000305576000620003e98282620003f3565b50600101620003d2565b50805462000401906200045a565b6000825580601f1062000412575050565b601f016020900490600052602060002090810190620004329190620003bb565b50565b600080604083850312156200044957600080fd5b505080516020909101519092909150565b600181811c908216806200046f57607f821691505b602082108114156200049157634e487b7160e01b600052602260045260246000fd5b50919050565b6128fe80620004a76000396000f3fe608060405234801561001057600080fd5b506004361061023d5760003560e01c8063715018a61161013b578063c87b56dd116100b8578063f26e54f31161007c578063f26e54f3146104a2578063f2c5df9b146104b5578063f2fde38b146104be578063f838904f146104d1578063fca3b5aa146104e457600080fd5b8063c87b56dd14610440578063d3574ab914610453578063e76d89521461045c578063e985e9c51461046f578063f0503e801461048257600080fd5b806395d89b41116100ff57806395d89b41146103ec578063a22cb465146103f4578063b88d4fde14610407578063bd11f69d1461041a578063c68b49d11461042d57600080fd5b8063715018a6146103af57806376daebe1146103b75780638da5cb5b146103bf578063949d225d146103d0578063955968d4146103d957600080fd5b806330d871c6116101c957806348e896ab1161018d57806348e896ab14610364578063568a18441461036d5780636352211e146103765780636dcee4ca1461038957806370a082311461039c57600080fd5b806330d871c61461031057806333af5989146103235780633607cf3d1461033657806342842e0e1461033e57806342966c681461035157600080fd5b8063095ea7b311610210578063095ea7b3146102bd5780631249c58b146102d25780631399364d146102e85780631e688e10146102f057806323b872dd146102fd57600080fd5b806301ffc9a71461024257806306fdde031461026a578063075461721461027f578063081812fc146102aa575b600080fd5b61025561025036600461202a565b6104f7565b60405190151581526020015b60405180910390f35b610272610549565b60405161026191906124a4565b600854610292906001600160a01b031681565b6040516001600160a01b039091168152602001610261565b6102926102b83660046120ad565b6105db565b6102d06102cb366004612000565b610675565b005b6102da61078b565b604051908152602001610261565b600c546102da565b600a546102559060ff1681565b6102d061030b366004611f0c565b6107e6565b61027261031e366004612064565b610817565b6102726103313660046120ad565b6108ad565b600d546102da565b6102d061034c366004611f0c565b610a62565b6102d061035f3660046120ad565b610a7d565b6102da600f5481565b6102da600e5481565b6102926103843660046120ad565b610ab3565b6102726103973660046120ad565b610b2a565b6102da6103aa366004611eb7565b610c23565b6102d0610caa565b6102d0610ce0565b6000546001600160a01b0316610292565b6102da60105481565b6102726103e73660046120ad565b610d68565b610272610e14565b6102d0610402366004611fc4565b610e23565b6102d0610415366004611f48565b610ee8565b6102726104283660046120ad565b610f20565b61027261043b3660046120ad565b610f30565b61027261044e3660046120ad565b6110ad565b6102da600d5481565b6102d061046a366004611eb7565b611163565b61025561047d366004611ed9565b6111af565b6102da6104903660046120ad565b600b6020526000908152604090205481565b6102d06104b03660046120ad565b6111ff565b6102da600c5481565b6102d06104cc366004611eb7565b611246565b600754610292906001600160a01b031681565b6102d06104f2366004611eb7565b6112de565b60006001600160e01b031982166380ac58cd60e01b148061052857506001600160e01b03198216635b5e139f60e01b145b8061054357506301ffc9a760e01b6001600160e01b03198316145b92915050565b606060018054610558906127b6565b80601f0160208091040260200160405190810160405280929190818152602001828054610584906127b6565b80156105d15780601f106105a6576101008083540402835291602001916105d1565b820191906000526020600020905b8154815290600101906020018083116105b457829003601f168201915b5050505050905090565b6000818152600360205260408120546001600160a01b03166106595760405162461bcd60e51b815260206004820152602c60248201527f4552433732313a20617070726f76656420717565727920666f72206e6f6e657860448201526b34b9ba32b73a103a37b5b2b760a11b60648201526084015b60405180910390fd5b506000908152600560205260409020546001600160a01b031690565b600061068082610ab3565b9050806001600160a01b0316836001600160a01b031614156106ee5760405162461bcd60e51b815260206004820152602160248201527f4552433732313a20617070726f76616c20746f2063757272656e74206f776e656044820152603960f91b6064820152608401610650565b336001600160a01b038216148061070a575061070a81336111af565b61077c5760405162461bcd60e51b815260206004820152603860248201527f4552433732313a20617070726f76652063616c6c6572206973206e6f74206f7760448201527f6e6572206e6f7220617070726f76656420666f7220616c6c00000000000000006064820152608401610650565b6107868383611379565b505050565b6008546000906001600160a01b031633146107b85760405162461bcd60e51b815260040161065090612509565b600854600980546107e1926001600160a01b03169160006107d8836127eb565b919050556113e7565b905090565b6107f03382611418565b61080c5760405162461bcd60e51b81526004016106509061257f565b6107868383836114ef565b606060006040518060400160405280601a81526020017f646174613a696d6167652f7376672b786d6c3b6261736536342c0000000000008152509050600061087d84604051602001610869919061210e565b60405160208183030381529060405261168f565b90506000828260405160200161089492919061212a565b60408051601f1981840301815291905295945050505050565b60606000600f54836108bf9190612806565b6108ca906001612611565b9050604051806040016040528060098152602001681e3830ba3410321e9160b91b815250915060005b8181101561097f576000848260105461090c9190612611565b6040805160208101939093528201526060016040516020818303038152906040528051906020012060001c9050600061094482610f30565b9050848160405160200161095992919061212a565b604051602081830303815290604052945050508080610977906127eb565b9150506108f3565b5060128054600091906109929086612806565b815481106109a2576109a2612846565b9060005260206000200180546109b7906127b6565b80601f01602080910402602001604051908101604052809291908181526020018280546109e3906127b6565b8015610a305780601f10610a0557610100808354040283529160200191610a30565b820191906000526020600020905b815481529060010190602001808311610a1357829003601f168201915b505050505090508281604051602001610a4a9291906121bc565b60405160208183030381529060405292505050919050565b61078683838360405180602001604052806000815250610ee8565b6008546001600160a01b03163314610aa75760405162461bcd60e51b815260040161065090612509565b610ab0816117f5565b50565b6000818152600360205260408120546001600160a01b0316806105435760405162461bcd60e51b815260206004820152602960248201527f4552433732313a206f776e657220717565727920666f72206e6f6e657869737460448201526832b73a103a37b5b2b760b91b6064820152608401610650565b60606000600e5483610b3c9190612806565b610b47906001612611565b9050610b54601054611890565b610b5f601054611890565b604051602001610b7092919061224e565b604051602081830303815290604052915060005b81811015610bfa57604080516020808201879052818301849052825180830384018152606090920190925280519101206000610bbf826108ad565b90508481604051602001610bd492919061212a565b604051602081830303815290604052945050508080610bf2906127eb565b915050610b84565b5081604051602001610c0c9190612224565b604051602081830303815290604052915050919050565b60006001600160a01b038216610c8e5760405162461bcd60e51b815260206004820152602a60248201527f4552433732313a2062616c616e636520717565727920666f7220746865207a65604482015269726f206164647265737360b01b6064820152608401610650565b506001600160a01b031660009081526004602052604090205490565b6000546001600160a01b03163314610cd45760405162461bcd60e51b81526004016106509061254a565b610cde60006119b9565b565b6000546001600160a01b03163314610d0a5760405162461bcd60e51b81526004016106509061254a565b600a5460ff1615610d595760405162461bcd60e51b81526020600482015260196024820152781158dbdb9391950e88135a5b9d195c881a5cc81b1bd8dad959603a1b6044820152606401610650565b600a805460ff19166001179055565b60118181548110610d7857600080fd5b906000526020600020016000915090508054610d93906127b6565b80601f0160208091040260200160405190810160405280929190818152602001828054610dbf906127b6565b8015610e0c5780601f10610de157610100808354040283529160200191610e0c565b820191906000526020600020905b815481529060010190602001808311610def57829003601f168201915b505050505081565b606060028054610558906127b6565b6001600160a01b038216331415610e7c5760405162461bcd60e51b815260206004820152601960248201527f4552433732313a20617070726f766520746f2063616c6c6572000000000000006044820152606401610650565b3360008181526006602090815260408083206001600160a01b03871680855290835292819020805460ff191686151590811790915590519081529192917f17307eab39ab6107e8899845ad3d59bd9653f200f220920489ca2b5937696c31910160405180910390a35050565b610ef23383611418565b610f0e5760405162461bcd60e51b81526004016106509061257f565b610f1a84848484611a09565b50505050565b60128181548110610d7857600080fd5b6011805460609190610f429084612806565b81548110610f5257610f52612846565b906000526020600020018054610f67906127b6565b80601f0160208091040260200160405190810160405280929190818152602001828054610f93906127b6565b8015610fe05780601f10610fb557610100808354040283529160200191610fe0565b820191906000526020600020905b815481529060010190602001808311610fc357829003601f168201915b505050505090506000601054836010546002610ffc9190612715565b6040805160208101939093528201526060016040516020818303038152906040528051906020012060001c6110319190612806565b60105490915060009084611046826002612715565b611051906001612611565b6040805160208101939093528201526060016040516020818303038152906040528051906020012060001c6110869190612806565b90508261109283611890565b61109b83611890565b604051602001610a4a93929190612159565b6000818152600b602052604081205460609190819081906110cd90611a3c565b9194509250905060006110e0434261267c565b905060006110ed82610b2a565b905060006110fa82610817565b9050600061113061110a86611890565b61111388611890565b61111c8a611890565b856040516020016108699493929190612328565b905060008160405160200161114591906122e3565b60408051601f198184030181529190529a9950505050505050505050565b6000546001600160a01b0316331461118d5760405162461bcd60e51b81526004016106509061254a565b600780546001600160a01b0319166001600160a01b0392909216919091179055565b6007546000906001600160a01b03838116911614156111d057506001610543565b506001600160a01b03918216600090815260066020908152604080832093909416825291909152205460ff1690565b6000546001600160a01b031633146112295760405162461bcd60e51b81526004016106509061254a565b600c819055600d805490600061123e836127eb565b919050555050565b6000546001600160a01b031633146112705760405162461bcd60e51b81526004016106509061254a565b6001600160a01b0381166112d55760405162461bcd60e51b815260206004820152602660248201527f4f776e61626c653a206e6577206f776e657220697320746865207a65726f206160448201526564647265737360d01b6064820152608401610650565b610ab0816119b9565b6000546001600160a01b031633146113085760405162461bcd60e51b81526004016106509061254a565b600a5460ff16156113575760405162461bcd60e51b81526020600482015260196024820152781158dbdb9391950e88135a5b9d195c881a5cc81b1bd8dad959603a1b6044820152606401610650565b600880546001600160a01b0319166001600160a01b0392909216919091179055565b600081815260056020526040902080546001600160a01b0319166001600160a01b03841690811790915581906113ae82610ab3565b6001600160a01b03167f8c5be1e5ebec7d5bd14f71427d1e84f3dd0314c0f7b2291e5b200ac8c7c3b92560405160405180910390a45050565b6040805160208082018352600c5482526000848152600b909152918220905190556114128383611a62565b50919050565b6000818152600360205260408120546001600160a01b03166114915760405162461bcd60e51b815260206004820152602c60248201527f4552433732313a206f70657261746f7220717565727920666f72206e6f6e657860448201526b34b9ba32b73a103a37b5b2b760a11b6064820152608401610650565b600061149c83610ab3565b9050806001600160a01b0316846001600160a01b031614806114d75750836001600160a01b03166114cc846105db565b6001600160a01b0316145b806114e757506114e781856111af565b949350505050565b826001600160a01b031661150282610ab3565b6001600160a01b03161461156a5760405162461bcd60e51b815260206004820152602960248201527f4552433732313a207472616e73666572206f6620746f6b656e2074686174206960448201526839903737ba1037bbb760b91b6064820152608401610650565b6001600160a01b0382166115cc5760405162461bcd60e51b8152602060048201526024808201527f4552433732313a207472616e7366657220746f20746865207a65726f206164646044820152637265737360e01b6064820152608401610650565b6115d7600082611379565b6001600160a01b0383166000908152600460205260408120805460019290611600908490612773565b90915550506001600160a01b038216600090815260046020526040812080546001929061162e908490612611565b909155505060008181526003602052604080822080546001600160a01b0319166001600160a01b0386811691821790925591518493918716917fddf252ad1be2c89b69c2b068fc378daa952ba7f163c4a11628f55a4df523b3ef91a4505050565b60608151600014156116af57505060408051602081019091526000815290565b600060405180606001604052806040815260200161288960409139905060006003845160026116de9190612611565b6116e8919061267c565b6116f3906004612715565b90506000611702826020612611565b67ffffffffffffffff81111561171a5761171a61285c565b6040519080825280601f01601f191660200182016040528015611744576020820181803683370190505b509050818152600183018586518101602084015b818310156117b0576003830192508251603f8160121c168501518253600182019150603f81600c1c168501518253600182019150603f8160061c168501518253600182019150603f8116850151825350600101611758565b6003895106600181146117ca57600281146117db576117e7565b613d3d60f01b6001198301526117e7565b603d60f81b6000198301525b509398975050505050505050565b600061180082610ab3565b905061180d600083611379565b6001600160a01b0381166000908152600460205260408120805460019290611836908490612773565b909155505060008281526003602052604080822080546001600160a01b0319169055518391906001600160a01b038416907fddf252ad1be2c89b69c2b068fc378daa952ba7f163c4a11628f55a4df523b3ef908390a45050565b6060816118b45750506040805180820190915260018152600360fc1b602082015290565b8160005b81156118de57806118c8816127eb565b91506118d79050600a8361267c565b91506118b8565b60008167ffffffffffffffff8111156118f9576118f961285c565b6040519080825280601f01601f191660200182016040528015611923576020820181803683370190505b509050815b85156119b057611939600182612773565b90506000611948600a8861267c565b61195390600a612715565b61195d9088612773565b611968906030612629565b905060008160f81b90508084848151811061198557611985612846565b60200101906001600160f81b031916908160001a9053506119a7600a8961267c565b97505050611928565b50949350505050565b600080546001600160a01b038381166001600160a01b0319831681178455604051919092169283917f8be0079c531659141344cd1fd0a4f28419497f9722a3daafe3b4186f6b6457e09190a35050565b611a148484846114ef565b611a2084848484611ba4565b610f1a5760405162461bcd60e51b8152600401610650906124b7565b60008080611a55611a50620151808661267c565b611cb1565b9196909550909350915050565b6001600160a01b038216611ab85760405162461bcd60e51b815260206004820181905260248201527f4552433732313a206d696e7420746f20746865207a65726f20616464726573736044820152606401610650565b6000818152600360205260409020546001600160a01b031615611b1d5760405162461bcd60e51b815260206004820152601c60248201527f4552433732313a20746f6b656e20616c7265616479206d696e746564000000006044820152606401610650565b6001600160a01b0382166000908152600460205260408120805460019290611b46908490612611565b909155505060008181526003602052604080822080546001600160a01b0319166001600160a01b03861690811790915590518392907fddf252ad1be2c89b69c2b068fc378daa952ba7f163c4a11628f55a4df523b3ef908290a45050565b60006001600160a01b0384163b15611ca657604051630a85bd0160e11b81526001600160a01b0385169063150b7a0290611be8903390899088908890600401612467565b602060405180830381600087803b158015611c0257600080fd5b505af1925050508015611c32575060408051601f3d908101601f19168201909252611c2f91810190612047565b60015b611c8c573d808015611c60576040519150601f19603f3d011682016040523d82523d6000602084013e611c65565b606091505b508051611c845760405162461bcd60e51b8152600401610650906124b7565b805181602001fd5b6001600160e01b031916630a85bd0160e11b1490506114e7565b506001949350505050565b60008080838162253d8c611cc88362010bd96125d0565b611cd291906125d0565b9050600062023ab1611ce5836004612690565b611cef919061264e565b90506004611d008262023ab1612690565b611d0b9060036125d0565b611d15919061264e565b611d1f9083612734565b9150600062164b09611d328460016125d0565b611d3e90610fa0612690565b611d48919061264e565b90506004611d58826105b5612690565b611d62919061264e565b611d6c9084612734565b611d7790601f6125d0565b9250600061098f611d89856050612690565b611d93919061264e565b905060006050611da58361098f612690565b611daf919061264e565b611db99086612734565b9050611dc6600b8361264e565b9450611dd385600c612690565b611dde8360026125d0565b611de89190612734565b91508483611df7603187612734565b611e02906064612690565b611e0c91906125d0565b611e1691906125d0565b9a919950975095505050505050565b600067ffffffffffffffff80841115611e4057611e4061285c565b604051601f8501601f19908116603f01168101908282118183101715611e6857611e6861285c565b81604052809350858152868686011115611e8157600080fd5b858560208301376000602087830101525050509392505050565b80356001600160a01b0381168114611eb257600080fd5b919050565b600060208284031215611ec957600080fd5b611ed282611e9b565b9392505050565b60008060408385031215611eec57600080fd5b611ef583611e9b565b9150611f0360208401611e9b565b90509250929050565b600080600060608486031215611f2157600080fd5b611f2a84611e9b565b9250611f3860208501611e9b565b9150604084013590509250925092565b60008060008060808587031215611f5e57600080fd5b611f6785611e9b565b9350611f7560208601611e9b565b925060408501359150606085013567ffffffffffffffff811115611f9857600080fd5b8501601f81018713611fa957600080fd5b611fb887823560208401611e25565b91505092959194509250565b60008060408385031215611fd757600080fd5b611fe083611e9b565b915060208301358015158114611ff557600080fd5b809150509250929050565b6000806040838503121561201357600080fd5b61201c83611e9b565b946020939093013593505050565b60006020828403121561203c57600080fd5b8135611ed281612872565b60006020828403121561205957600080fd5b8151611ed281612872565b60006020828403121561207657600080fd5b813567ffffffffffffffff81111561208d57600080fd5b8201601f8101841361209e57600080fd5b6114e784823560208401611e25565b6000602082840312156120bf57600080fd5b5035919050565b600081518084526120de81602086016020860161278a565b601f01601f19169290920160200192915050565b6000815161210481856020860161278a565b9290920192915050565b6000825161212081846020870161278a565b9190910192915050565b6000835161213c81846020880161278a565b83519083019061215081836020880161278a565b01949350505050565b6000845161216b81846020890161278a565b8083019050600160fd1b808252855161218b816001850160208a0161278a565b6001920191820181905284516121a881600285016020890161278a565b600292019182015260030195945050505050565b600083516121ce81846020880161278a565b7f222066696c6c3d227472616e73706172656e7422207374726f6b653d22000000908301908152835161220881601d84016020880161278a565b6211179f60e91b601d9290910191820152602001949350505050565b6000825161223681846020870161278a565b651e17b9bb339f60d11b920191825250600601919050565b7f3c73766720786d6c6e733d22687474703a2f2f7777772e77332e6f72672f323081526f181817b9bb3391103432b4b3b43a1e9160811b60208201526000835161229f81603085016020880161278a565b6811103bb4b23a341e9160b91b60309184019182015283516122c881603984016020880161278a565b61111f60f11b60399290910191820152603b01949350505050565b7f646174613a6170706c69636174696f6e2f6a736f6e3b6261736536342c00000081526000825161231b81601d85016020870161278a565b91909101601d0192915050565b7f7b20226e616d65223a202245636f6e6f6d6963732044657369676e20426f6f6b81526201116160ed1b60208201527f226465736372697074696f6e223a202245636f6e6f6d69637320616e64204d6160238201527f7468206f6620546f6b656e20456e67696e656572696e6720616e6420446546696043820152601160f91b60638201527416101132bc3834b930ba34b7b72230ba32911d101160591b6064820152600085516123e0816079850160208a0161278a565b8083019050602f60f81b806079830152865161240381607a850160208b0161278a565b607a920191820152845161241e81607b84016020890161278a565b61245b61244c612446607b848601016c1116101134b6b0b3b2911d101160991b8152600d0190565b876120f2565b6222207d60e81b815260030190565b98975050505050505050565b6001600160a01b038581168252841660208201526040810183905260806060820181905260009061249a908301846120c6565b9695505050505050565b602081526000611ed260208301846120c6565b60208082526032908201527f4552433732313a207472616e7366657220746f206e6f6e20455243373231526560408201527131b2b4bb32b91034b6b83632b6b2b73a32b960711b606082015260800190565b60208082526021908201527f45636f6e4e46543a2053656e646572206973206e6f7420746865206d696e74656040820152603960f91b606082015260800190565b6020808252818101527f4f776e61626c653a2063616c6c6572206973206e6f7420746865206f776e6572604082015260600190565b60208082526031908201527f4552433732313a207472616e736665722063616c6c6572206973206e6f74206f6040820152701ddb995c881b9bdc88185c1c1c9bdd9959607a1b606082015260800190565b600080821280156001600160ff1b03849003851316156125f2576125f261281a565b600160ff1b839003841281161561260b5761260b61281a565b50500190565b600082198211156126245761262461281a565b500190565b600060ff821660ff84168060ff038211156126465761264661281a565b019392505050565b60008261265d5761265d612830565b600160ff1b8214600019841416156126775761267761281a565b500590565b60008261268b5761268b612830565b500490565b60006001600160ff1b03818413828413808216868404861116156126b6576126b661281a565b600160ff1b60008712828116878305891216156126d5576126d561281a565b600087129250878205871284841616156126f1576126f161281a565b878505871281841616156127075761270761281a565b505050929093029392505050565b600081600019048311821515161561272f5761272f61281a565b500290565b60008083128015600160ff1b8501841216156127525761275261281a565b6001600160ff1b038401831381161561276d5761276d61281a565b50500390565b6000828210156127855761278561281a565b500390565b60005b838110156127a557818101518382015260200161278d565b83811115610f1a5750506000910152565b600181811c908216806127ca57607f821691505b6020821081141561141257634e487b7160e01b600052602260045260246000fd5b60006000198214156127ff576127ff61281a565b5060010190565b60008261281557612815612830565b500690565b634e487b7160e01b600052601160045260246000fd5b634e487b7160e01b600052601260045260246000fd5b634e487b7160e01b600052603260045260246000fd5b634e487b7160e01b600052604160045260246000fd5b6001600160e01b031981168114610ab057600080fdfe4142434445464748494a4b4c4d4e4f505152535455565758595a6162636465666768696a6b6c6d6e6f707172737475767778797a303132333435363738392b2fa26469706673582212208bb2aa8ec380e9baead276f29647f8f22cfcec27b10c791124d12f167413934164736f6c63430008060033",
  "devdoc": {
    "kind": "dev",
    "methods": {
      "approve(address,uint256)": {
        "details": "See {IERC721-approve}."
      },
      "balanceOf(address)": {
        "details": "See {IERC721-balanceOf}."
      },
      "burn(uint256)": {
        "params": {
          "econNFTId": "the id of the NFT you want to burn."
        }
      },
      "constructor": {
        "details": "Variables used to make the JPEG are set in order to construct an SVG later on. ",
        "params": {
          "_expirationTimestamp": "the date where the EconNFT will expire (timestamp in seconds).",
          "_totalSupply": "maximum number of NFT that is going to be minted."
        }
      },
      "generatePath(uint256)": {
        "details": "Function called by the `generateSVG()` function.",
        "params": {
          "_randomNumber": "is a random number from the `generatePath()` function."
        },
        "returns": {
          "pathSvg": "a string containing all SVG instructions."
        }
      },
      "generatePathCommand(uint256)": {
        "details": "Called by the `generatePath()` function.",
        "params": {
          "_randomNumber": "is a random number from the `generatePath()` function."
        },
        "returns": {
          "pathCommand": "a string containing the paths to create the SVG."
        }
      },
      "generateSVG(uint256)": {
        "details": "The random number is used to print random lines and random colors on the final SVG.",
        "params": {
          "_randomNumber": "is a random number used to construct the SVG (the more random the better)."
        },
        "returns": {
          "finalSvg": "the full SVG component readable by a browser."
        }
      },
      "getApproved(uint256)": {
        "details": "See {IERC721-getApproved}."
      },
      "isApprovedForAll(address,address)": {
        "details": "See {IERC721-isApprovedForAll}."
      },
      "mint()": {
        "details": "Create a new NFT and send it to the minter.",
        "returns": {
          "_0": "Return the id of the minted NFT."
        }
      },
      "name()": {
        "details": "See {IERC721Metadata-name}."
      },
      "owner()": {
        "details": "Returns the address of the current owner."
      },
      "ownerOf(uint256)": {
        "details": "See {IERC721-ownerOf}."
      },
      "renounceOwnership()": {
        "details": "Leaves the contract without owner. It will not be possible to call `onlyOwner` functions anymore. Can only be called by the current owner. NOTE: Renouncing ownership will leave the contract without an owner, thereby removing any functionality that is only available to the owner."
      },
      "safeTransferFrom(address,address,uint256)": {
        "details": "See {IERC721-safeTransferFrom}."
      },
      "safeTransferFrom(address,address,uint256,bytes)": {
        "details": "See {IERC721-safeTransferFrom}."
      },
      "setApprovalForAll(address,bool)": {
        "details": "See {IERC721-setApprovalForAll}."
      },
      "setCurrentExpirationTimestamp(uint256)": {
        "params": {
          "_newExpirationTimestamp": "the new timestamp."
        }
      },
      "setMinter(address)": {
        "params": {
          "_minter": "The new minter address."
        }
      },
      "supportsInterface(bytes4)": {
        "details": "See {IERC165-supportsInterface}."
      },
      "svgToImageURI(string)": {
        "params": {
          "_svg": "is the SVG component."
        },
        "returns": {
          "_0": "imageURI a string readable by the browser which will display the SVG."
        }
      },
      "symbol()": {
        "details": "See {IERC721Metadata-symbol}."
      },
      "tokenURI(uint256)": {
        "params": {
          "tokenId": "the id of the token you would like to read information from."
        },
        "returns": {
          "_0": "data a 64 based encoded string containing a json object with all the informations."
        }
      },
      "transferFrom(address,address,uint256)": {
        "details": "See {IERC721-transferFrom}."
      },
      "transferOwnership(address)": {
        "details": "Transfers ownership of the contract to a new account (`newOwner`). Can only be called by the current owner."
      }
    },
    "title": "Economics Design Property Right NFT.",
    "version": 1
  },
  "userdoc": {
    "kind": "user",
    "methods": {
      "burn(uint256)": {
        "notice": "Call the ERC721 `_burn()` function which burn an NFT and sends it to the address(0)."
      },
      "generatePath(uint256)": {
        "notice": "Generate different paths that creates the SVG lines."
      },
      "generatePathCommand(uint256)": {
        "notice": "Generate the paths to create the SVG."
      },
      "generateSVG(uint256)": {
        "notice": "Generate a full SVG component."
      },
      "getCurrentExpirationTimestamp()": {
        "notice": "Used mainly for the auction house."
      },
      "getNumberOfPeriodPassed()": {
        "notice": "Used mainly for the auction house."
      },
      "lockMinter()": {
        "notice": "Lock the minter from calling certain functions."
      },
      "mint()": {
        "notice": "Mint a new NFT."
      },
      "setCurrentExpirationTimestamp(uint256)": {
        "notice": "Change the expiration timestamp of the future NFTs about to get minted."
      },
      "setMinter(address)": {
        "notice": "Change the minter address."
      },
      "svgToImageURI(string)": {
        "notice": "Takes a SVG and encode it while still keeping it readable by a browser."
      },
      "tokenURI(uint256)": {
        "notice": "Contain all the informations needed for read this NFT informations."
      }
    },
    "notice": "Contract used to verify the ownership of the Economics Design book property rights.",
    "version": 1
  },
  "storageLayout": {
    "storage": [
      {
        "astId": 7,
        "contract": "contracts/EconNFTERC721.sol:EconNFTERC721",
        "label": "_owner",
        "offset": 0,
        "slot": "0",
        "type": "t_address"
      },
      {
        "astId": 2352,
        "contract": "contracts/EconNFTERC721.sol:EconNFTERC721",
        "label": "_name",
        "offset": 0,
        "slot": "1",
        "type": "t_string_storage"
      },
      {
        "astId": 2354,
        "contract": "contracts/EconNFTERC721.sol:EconNFTERC721",
        "label": "_symbol",
        "offset": 0,
        "slot": "2",
        "type": "t_string_storage"
      },
      {
        "astId": 2358,
        "contract": "contracts/EconNFTERC721.sol:EconNFTERC721",
        "label": "_owners",
        "offset": 0,
        "slot": "3",
        "type": "t_mapping(t_uint256,t_address)"
      },
      {
        "astId": 2362,
        "contract": "contracts/EconNFTERC721.sol:EconNFTERC721",
        "label": "_balances",
        "offset": 0,
        "slot": "4",
        "type": "t_mapping(t_address,t_uint256)"
      },
      {
        "astId": 2366,
        "contract": "contracts/EconNFTERC721.sol:EconNFTERC721",
        "label": "_tokenApprovals",
        "offset": 0,
        "slot": "5",
        "type": "t_mapping(t_uint256,t_address)"
      },
      {
        "astId": 2372,
        "contract": "contracts/EconNFTERC721.sol:EconNFTERC721",
        "label": "_operatorApprovals",
        "offset": 0,
        "slot": "6",
        "type": "t_mapping(t_address,t_mapping(t_address,t_bool))"
      },
      {
        "astId": 2374,
        "contract": "contracts/EconNFTERC721.sol:EconNFTERC721",
        "label": "econAuctionHouse",
        "offset": 0,
        "slot": "7",
        "type": "t_address"
      },
      {
        "astId": 5530,
        "contract": "contracts/EconNFTERC721.sol:EconNFTERC721",
        "label": "minter",
        "offset": 0,
        "slot": "8",
        "type": "t_address"
      },
      {
        "astId": 5532,
        "contract": "contracts/EconNFTERC721.sol:EconNFTERC721",
        "label": "_currentEconNFTId",
        "offset": 0,
        "slot": "9",
        "type": "t_uint256"
      },
      {
        "astId": 5534,
        "contract": "contracts/EconNFTERC721.sol:EconNFTERC721",
        "label": "isMinterLocked",
        "offset": 0,
        "slot": "10",
        "type": "t_bool"
      },
      {
        "astId": 5539,
        "contract": "contracts/EconNFTERC721.sol:EconNFTERC721",
        "label": "seeds",
        "offset": 0,
        "slot": "11",
        "type": "t_mapping(t_uint256,t_struct(Seed)5528_storage)"
      },
      {
        "astId": 5541,
        "contract": "contracts/EconNFTERC721.sol:EconNFTERC721",
        "label": "currentExpirationTimestamp",
        "offset": 0,
        "slot": "12",
        "type": "t_uint256"
      },
      {
        "astId": 5543,
        "contract": "contracts/EconNFTERC721.sol:EconNFTERC721",
        "label": "numberOfPeriodPassed",
        "offset": 0,
        "slot": "13",
        "type": "t_uint256"
      },
      {
        "astId": 5555,
        "contract": "contracts/EconNFTERC721.sol:EconNFTERC721",
        "label": "maxNumberOfPath",
        "offset": 0,
        "slot": "14",
        "type": "t_uint256"
      },
      {
        "astId": 5557,
        "contract": "contracts/EconNFTERC721.sol:EconNFTERC721",
        "label": "maxNumberOfPathCommands",
        "offset": 0,
        "slot": "15",
        "type": "t_uint256"
      },
      {
        "astId": 5559,
        "contract": "contracts/EconNFTERC721.sol:EconNFTERC721",
        "label": "size",
        "offset": 0,
        "slot": "16",
        "type": "t_uint256"
      },
      {
        "astId": 5562,
        "contract": "contracts/EconNFTERC721.sol:EconNFTERC721",
        "label": "pathCommands",
        "offset": 0,
        "slot": "17",
        "type": "t_array(t_string_storage)dyn_storage"
      },
      {
        "astId": 5565,
        "contract": "contracts/EconNFTERC721.sol:EconNFTERC721",
        "label": "colors",
        "offset": 0,
        "slot": "18",
        "type": "t_array(t_string_storage)dyn_storage"
      }
    ],
    "types": {
      "t_address": {
        "encoding": "inplace",
        "label": "address",
        "numberOfBytes": "20"
      },
      "t_array(t_string_storage)dyn_storage": {
        "base": "t_string_storage",
        "encoding": "dynamic_array",
        "label": "string[]",
        "numberOfBytes": "32"
      },
      "t_bool": {
        "encoding": "inplace",
        "label": "bool",
        "numberOfBytes": "1"
      },
      "t_mapping(t_address,t_bool)": {
        "encoding": "mapping",
        "key": "t_address",
        "label": "mapping(address => bool)",
        "numberOfBytes": "32",
        "value": "t_bool"
      },
      "t_mapping(t_address,t_mapping(t_address,t_bool))": {
        "encoding": "mapping",
        "key": "t_address",
        "label": "mapping(address => mapping(address => bool))",
        "numberOfBytes": "32",
        "value": "t_mapping(t_address,t_bool)"
      },
      "t_mapping(t_address,t_uint256)": {
        "encoding": "mapping",
        "key": "t_address",
        "label": "mapping(address => uint256)",
        "numberOfBytes": "32",
        "value": "t_uint256"
      },
      "t_mapping(t_uint256,t_address)": {
        "encoding": "mapping",
        "key": "t_uint256",
        "label": "mapping(uint256 => address)",
        "numberOfBytes": "32",
        "value": "t_address"
      },
      "t_mapping(t_uint256,t_struct(Seed)5528_storage)": {
        "encoding": "mapping",
        "key": "t_uint256",
        "label": "mapping(uint256 => struct EconNFTERC721.Seed)",
        "numberOfBytes": "32",
        "value": "t_struct(Seed)5528_storage"
      },
      "t_string_storage": {
        "encoding": "bytes",
        "label": "string",
        "numberOfBytes": "32"
      },
      "t_struct(Seed)5528_storage": {
        "encoding": "inplace",
        "label": "struct EconNFTERC721.Seed",
        "members": [
          {
            "astId": 5527,
            "contract": "contracts/EconNFTERC721.sol:EconNFTERC721",
            "label": "expirationTimestamp",
            "offset": 0,
            "slot": "0",
            "type": "t_uint256"
          }
        ],
        "numberOfBytes": "32"
      },
      "t_uint256": {
        "encoding": "inplace",
        "label": "uint256",
        "numberOfBytes": "32"
      }
    }
  }
}