{
  "address": "0x7E8435c76a59fb12c3997bC46bD124F4aBb1C09a",
  "abi": [
    {
      "inputs": [
        {
          "internalType": "uint256",
          "name": "_totalSupply",
          "type": "uint256"
        }
      ],
      "stateMutability": "nonpayable",
      "type": "constructor"
    },
    {
      "anonymous": false,
      "inputs": [
        {
          "indexed": true,
          "internalType": "address",
          "name": "owner",
          "type": "address"
        },
        {
          "indexed": true,
          "internalType": "address",
          "name": "approved",
          "type": "address"
        },
        {
          "indexed": true,
          "internalType": "uint256",
          "name": "tokenId",
          "type": "uint256"
        }
      ],
      "name": "Approval",
      "type": "event"
    },
    {
      "anonymous": false,
      "inputs": [
        {
          "indexed": true,
          "internalType": "address",
          "name": "owner",
          "type": "address"
        },
        {
          "indexed": true,
          "internalType": "address",
          "name": "operator",
          "type": "address"
        },
        {
          "indexed": false,
          "internalType": "bool",
          "name": "approved",
          "type": "bool"
        }
      ],
      "name": "ApprovalForAll",
      "type": "event"
    },
    {
      "anonymous": false,
      "inputs": [
        {
          "indexed": true,
          "internalType": "address",
          "name": "previousOwner",
          "type": "address"
        },
        {
          "indexed": true,
          "internalType": "address",
          "name": "newOwner",
          "type": "address"
        }
      ],
      "name": "OwnershipTransferred",
      "type": "event"
    },
    {
      "anonymous": false,
      "inputs": [
        {
          "indexed": true,
          "internalType": "address",
          "name": "from",
          "type": "address"
        },
        {
          "indexed": true,
          "internalType": "address",
          "name": "to",
          "type": "address"
        },
        {
          "indexed": true,
          "internalType": "uint256",
          "name": "tokenId",
          "type": "uint256"
        }
      ],
      "name": "Transfer",
      "type": "event"
    },
    {
      "inputs": [
        {
          "internalType": "address",
          "name": "to",
          "type": "address"
        },
        {
          "internalType": "uint256",
          "name": "tokenId",
          "type": "uint256"
        }
      ],
      "name": "approve",
      "outputs": [],
      "stateMutability": "nonpayable",
      "type": "function"
    },
    {
      "inputs": [
        {
          "internalType": "address",
          "name": "owner",
          "type": "address"
        }
      ],
      "name": "balanceOf",
      "outputs": [
        {
          "internalType": "uint256",
          "name": "",
          "type": "uint256"
        }
      ],
      "stateMutability": "view",
      "type": "function"
    },
    {
      "inputs": [
        {
          "internalType": "uint256",
          "name": "econNFTId",
          "type": "uint256"
        }
      ],
      "name": "burn",
      "outputs": [],
      "stateMutability": "nonpayable",
      "type": "function"
    },
    {
      "inputs": [
        {
          "internalType": "uint256",
          "name": "",
          "type": "uint256"
        }
      ],
      "name": "colors",
      "outputs": [
        {
          "internalType": "string",
          "name": "",
          "type": "string"
        }
      ],
      "stateMutability": "view",
      "type": "function"
    },
    {
      "inputs": [],
      "name": "currentExpirationDate",
      "outputs": [
        {
          "internalType": "uint256",
          "name": "",
          "type": "uint256"
        }
      ],
      "stateMutability": "view",
      "type": "function"
    },
    {
      "inputs": [
        {
          "internalType": "uint256",
          "name": "_randomNumber",
          "type": "uint256"
        }
      ],
      "name": "generatePath",
      "outputs": [
        {
          "internalType": "string",
          "name": "pathSvg",
          "type": "string"
        }
      ],
      "stateMutability": "view",
      "type": "function"
    },
    {
      "inputs": [
        {
          "internalType": "uint256",
          "name": "_randomNumber",
          "type": "uint256"
        }
      ],
      "name": "generatePathCommand",
      "outputs": [
        {
          "internalType": "string",
          "name": "pathCommand",
          "type": "string"
        }
      ],
      "stateMutability": "view",
      "type": "function"
    },
    {
      "inputs": [
        {
          "internalType": "uint256",
          "name": "_randomNumber",
          "type": "uint256"
        }
      ],
      "name": "generateSVG",
      "outputs": [
        {
          "internalType": "string",
          "name": "finalSvg",
          "type": "string"
        }
      ],
      "stateMutability": "view",
      "type": "function"
    },
    {
      "inputs": [
        {
          "internalType": "uint256",
          "name": "tokenId",
          "type": "uint256"
        }
      ],
      "name": "getApproved",
      "outputs": [
        {
          "internalType": "address",
          "name": "",
          "type": "address"
        }
      ],
      "stateMutability": "view",
      "type": "function"
    },
    {
      "inputs": [
        {
          "internalType": "address",
          "name": "owner",
          "type": "address"
        },
        {
          "internalType": "address",
          "name": "operator",
          "type": "address"
        }
      ],
      "name": "isApprovedForAll",
      "outputs": [
        {
          "internalType": "bool",
          "name": "",
          "type": "bool"
        }
      ],
      "stateMutability": "view",
      "type": "function"
    },
    {
      "inputs": [],
      "name": "isMinterLocked",
      "outputs": [
        {
          "internalType": "bool",
          "name": "",
          "type": "bool"
        }
      ],
      "stateMutability": "view",
      "type": "function"
    },
    {
      "inputs": [],
      "name": "lockMinter",
      "outputs": [],
      "stateMutability": "nonpayable",
      "type": "function"
    },
    {
      "inputs": [],
      "name": "maxNumberOfPath",
      "outputs": [
        {
          "internalType": "uint256",
          "name": "",
          "type": "uint256"
        }
      ],
      "stateMutability": "view",
      "type": "function"
    },
    {
      "inputs": [],
      "name": "maxNumberOfPathCommands",
      "outputs": [
        {
          "internalType": "uint256",
          "name": "",
          "type": "uint256"
        }
      ],
      "stateMutability": "view",
      "type": "function"
    },
    {
      "inputs": [],
      "name": "mint",
      "outputs": [
        {
          "internalType": "uint256",
          "name": "",
          "type": "uint256"
        }
      ],
      "stateMutability": "nonpayable",
      "type": "function"
    },
    {
      "inputs": [],
      "name": "minter",
      "outputs": [
        {
          "internalType": "address",
          "name": "",
          "type": "address"
        }
      ],
      "stateMutability": "view",
      "type": "function"
    },
    {
      "inputs": [],
      "name": "name",
      "outputs": [
        {
          "internalType": "string",
          "name": "",
          "type": "string"
        }
      ],
      "stateMutability": "view",
      "type": "function"
    },
    {
      "inputs": [],
      "name": "owner",
      "outputs": [
        {
          "internalType": "address",
          "name": "",
          "type": "address"
        }
      ],
      "stateMutability": "view",
      "type": "function"
    },
    {
      "inputs": [
        {
          "internalType": "uint256",
          "name": "tokenId",
          "type": "uint256"
        }
      ],
      "name": "ownerOf",
      "outputs": [
        {
          "internalType": "address",
          "name": "",
          "type": "address"
        }
      ],
      "stateMutability": "view",
      "type": "function"
    },
    {
      "inputs": [
        {
          "internalType": "uint256",
          "name": "",
          "type": "uint256"
        }
      ],
      "name": "pathCommands",
      "outputs": [
        {
          "internalType": "string",
          "name": "",
          "type": "string"
        }
      ],
      "stateMutability": "view",
      "type": "function"
    },
    {
      "inputs": [],
      "name": "renounceOwnership",
      "outputs": [],
      "stateMutability": "nonpayable",
      "type": "function"
    },
    {
      "inputs": [
        {
          "internalType": "address",
          "name": "from",
          "type": "address"
        },
        {
          "internalType": "address",
          "name": "to",
          "type": "address"
        },
        {
          "internalType": "uint256",
          "name": "tokenId",
          "type": "uint256"
        }
      ],
      "name": "safeTransferFrom",
      "outputs": [],
      "stateMutability": "nonpayable",
      "type": "function"
    },
    {
      "inputs": [
        {
          "internalType": "address",
          "name": "from",
          "type": "address"
        },
        {
          "internalType": "address",
          "name": "to",
          "type": "address"
        },
        {
          "internalType": "uint256",
          "name": "tokenId",
          "type": "uint256"
        },
        {
          "internalType": "bytes",
          "name": "_data",
          "type": "bytes"
        }
      ],
      "name": "safeTransferFrom",
      "outputs": [],
      "stateMutability": "nonpayable",
      "type": "function"
    },
    {
      "inputs": [
        {
          "internalType": "uint256",
          "name": "",
          "type": "uint256"
        }
      ],
      "name": "seeds",
      "outputs": [
        {
          "internalType": "uint256",
          "name": "expirationDate",
          "type": "uint256"
        },
        {
          "internalType": "uint256",
          "name": "numberOfBooks",
          "type": "uint256"
        }
      ],
      "stateMutability": "view",
      "type": "function"
    },
    {
      "inputs": [
        {
          "internalType": "address",
          "name": "operator",
          "type": "address"
        },
        {
          "internalType": "bool",
          "name": "approved",
          "type": "bool"
        }
      ],
      "name": "setApprovalForAll",
      "outputs": [],
      "stateMutability": "nonpayable",
      "type": "function"
    },
    {
      "inputs": [
        {
          "internalType": "uint256",
          "name": "_newExpirationDate",
          "type": "uint256"
        }
      ],
      "name": "setCurrentExpirationDate",
      "outputs": [],
      "stateMutability": "nonpayable",
      "type": "function"
    },
    {
      "inputs": [
        {
          "internalType": "address",
          "name": "_minter",
          "type": "address"
        }
      ],
      "name": "setMinter",
      "outputs": [],
      "stateMutability": "nonpayable",
      "type": "function"
    },
    {
      "inputs": [],
      "name": "size",
      "outputs": [
        {
          "internalType": "uint256",
          "name": "",
          "type": "uint256"
        }
      ],
      "stateMutability": "view",
      "type": "function"
    },
    {
      "inputs": [
        {
          "internalType": "bytes4",
          "name": "interfaceId",
          "type": "bytes4"
        }
      ],
      "name": "supportsInterface",
      "outputs": [
        {
          "internalType": "bool",
          "name": "",
          "type": "bool"
        }
      ],
      "stateMutability": "view",
      "type": "function"
    },
    {
      "inputs": [
        {
          "internalType": "string",
          "name": "_svg",
          "type": "string"
        }
      ],
      "name": "svgToImageURI",
      "outputs": [
        {
          "internalType": "string",
          "name": "",
          "type": "string"
        }
      ],
      "stateMutability": "pure",
      "type": "function"
    },
    {
      "inputs": [],
      "name": "symbol",
      "outputs": [
        {
          "internalType": "string",
          "name": "",
          "type": "string"
        }
      ],
      "stateMutability": "view",
      "type": "function"
    },
    {
      "inputs": [
        {
          "internalType": "uint256",
          "name": "tokenId",
          "type": "uint256"
        }
      ],
      "name": "tokenURI",
      "outputs": [
        {
          "internalType": "string",
          "name": "",
          "type": "string"
        }
      ],
      "stateMutability": "view",
      "type": "function"
    },
    {
      "inputs": [],
      "name": "totalSupply",
      "outputs": [
        {
          "internalType": "uint256",
          "name": "",
          "type": "uint256"
        }
      ],
      "stateMutability": "view",
      "type": "function"
    },
    {
      "inputs": [
        {
          "internalType": "address",
          "name": "from",
          "type": "address"
        },
        {
          "internalType": "address",
          "name": "to",
          "type": "address"
        },
        {
          "internalType": "uint256",
          "name": "tokenId",
          "type": "uint256"
        }
      ],
      "name": "transferFrom",
      "outputs": [],
      "stateMutability": "nonpayable",
      "type": "function"
    },
    {
      "inputs": [
        {
          "internalType": "address",
          "name": "newOwner",
          "type": "address"
        }
      ],
      "name": "transferOwnership",
      "outputs": [],
      "stateMutability": "nonpayable",
      "type": "function"
    }
  ],
  "transactionHash": "0xd3bafe1bfb6f2152bc5711c8ebd77b5905feeaeec94d06a16660e778269d7f47",
  "args": [
    "0"
  ],
  "solcInputHash": "c16f364313aec072ac2a5ce01e24a8d1",
  "bytecode": "0x60806040523480156200001157600080fd5b506040516200507b3803806200507b83398181016040528101906200003791906200062d565b6040518060400160405280600c81526020017f45636f6e746572696320495000000000000000000000000000000000000000008152506040518060400160405280600481526020017f45434950000000000000000000000000000000000000000000000000000000008152508160009080519060200190620000bb9291906200042a565b508060019080519060200190620000d49291906200042a565b505050620000f7620000eb6200035c60201b60201c565b6200036460201b60201c565b806008819055506000600a60006101000a81548160ff02191690831515021790555060006009819055506361cf8b70600c81905550600a600f8190555060056010819055506101f460118190555060405180604001604052806040518060400160405280600181526020017f4d0000000000000000000000000000000000000000000000000000000000000081525081526020016040518060400160405280600181526020017f4c000000000000000000000000000000000000000000000000000000000000008152508152506012906002620001d6929190620004bb565b506040518060c001604052806040518060400160405280600381526020017f726564000000000000000000000000000000000000000000000000000000000081525081526020016040518060400160405280600481526020017f626c75650000000000000000000000000000000000000000000000000000000081525081526020016040518060400160405280600581526020017f677265656e00000000000000000000000000000000000000000000000000000081525081526020016040518060400160405280600681526020017f79656c6c6f77000000000000000000000000000000000000000000000000000081525081526020016040518060400160405280600581526020017f626c61636b00000000000000000000000000000000000000000000000000000081525081526020016040518060400160405280600581526020017f776869746500000000000000000000000000000000000000000000000000000081525081525060139060066200035492919062000522565b5050620006ed565b600033905090565b6000600660009054906101000a900473ffffffffffffffffffffffffffffffffffffffff16905081600660006101000a81548173ffffffffffffffffffffffffffffffffffffffff021916908373ffffffffffffffffffffffffffffffffffffffff1602179055508173ffffffffffffffffffffffffffffffffffffffff168173ffffffffffffffffffffffffffffffffffffffff167f8be0079c531659141344cd1fd0a4f28419497f9722a3daafe3b4186f6b6457e060405160405180910390a35050565b828054620004389062000669565b90600052602060002090601f0160209004810192826200045c5760008555620004a8565b82601f106200047757805160ff1916838001178555620004a8565b82800160010185558215620004a8579182015b82811115620004a75782518255916020019190600101906200048a565b5b509050620004b7919062000589565b5090565b8280548282559060005260206000209081019282156200050f579160200282015b828111156200050e578251829080519060200190620004fd9291906200042a565b5091602001919060010190620004dc565b5b5090506200051e9190620005a8565b5090565b82805482825590600052602060002090810192821562000576579160200282015b8281111562000575578251829080519060200190620005649291906200042a565b509160200191906001019062000543565b5b509050620005859190620005a8565b5090565b5b80821115620005a45760008160009055506001016200058a565b5090565b5b80821115620005cc5760008181620005c29190620005d0565b50600101620005a9565b5090565b508054620005de9062000669565b6000825580601f10620005f2575062000613565b601f01602090049060005260206000209081019062000612919062000589565b5b50565b6000815190506200062781620006d3565b92915050565b600060208284031215620006465762000645620006ce565b5b6000620006568482850162000616565b91505092915050565b6000819050919050565b600060028204905060018216806200068257607f821691505b602082108114156200069957620006986200069f565b5b50919050565b7f4e487b7100000000000000000000000000000000000000000000000000000000600052602260045260246000fd5b600080fd5b620006de816200065f565b8114620006ea57600080fd5b50565b61497e80620006fd6000396000f3fe608060405234801561001057600080fd5b50600436106102115760003560e01c80636dcee4ca11610125578063b88d4fde116100ad578063e11c81441161007c578063e11c81441461062c578063e985e9c514610648578063f0503e8014610678578063f2fde38b146106a9578063fca3b5aa146106c557610211565b8063b88d4fde14610580578063bd11f69d1461059c578063c68b49d1146105cc578063c87b56dd146105fc57610211565b80638da5cb5b116100f45780638da5cb5b146104da578063949d225d146104f8578063955968d41461051657806395d89b4114610546578063a22cb4651461056457610211565b80636dcee4ca1461046657806370a0823114610496578063715018a6146104c657806376daebe1146104d057610211565b806323b872dd116101a857806342966c681161017757806342966c68146103c057806348e896ab146103dc5780634f2f005e146103fa578063568a1844146104185780636352211e1461043657610211565b806323b872dd1461032857806330d871c61461034457806333af59891461037457806342842e0e146103a457610211565b8063095ea7b3116101e4578063095ea7b3146102b25780631249c58b146102ce57806318160ddd146102ec5780631e688e101461030a57610211565b806301ffc9a71461021657806306fdde03146102465780630754617214610264578063081812fc14610282575b600080fd5b610230600480360381019061022b9190612f04565b6106e1565b60405161023d919061375e565b60405180910390f35b61024e6107c3565b60405161025b9190613779565b60405180910390f35b61026c610855565b60405161027991906136f7565b60405180910390f35b61029c60048036038101906102979190612fa7565b61087b565b6040516102a991906136f7565b60405180910390f35b6102cc60048036038101906102c79190612ec4565b610900565b005b6102d6610a18565b6040516102e391906139bb565b60405180910390f35b6102f4610af1565b60405161030191906139bb565b60405180910390f35b610312610af7565b60405161031f919061375e565b60405180910390f35b610342600480360381019061033d9190612dae565b610b0a565b005b61035e60048036038101906103599190612f5e565b610b6a565b60405161036b9190613779565b60405180910390f35b61038e60048036038101906103899190612fa7565b610c03565b60405161039b9190613779565b60405180910390f35b6103be60048036038101906103b99190612dae565b610dcf565b005b6103da60048036038101906103d59190612fa7565b610def565b005b6103e4610e8b565b6040516103f191906139bb565b60405180910390f35b610402610e91565b60405161040f91906139bb565b60405180910390f35b610420610e97565b60405161042d91906139bb565b60405180910390f35b610450600480360381019061044b9190612fa7565b610e9d565b60405161045d91906136f7565b60405180910390f35b610480600480360381019061047b9190612fa7565b610f4f565b60405161048d9190613779565b60405180910390f35b6104b060048036038101906104ab9190612d41565b611051565b6040516104bd91906139bb565b60405180910390f35b6104ce611109565b005b6104d8611191565b005b6104e261127a565b6040516104ef91906136f7565b60405180910390f35b6105006112a4565b60405161050d91906139bb565b60405180910390f35b610530600480360381019061052b9190612fa7565b6112aa565b60405161053d9190613779565b60405180910390f35b61054e611356565b60405161055b9190613779565b60405180910390f35b61057e60048036038101906105799190612e84565b6113e8565b005b61059a60048036038101906105959190612e01565b611569565b005b6105b660048036038101906105b19190612fa7565b6115cb565b6040516105c39190613779565b60405180910390f35b6105e660048036038101906105e19190612fa7565b611677565b6040516105f39190613779565b60405180910390f35b61061660048036038101906106119190612fa7565b611810565b6040516106239190613779565b60405180910390f35b61064660048036038101906106419190612fa7565b61190a565b005b610662600480360381019061065d9190612d6e565b611990565b60405161066f919061375e565b60405180910390f35b610692600480360381019061068d9190612fa7565b611a24565b6040516106a09291906139d6565b60405180910390f35b6106c360048036038101906106be9190612d41565b611a48565b005b6106df60048036038101906106da9190612d41565b611b40565b005b60007f80ac58cd000000000000000000000000000000000000000000000000000000007bffffffffffffffffffffffffffffffffffffffffffffffffffffffff1916827bffffffffffffffffffffffffffffffffffffffffffffffffffffffff191614806107ac57507f5b5e139f000000000000000000000000000000000000000000000000000000007bffffffffffffffffffffffffffffffffffffffffffffffffffffffff1916827bffffffffffffffffffffffffffffffffffffffffffffffffffffffff1916145b806107bc57506107bb82611c50565b5b9050919050565b6060600080546107d290613f8b565b80601f01602080910402602001604051908101604052809291908181526020018280546107fe90613f8b565b801561084b5780601f106108205761010080835404028352916020019161084b565b820191906000526020600020905b81548152906001019060200180831161082e57829003601f168201915b5050505050905090565b600760009054906101000a900473ffffffffffffffffffffffffffffffffffffffff1681565b600061088682611cba565b6108c5576040517f08c379a00000000000000000000000000000000000000000000000000000000081526004016108bc9061391b565b60405180910390fd5b6004600083815260200190815260200160002060009054906101000a900473ffffffffffffffffffffffffffffffffffffffff169050919050565b600061090b82610e9d565b90508073ffffffffffffffffffffffffffffffffffffffff168373ffffffffffffffffffffffffffffffffffffffff16141561097c576040517f08c379a00000000000000000000000000000000000000000000000000000000081526004016109739061397b565b60405180910390fd5b8073ffffffffffffffffffffffffffffffffffffffff1661099b611d26565b73ffffffffffffffffffffffffffffffffffffffff1614806109ca57506109c9816109c4611d26565b611990565b5b610a09576040517f08c379a0000000000000000000000000000000000000000000000000000000008152600401610a009061389b565b60405180910390fd5b610a138383611d2e565b505050565b6000600760009054906101000a900473ffffffffffffffffffffffffffffffffffffffff1673ffffffffffffffffffffffffffffffffffffffff163373ffffffffffffffffffffffffffffffffffffffff1614610aaa576040517f08c379a0000000000000000000000000000000000000000000000000000000008152600401610aa1906137db565b60405180910390fd5b610aec600760009054906101000a900473ffffffffffffffffffffffffffffffffffffffff1660096000815480929190610ae390613fee565b91905055611de7565b905090565b60085481565b600a60009054906101000a900460ff1681565b610b1b610b15611d26565b82611e3e565b610b5a576040517f08c379a0000000000000000000000000000000000000000000000000000000008152600401610b519061399b565b60405180910390fd5b610b65838383611f1c565b505050565b606060006040518060400160405280601a81526020017f646174613a696d6167652f7376672b786d6c3b6261736536342c00000000000081525090506000610bd084604051602001610bbc9190613504565b604051602081830303815290604052612178565b905060008282604051602001610be792919061351b565b6040516020818303038152906040529050809350505050919050565b60606000600160105484610c179190614037565b610c219190613b5d565b90506040518060400160405280600981526020017f3c7061746820643d220000000000000000000000000000000000000000000000815250915060005b81811015610ce95760008482601154610c779190613b5d565b604051602001610c889291906139d6565b6040516020818303038152906040528051906020012060001c90506000610cae82611677565b90508481604051602001610cc392919061351b565b604051602081830303815290604052945050508080610ce190613fee565b915050610c5e565b5060006013808054905085610cfe9190614037565b81548110610d0f57610d0e6140f5565b5b906000526020600020018054610d2490613f8b565b80601f0160208091040260200160405190810160405280929190818152602001828054610d5090613f8b565b8015610d9d5780601f10610d7257610100808354040283529160200191610d9d565b820191906000526020600020905b815481529060010190602001808311610d8057829003601f168201915b505050505090508281604051602001610db7929190613591565b60405160208183030381529060405292505050919050565b610dea83838360405180602001604052806000815250611569565b505050565b600760009054906101000a900473ffffffffffffffffffffffffffffffffffffffff1673ffffffffffffffffffffffffffffffffffffffff163373ffffffffffffffffffffffffffffffffffffffff1614610e7f576040517f08c379a0000000000000000000000000000000000000000000000000000000008152600401610e76906137db565b60405180910390fd5b610e88816122f1565b50565b60105481565b600c5481565b600f5481565b6000806002600084815260200190815260200160002060009054906101000a900473ffffffffffffffffffffffffffffffffffffffff169050600073ffffffffffffffffffffffffffffffffffffffff168173ffffffffffffffffffffffffffffffffffffffff161415610f46576040517f08c379a0000000000000000000000000000000000000000000000000000000008152600401610f3d906138db565b60405180910390fd5b80915050919050565b606060006001600f5484610f639190614037565b610f6d9190613b5d565b9050610f7a601154612402565b610f85601154612402565b604051602001610f96929190613690565b604051602081830303815290604052915060005b818110156110285760008482604051602001610fc79291906139d6565b6040516020818303038152906040528051906020012060001c90506000610fed82610c03565b9050848160405160200161100292919061351b565b60405160208183030381529060405294505050808061102090613fee565b915050610faa565b508160405160200161103a91906135cb565b604051602081830303815290604052915050919050565b60008073ffffffffffffffffffffffffffffffffffffffff168273ffffffffffffffffffffffffffffffffffffffff1614156110c2576040517f08c379a00000000000000000000000000000000000000000000000000000000081526004016110b9906138bb565b60405180910390fd5b600360008373ffffffffffffffffffffffffffffffffffffffff1673ffffffffffffffffffffffffffffffffffffffff168152602001908152602001600020549050919050565b611111611d26565b73ffffffffffffffffffffffffffffffffffffffff1661112f61127a565b73ffffffffffffffffffffffffffffffffffffffff1614611185576040517f08c379a000000000000000000000000000000000000000000000000000000000815260040161117c9061393b565b60405180910390fd5b61118f600061258b565b565b611199611d26565b73ffffffffffffffffffffffffffffffffffffffff166111b761127a565b73ffffffffffffffffffffffffffffffffffffffff161461120d576040517f08c379a00000000000000000000000000000000000000000000000000000000081526004016112049061393b565b60405180910390fd5b600a60009054906101000a900460ff161561125d576040517f08c379a00000000000000000000000000000000000000000000000000000000081526004016112549061387b565b60405180910390fd5b6001600a60006101000a81548160ff021916908315150217905550565b6000600660009054906101000a900473ffffffffffffffffffffffffffffffffffffffff16905090565b60115481565b601281815481106112ba57600080fd5b9060005260206000200160009150905080546112d590613f8b565b80601f016020809104026020016040519081016040528092919081815260200182805461130190613f8b565b801561134e5780601f106113235761010080835404028352916020019161134e565b820191906000526020600020905b81548152906001019060200180831161133157829003601f168201915b505050505081565b60606001805461136590613f8b565b80601f016020809104026020016040519081016040528092919081815260200182805461139190613f8b565b80156113de5780601f106113b3576101008083540402835291602001916113de565b820191906000526020600020905b8154815290600101906020018083116113c157829003601f168201915b5050505050905090565b6113f0611d26565b73ffffffffffffffffffffffffffffffffffffffff168273ffffffffffffffffffffffffffffffffffffffff16141561145e576040517f08c379a00000000000000000000000000000000000000000000000000000000081526004016114559061383b565b60405180910390fd5b806005600061146b611d26565b73ffffffffffffffffffffffffffffffffffffffff1673ffffffffffffffffffffffffffffffffffffffff16815260200190815260200160002060008473ffffffffffffffffffffffffffffffffffffffff1673ffffffffffffffffffffffffffffffffffffffff16815260200190815260200160002060006101000a81548160ff0219169083151502179055508173ffffffffffffffffffffffffffffffffffffffff16611518611d26565b73ffffffffffffffffffffffffffffffffffffffff167f17307eab39ab6107e8899845ad3d59bd9653f200f220920489ca2b5937696c318360405161155d919061375e565b60405180910390a35050565b61157a611574611d26565b83611e3e565b6115b9576040517f08c379a00000000000000000000000000000000000000000000000000000000081526004016115b09061399b565b60405180910390fd5b6115c584848484612651565b50505050565b601381815481106115db57600080fd5b9060005260206000200160009150905080546115f690613f8b565b80601f016020809104026020016040519081016040528092919081815260200182805461162290613f8b565b801561166f5780601f106116445761010080835404028352916020019161166f565b820191906000526020600020905b81548152906001019060200180831161165257829003601f168201915b505050505081565b6060601280805490508361168b9190614037565b8154811061169c5761169b6140f5565b5b9060005260206000200180546116b190613f8b565b80601f01602080910402602001604051908101604052809291908181526020018280546116dd90613f8b565b801561172a5780601f106116ff5761010080835404028352916020019161172a565b820191906000526020600020905b81548152906001019060200180831161170d57829003601f168201915b5050505050905060006011548360026011546117469190613d9c565b6040516020016117579291906139d6565b6040516020818303038152906040528051906020012060001c61177a9190614037565b9050600060115484600160026011546117939190613d9c565b61179d9190613b5d565b6040516020016117ae9291906139d6565b6040516020818303038152906040528051906020012060001c6117d19190614037565b9050826117dd83612402565b6117e683612402565b6040516020016117f89392919061353f565b60405160208183030381529060405292505050919050565b60606000806000611836600b6000878152602001908152602001600020600001546126ad565b809350819450829550505050600043426118509190613c54565b9050600061185d82610f4f565b9050600061186a82610b6a565b905060006118d4611890600b60008c815260200190815260200160002060010154612402565b61189987612402565b6118a289612402565b6118ab8b612402565b866040516020016118c09594939291906135ed565b604051602081830303815290604052612178565b90506000816040516020016118e991906136d5565b60405160208183030381529060405290508098505050505050505050919050565b611912611d26565b73ffffffffffffffffffffffffffffffffffffffff1661193061127a565b73ffffffffffffffffffffffffffffffffffffffff1614611986576040517f08c379a000000000000000000000000000000000000000000000000000000000815260040161197d9061393b565b60405180910390fd5b80600c8190555050565b6000600560008473ffffffffffffffffffffffffffffffffffffffff1673ffffffffffffffffffffffffffffffffffffffff16815260200190815260200160002060008373ffffffffffffffffffffffffffffffffffffffff1673ffffffffffffffffffffffffffffffffffffffff16815260200190815260200160002060009054906101000a900460ff16905092915050565b600b6020528060005260406000206000915090508060000154908060010154905082565b611a50611d26565b73ffffffffffffffffffffffffffffffffffffffff16611a6e61127a565b73ffffffffffffffffffffffffffffffffffffffff1614611ac4576040517f08c379a0000000000000000000000000000000000000000000000000000000008152600401611abb9061393b565b60405180910390fd5b600073ffffffffffffffffffffffffffffffffffffffff168173ffffffffffffffffffffffffffffffffffffffff161415611b34576040517f08c379a0000000000000000000000000000000000000000000000000000000008152600401611b2b906137bb565b60405180910390fd5b611b3d8161258b565b50565b611b48611d26565b73ffffffffffffffffffffffffffffffffffffffff16611b6661127a565b73ffffffffffffffffffffffffffffffffffffffff1614611bbc576040517f08c379a0000000000000000000000000000000000000000000000000000000008152600401611bb39061393b565b60405180910390fd5b600a60009054906101000a900460ff1615611c0c576040517f08c379a0000000000000000000000000000000000000000000000000000000008152600401611c039061387b565b60405180910390fd5b80600760006101000a81548173ffffffffffffffffffffffffffffffffffffffff021916908373ffffffffffffffffffffffffffffffffffffffff16021790555050565b60007f01ffc9a7000000000000000000000000000000000000000000000000000000007bffffffffffffffffffffffffffffffffffffffffffffffffffffffff1916827bffffffffffffffffffffffffffffffffffffffffffffffffffffffff1916149050919050565b60008073ffffffffffffffffffffffffffffffffffffffff166002600084815260200190815260200160002060009054906101000a900473ffffffffffffffffffffffffffffffffffffffff1673ffffffffffffffffffffffffffffffffffffffff1614159050919050565b600033905090565b816004600083815260200190815260200160002060006101000a81548173ffffffffffffffffffffffffffffffffffffffff021916908373ffffffffffffffffffffffffffffffffffffffff160217905550808273ffffffffffffffffffffffffffffffffffffffff16611da183610e9d565b73ffffffffffffffffffffffffffffffffffffffff167f8c5be1e5ebec7d5bd14f71427d1e84f3dd0314c0f7b2291e5b200ac8c7c3b92560405160405180910390a45050565b60006040518060400160405280600c5481526020016014815250600b60008481526020019081526020016000206000820151816000015560208201518160010155905050611e3583836126dc565b81905092915050565b6000611e4982611cba565b611e88576040517f08c379a0000000000000000000000000000000000000000000000000000000008152600401611e7f9061385b565b60405180910390fd5b6000611e9383610e9d565b90508073ffffffffffffffffffffffffffffffffffffffff168473ffffffffffffffffffffffffffffffffffffffff161480611f0257508373ffffffffffffffffffffffffffffffffffffffff16611eea8461087b565b73ffffffffffffffffffffffffffffffffffffffff16145b80611f135750611f128185611990565b5b91505092915050565b8273ffffffffffffffffffffffffffffffffffffffff16611f3c82610e9d565b73ffffffffffffffffffffffffffffffffffffffff1614611f92576040517f08c379a0000000000000000000000000000000000000000000000000000000008152600401611f899061395b565b60405180910390fd5b600073ffffffffffffffffffffffffffffffffffffffff168273ffffffffffffffffffffffffffffffffffffffff161415612002576040517f08c379a0000000000000000000000000000000000000000000000000000000008152600401611ff99061381b565b60405180910390fd5b61200d8383836128aa565b612018600082611d2e565b6001600360008573ffffffffffffffffffffffffffffffffffffffff1673ffffffffffffffffffffffffffffffffffffffff16815260200190815260200160002060008282546120689190613e8a565b925050819055506001600360008473ffffffffffffffffffffffffffffffffffffffff1673ffffffffffffffffffffffffffffffffffffffff16815260200190815260200160002060008282546120bf9190613b5d565b92505081905550816002600083815260200190815260200160002060006101000a81548173ffffffffffffffffffffffffffffffffffffffff021916908373ffffffffffffffffffffffffffffffffffffffff160217905550808273ffffffffffffffffffffffffffffffffffffffff168473ffffffffffffffffffffffffffffffffffffffff167fddf252ad1be2c89b69c2b068fc378daa952ba7f163c4a11628f55a4df523b3ef60405160405180910390a4505050565b606060008251141561219b576040518060200160405280600081525090506122ec565b600060405180606001604052806040815260200161490960409139905060006003600285516121ca9190613b5d565b6121d49190613c54565b60046121e09190613d9c565b905060006020826121f19190613b5d565b67ffffffffffffffff81111561220a57612209614124565b5b6040519080825280601f01601f19166020018201604052801561223c5781602001600182028036833780820191505090505b509050818152600183018586518101602084015b818310156122ab576003830192508251603f8160121c168501518253600182019150603f81600c1c168501518253600182019150603f8160061c168501518253600182019150603f8116850151825360018201915050612250565b6003895106600181146122c557600281146122d5576122e0565b613d3d60f01b60028303526122e0565b603d60f81b60018303525b50505050508093505050505b919050565b60006122fc82610e9d565b905061230a816000846128aa565b612315600083611d2e565b6001600360008373ffffffffffffffffffffffffffffffffffffffff1673ffffffffffffffffffffffffffffffffffffffff16815260200190815260200160002060008282546123659190613e8a565b925050819055506002600083815260200190815260200160002060006101000a81549073ffffffffffffffffffffffffffffffffffffffff021916905581600073ffffffffffffffffffffffffffffffffffffffff168273ffffffffffffffffffffffffffffffffffffffff167fddf252ad1be2c89b69c2b068fc378daa952ba7f163c4a11628f55a4df523b3ef60405160405180910390a45050565b6060600082141561244a576040518060400160405280600181526020017f30000000000000000000000000000000000000000000000000000000000000008152509050612586565b600082905060005b6000821461247c57808061246590613fee565b915050600a826124759190613c54565b9150612452565b60008167ffffffffffffffff81111561249857612497614124565b5b6040519080825280601f01601f1916602001820160405280156124ca5781602001600182028036833780820191505090505b50905060008290505b6000861461257e576001816124e89190613e8a565b90506000600a80886124fa9190613c54565b6125049190613d9c565b8761250f9190613e8a565b603061251b9190613bb3565b905060008160f81b905080848481518110612539576125386140f5565b5b60200101907effffffffffffffffffffffffffffffffffffffffffffffffffffffffffffff1916908160001a905350600a886125759190613c54565b975050506124d3565b819450505050505b919050565b6000600660009054906101000a900473ffffffffffffffffffffffffffffffffffffffff16905081600660006101000a81548173ffffffffffffffffffffffffffffffffffffffff021916908373ffffffffffffffffffffffffffffffffffffffff1602179055508173ffffffffffffffffffffffffffffffffffffffff168173ffffffffffffffffffffffffffffffffffffffff167f8be0079c531659141344cd1fd0a4f28419497f9722a3daafe3b4186f6b6457e060405160405180910390a35050565b61265c848484611f1c565b612668848484846128af565b6126a7576040517f08c379a000000000000000000000000000000000000000000000000000000000815260040161269e9061379b565b60405180910390fd5b50505050565b60008060006126c962015180856126c49190613c54565b612a46565b8093508194508295505050509193909250565b600073ffffffffffffffffffffffffffffffffffffffff168273ffffffffffffffffffffffffffffffffffffffff16141561274c576040517f08c379a0000000000000000000000000000000000000000000000000000000008152600401612743906138fb565b60405180910390fd5b61275581611cba565b15612795576040517f08c379a000000000000000000000000000000000000000000000000000000000815260040161278c906137fb565b60405180910390fd5b6127a1600083836128aa565b6001600360008473ffffffffffffffffffffffffffffffffffffffff1673ffffffffffffffffffffffffffffffffffffffff16815260200190815260200160002060008282546127f19190613b5d565b92505081905550816002600083815260200190815260200160002060006101000a81548173ffffffffffffffffffffffffffffffffffffffff021916908373ffffffffffffffffffffffffffffffffffffffff160217905550808273ffffffffffffffffffffffffffffffffffffffff16600073ffffffffffffffffffffffffffffffffffffffff167fddf252ad1be2c89b69c2b068fc378daa952ba7f163c4a11628f55a4df523b3ef60405160405180910390a45050565b505050565b60006128d08473ffffffffffffffffffffffffffffffffffffffff16612be5565b15612a39578373ffffffffffffffffffffffffffffffffffffffff1663150b7a026128f9611d26565b8786866040518563ffffffff1660e01b815260040161291b9493929190613712565b602060405180830381600087803b15801561293557600080fd5b505af192505050801561296657506040513d601f19601f820116820180604052508101906129639190612f31565b60015b6129e9573d8060008114612996576040519150601f19603f3d011682016040523d82523d6000602084013e61299b565b606091505b506000815114156129e1576040517f08c379a00000000000000000000000000000000000000000000000000000000081526004016129d89061379b565b60405180910390fd5b805181602001fd5b63150b7a0260e01b7bffffffffffffffffffffffffffffffffffffffffffffffffffffffff1916817bffffffffffffffffffffffffffffffffffffffffffffffffffffffff191614915050612a3e565b600190505b949350505050565b600080600080849050600062253d8c62010bd983612a649190613ac9565b612a6e9190613ac9565b9050600062023ab1826004612a839190613c85565b612a8d9190613bea565b9050600460038262023ab1612aa29190613c85565b612aac9190613ac9565b612ab69190613bea565b82612ac19190613df6565b9150600062164b09600184612ad69190613ac9565b610fa0612ae39190613c85565b612aed9190613bea565b9050601f6004826105b5612b019190613c85565b612b0b9190613bea565b84612b169190613df6565b612b209190613ac9565b9250600061098f846050612b349190613c85565b612b3e9190613bea565b9050600060508261098f612b529190613c85565b612b5c9190613bea565b85612b679190613df6565b9050600b82612b769190613bea565b945084600c612b859190613c85565b600283612b929190613ac9565b612b9c9190613df6565b91508483603186612bad9190613df6565b6064612bb99190613c85565b612bc39190613ac9565b612bcd9190613ac9565b92508298508197508096505050505050509193909250565b600080823b905060008111915050919050565b6000612c0b612c0684613a24565b6139ff565b905082815260208101848484011115612c2757612c26614158565b5b612c32848285613f49565b509392505050565b6000612c4d612c4884613a55565b6139ff565b905082815260208101848484011115612c6957612c68614158565b5b612c74848285613f49565b509392505050565b600081359050612c8b816148ac565b92915050565b600081359050612ca0816148c3565b92915050565b600081359050612cb5816148da565b92915050565b600081519050612cca816148da565b92915050565b600082601f830112612ce557612ce4614153565b5b8135612cf5848260208601612bf8565b91505092915050565b600082601f830112612d1357612d12614153565b5b8135612d23848260208601612c3a565b91505092915050565b600081359050612d3b816148f1565b92915050565b600060208284031215612d5757612d56614162565b5b6000612d6584828501612c7c565b91505092915050565b60008060408385031215612d8557612d84614162565b5b6000612d9385828601612c7c565b9250506020612da485828601612c7c565b9150509250929050565b600080600060608486031215612dc757612dc6614162565b5b6000612dd586828701612c7c565b9350506020612de686828701612c7c565b9250506040612df786828701612d2c565b9150509250925092565b60008060008060808587031215612e1b57612e1a614162565b5b6000612e2987828801612c7c565b9450506020612e3a87828801612c7c565b9350506040612e4b87828801612d2c565b925050606085013567ffffffffffffffff811115612e6c57612e6b61415d565b5b612e7887828801612cd0565b91505092959194509250565b60008060408385031215612e9b57612e9a614162565b5b6000612ea985828601612c7c565b9250506020612eba85828601612c91565b9150509250929050565b60008060408385031215612edb57612eda614162565b5b6000612ee985828601612c7c565b9250506020612efa85828601612d2c565b9150509250929050565b600060208284031215612f1a57612f19614162565b5b6000612f2884828501612ca6565b91505092915050565b600060208284031215612f4757612f46614162565b5b6000612f5584828501612cbb565b91505092915050565b600060208284031215612f7457612f73614162565b5b600082013567ffffffffffffffff811115612f9257612f9161415d565b5b612f9e84828501612cfe565b91505092915050565b600060208284031215612fbd57612fbc614162565b5b6000612fcb84828501612d2c565b91505092915050565b612fdd81613ebe565b82525050565b612fec81613ed0565b82525050565b6000612ffd82613a86565b6130078185613a9c565b9350613017818560208601613f58565b61302081614167565b840191505092915050565b600061303682613a91565b6130408185613aad565b9350613050818560208601613f58565b61305981614167565b840191505092915050565b600061306f82613a91565b6130798185613abe565b9350613089818560208601613f58565b80840191505092915050565b60006130a2603283613aad565b91506130ad82614178565b604082019050919050565b60006130c5602683613aad565b91506130d0826141c7565b604082019050919050565b60006130e8601883613aad565b91506130f382614216565b602082019050919050565b600061310b601c83613aad565b91506131168261423f565b602082019050919050565b600061312e601b83613abe565b915061313982614268565b601b82019050919050565b6000613151602483613aad565b915061315c82614291565b604082019050919050565b6000613174601983613aad565b915061317f826142e0565b602082019050919050565b6000613197602c83613aad565b91506131a282614309565b604082019050919050565b60006131ba601083613aad565b91506131c582614358565b602082019050919050565b60006131dd600183613abe565b91506131e882614381565b600182019050919050565b6000613200603883613aad565b915061320b826143aa565b604082019050919050565b6000613223602a83613aad565b915061322e826143f9565b604082019050919050565b6000613246602983613aad565b915061325182614448565b604082019050919050565b6000613269604383613abe565b915061327482614497565b604382019050919050565b600061328c600283613abe565b91506132978261450c565b600282019050919050565b60006132af602083613aad565b91506132ba82614535565b602082019050919050565b60006132d2600d83613abe565b91506132dd8261455e565b600d82019050919050565b60006132f5602c83613aad565b915061330082614587565b604082019050919050565b6000613318602083613aad565b9150613323826145d6565b602082019050919050565b600061333b601283613abe565b9150613346826145ff565b601282019050919050565b600061335e602983613aad565b915061336982614628565b604082019050919050565b6000613381603083613abe565b915061338c82614677565b603082019050919050565b60006133a4600383613abe565b91506133af826146c6565b600382019050919050565b60006133c7602183613aad565b91506133d2826146ef565b604082019050919050565b60006133ea601d83613abe565b91506133f58261473e565b601d82019050919050565b600061340d601d83613abe565b915061341882614767565b601d82019050919050565b6000613430603183613aad565b915061343b82614790565b604082019050919050565b6000613453600283613abe565b915061345e826147df565b600282019050919050565b6000613476600683613abe565b915061348182614808565b600682019050919050565b6000613499600983613abe565b91506134a482614831565b600982019050919050565b60006134bc601683613abe565b91506134c78261485a565b601682019050919050565b60006134df600183613abe565b91506134ea82614883565b600182019050919050565b6134fe81613f32565b82525050565b60006135108284613064565b915081905092915050565b60006135278285613064565b91506135338284613064565b91508190509392505050565b600061354b8286613064565b9150613556826131d0565b91506135628285613064565b915061356d826131d0565b91506135798284613064565b9150613584826131d0565b9150819050949350505050565b600061359d8285613064565b91506135a8826133dd565b91506135b48284613064565b91506135bf82613397565b91508190509392505050565b60006135d78284613064565b91506135e282613469565b915081905092915050565b60006135f882613121565b91506136038261325c565b915061360e8261332e565b915061361a8288613064565b9150613625826134af565b91506136318287613064565b915061363c826134d2565b91506136488286613064565b9150613653826134d2565b915061365f8285613064565b915061366a826132c5565b91506136768284613064565b91506136818261327f565b91508190509695505050505050565b600061369b82613374565b91506136a78285613064565b91506136b28261348c565b91506136be8284613064565b91506136c982613446565b91508190509392505050565b60006136e082613400565b91506136ec8284613064565b915081905092915050565b600060208201905061370c6000830184612fd4565b92915050565b60006080820190506137276000830187612fd4565b6137346020830186612fd4565b61374160408301856134f5565b81810360608301526137538184612ff2565b905095945050505050565b60006020820190506137736000830184612fe3565b92915050565b60006020820190508181036000830152613793818461302b565b905092915050565b600060208201905081810360008301526137b481613095565b9050919050565b600060208201905081810360008301526137d4816130b8565b9050919050565b600060208201905081810360008301526137f4816130db565b9050919050565b60006020820190508181036000830152613814816130fe565b9050919050565b6000602082019050818103600083015261383481613144565b9050919050565b6000602082019050818103600083015261385481613167565b9050919050565b600060208201905081810360008301526138748161318a565b9050919050565b60006020820190508181036000830152613894816131ad565b9050919050565b600060208201905081810360008301526138b4816131f3565b9050919050565b600060208201905081810360008301526138d481613216565b9050919050565b600060208201905081810360008301526138f481613239565b9050919050565b60006020820190508181036000830152613914816132a2565b9050919050565b60006020820190508181036000830152613934816132e8565b9050919050565b600060208201905081810360008301526139548161330b565b9050919050565b6000602082019050818103600083015261397481613351565b9050919050565b60006020820190508181036000830152613994816133ba565b9050919050565b600060208201905081810360008301526139b481613423565b9050919050565b60006020820190506139d060008301846134f5565b92915050565b60006040820190506139eb60008301856134f5565b6139f860208301846134f5565b9392505050565b6000613a09613a1a565b9050613a158282613fbd565b919050565b6000604051905090565b600067ffffffffffffffff821115613a3f57613a3e614124565b5b613a4882614167565b9050602081019050919050565b600067ffffffffffffffff821115613a7057613a6f614124565b5b613a7982614167565b9050602081019050919050565b600081519050919050565b600081519050919050565b600082825260208201905092915050565b600082825260208201905092915050565b600081905092915050565b6000613ad482613f08565b9150613adf83613f08565b9250817f7fffffffffffffffffffffffffffffffffffffffffffffffffffffffffffffff03831360008312151615613b1a57613b19614068565b5b817f8000000000000000000000000000000000000000000000000000000000000000038312600083121615613b5257613b51614068565b5b828201905092915050565b6000613b6882613f32565b9150613b7383613f32565b9250827fffffffffffffffffffffffffffffffffffffffffffffffffffffffffffffffff03821115613ba857613ba7614068565b5b828201905092915050565b6000613bbe82613f3c565b9150613bc983613f3c565b92508260ff03821115613bdf57613bde614068565b5b828201905092915050565b6000613bf582613f08565b9150613c0083613f08565b925082613c1057613c0f614097565b5b600160000383147f800000000000000000000000000000000000000000000000000000000000000083141615613c4957613c48614068565b5b828205905092915050565b6000613c5f82613f32565b9150613c6a83613f32565b925082613c7a57613c79614097565b5b828204905092915050565b6000613c9082613f08565b9150613c9b83613f08565b9250827f7fffffffffffffffffffffffffffffffffffffffffffffffffffffffffffffff0482116000841360008413161615613cda57613cd9614068565b5b817f80000000000000000000000000000000000000000000000000000000000000000583126000841260008413161615613d1757613d16614068565b5b827f80000000000000000000000000000000000000000000000000000000000000000582126000841360008412161615613d5457613d53614068565b5b827f7fffffffffffffffffffffffffffffffffffffffffffffffffffffffffffffff0582126000841260008412161615613d9157613d90614068565b5b828202905092915050565b6000613da782613f32565b9150613db283613f32565b9250817fffffffffffffffffffffffffffffffffffffffffffffffffffffffffffffffff0483118215151615613deb57613dea614068565b5b828202905092915050565b6000613e0182613f08565b9150613e0c83613f08565b9250827f800000000000000000000000000000000000000000000000000000000000000001821260008412151615613e4757613e46614068565b5b827f7fffffffffffffffffffffffffffffffffffffffffffffffffffffffffffffff018213600084121615613e7f57613e7e614068565b5b828203905092915050565b6000613e9582613f32565b9150613ea083613f32565b925082821015613eb357613eb2614068565b5b828203905092915050565b6000613ec982613f12565b9050919050565b60008115159050919050565b60007fffffffff0000000000000000000000000000000000000000000000000000000082169050919050565b6000819050919050565b600073ffffffffffffffffffffffffffffffffffffffff82169050919050565b6000819050919050565b600060ff82169050919050565b82818337600083830152505050565b60005b83811015613f76578082015181840152602081019050613f5b565b83811115613f85576000848401525b50505050565b60006002820490506001821680613fa357607f821691505b60208210811415613fb757613fb66140c6565b5b50919050565b613fc682614167565b810181811067ffffffffffffffff82111715613fe557613fe4614124565b5b80604052505050565b6000613ff982613f32565b91507fffffffffffffffffffffffffffffffffffffffffffffffffffffffffffffffff82141561402c5761402b614068565b5b600182019050919050565b600061404282613f32565b915061404d83613f32565b92508261405d5761405c614097565b5b828206905092915050565b7f4e487b7100000000000000000000000000000000000000000000000000000000600052601160045260246000fd5b7f4e487b7100000000000000000000000000000000000000000000000000000000600052601260045260246000fd5b7f4e487b7100000000000000000000000000000000000000000000000000000000600052602260045260246000fd5b7f4e487b7100000000000000000000000000000000000000000000000000000000600052603260045260246000fd5b7f4e487b7100000000000000000000000000000000000000000000000000000000600052604160045260246000fd5b600080fd5b600080fd5b600080fd5b600080fd5b6000601f19601f8301169050919050565b7f4552433732313a207472616e7366657220746f206e6f6e20455243373231526560008201527f63656976657220696d706c656d656e7465720000000000000000000000000000602082015250565b7f4f776e61626c653a206e6577206f776e657220697320746865207a65726f206160008201527f6464726573730000000000000000000000000000000000000000000000000000602082015250565b7f53656e646572206973206e6f7420746865206d696e7465720000000000000000600082015250565b7f4552433732313a20746f6b656e20616c7265616479206d696e74656400000000600082015250565b7f7b226e616d65223a202245636f6e746572696320426f6f6b222c200000000000600082015250565b7f4552433732313a207472616e7366657220746f20746865207a65726f2061646460008201527f7265737300000000000000000000000000000000000000000000000000000000602082015250565b7f4552433732313a20617070726f766520746f2063616c6c657200000000000000600082015250565b7f4552433732313a206f70657261746f7220717565727920666f72206e6f6e657860008201527f697374656e7420746f6b656e0000000000000000000000000000000000000000602082015250565b7f4d696e746572206973206c6f636b656400000000000000000000000000000000600082015250565b7f2000000000000000000000000000000000000000000000000000000000000000600082015250565b7f4552433732313a20617070726f76652063616c6c6572206973206e6f74206f7760008201527f6e6572206e6f7220617070726f76656420666f7220616c6c0000000000000000602082015250565b7f4552433732313a2062616c616e636520717565727920666f7220746865207a6560008201527f726f206164647265737300000000000000000000000000000000000000000000602082015250565b7f4552433732313a206f776e657220717565727920666f72206e6f6e657869737460008201527f656e7420746f6b656e0000000000000000000000000000000000000000000000602082015250565b7f226465736372697074696f6e223a202245636f6e6f6d69637320616e64204d6160008201527f7468206f6620546f6b656e20456e67696e656572696e6720616e64204465466960208201527f222c200000000000000000000000000000000000000000000000000000000000604082015250565b7f227d000000000000000000000000000000000000000000000000000000000000600082015250565b7f4552433732313a206d696e7420746f20746865207a65726f2061646472657373600082015250565b7f222c2022696d616765223a202200000000000000000000000000000000000000600082015250565b7f4552433732313a20617070726f76656420717565727920666f72206e6f6e657860008201527f697374656e7420746f6b656e0000000000000000000000000000000000000000602082015250565b7f4f776e61626c653a2063616c6c6572206973206e6f7420746865206f776e6572600082015250565b7f226e756d6265724f66426f6f6b73223a20220000000000000000000000000000600082015250565b7f4552433732313a207472616e73666572206f6620746f6b656e2074686174206960008201527f73206e6f74206f776e0000000000000000000000000000000000000000000000602082015250565b7f3c73766720786d6c6e733d22687474703a2f2f7777772e77332e6f72672f323060008201527f30302f73766722206865696768743d2200000000000000000000000000000000602082015250565b7f222f3e0000000000000000000000000000000000000000000000000000000000600082015250565b7f4552433732313a20617070726f76616c20746f2063757272656e74206f776e6560008201527f7200000000000000000000000000000000000000000000000000000000000000602082015250565b7f222066696c6c3d227472616e73706172656e7422207374726f6b653d22000000600082015250565b7f646174613a6170706c69636174696f6e2f6a736f6e3b6261736536342c000000600082015250565b7f4552433732313a207472616e736665722063616c6c6572206973206e6f74206f60008201527f776e6572206e6f7220617070726f766564000000000000000000000000000000602082015250565b7f223e000000000000000000000000000000000000000000000000000000000000600082015250565b7f3c2f7376673e0000000000000000000000000000000000000000000000000000600082015250565b7f222077696474683d220000000000000000000000000000000000000000000000600082015250565b7f222c202265787069726174696f6e44617465223a202200000000000000000000600082015250565b7f2f00000000000000000000000000000000000000000000000000000000000000600082015250565b6148b581613ebe565b81146148c057600080fd5b50565b6148cc81613ed0565b81146148d757600080fd5b50565b6148e381613edc565b81146148ee57600080fd5b50565b6148fa81613f32565b811461490557600080fd5b5056fe4142434445464748494a4b4c4d4e4f505152535455565758595a6162636465666768696a6b6c6d6e6f707172737475767778797a303132333435363738392b2fa2646970667358221220974cfd0cf8f1625b1937b5912da5d8c7a31e4ee5f3c78402be40d98a076ba82b64736f6c63430008060033",
  "devdoc": {
    "kind": "dev",
    "methods": {
      "approve(address,uint256)": {
        "details": "See {IERC721-approve}."
      },
      "balanceOf(address)": {
        "details": "See {IERC721-balanceOf}."
      },
      "getApproved(uint256)": {
        "details": "See {IERC721-getApproved}."
      },
      "isApprovedForAll(address,address)": {
        "details": "See {IERC721-isApprovedForAll}."
      },
      "name()": {
        "details": "See {IERC721Metadata-name}."
      },
      "owner()": {
        "details": "Returns the address of the current owner."
      },
      "ownerOf(uint256)": {
        "details": "See {IERC721-ownerOf}."
      },
      "renounceOwnership()": {
        "details": "Leaves the contract without owner. It will not be possible to call `onlyOwner` functions anymore. Can only be called by the current owner. NOTE: Renouncing ownership will leave the contract without an owner, thereby removing any functionality that is only available to the owner."
      },
      "safeTransferFrom(address,address,uint256)": {
        "details": "See {IERC721-safeTransferFrom}."
      },
      "safeTransferFrom(address,address,uint256,bytes)": {
        "details": "See {IERC721-safeTransferFrom}."
      },
      "setApprovalForAll(address,bool)": {
        "details": "See {IERC721-setApprovalForAll}."
      },
      "supportsInterface(bytes4)": {
        "details": "See {IERC165-supportsInterface}."
      },
      "symbol()": {
        "details": "See {IERC721Metadata-symbol}."
      },
      "tokenURI(uint256)": {
        "details": "See {IERC721Metadata-tokenURI}."
      },
      "transferFrom(address,address,uint256)": {
        "details": "See {IERC721-transferFrom}."
      },
      "transferOwnership(address)": {
        "details": "Transfers ownership of the contract to a new account (`newOwner`). Can only be called by the current owner."
      }
    },
    "version": 1
  },
  "userdoc": {
    "kind": "user",
    "methods": {
      "burn(uint256)": {
        "notice": "Burn a nft."
      }
    },
    "version": 1
  },
  "storageLayout": {
    "storage": [
      {
        "astId": 593,
        "contract": "contracts/EconNFT.sol:EconNFT",
        "label": "_name",
        "offset": 0,
        "slot": "0",
        "type": "t_string_storage"
      },
      {
        "astId": 595,
        "contract": "contracts/EconNFT.sol:EconNFT",
        "label": "_symbol",
        "offset": 0,
        "slot": "1",
        "type": "t_string_storage"
      },
      {
        "astId": 599,
        "contract": "contracts/EconNFT.sol:EconNFT",
        "label": "_owners",
        "offset": 0,
        "slot": "2",
        "type": "t_mapping(t_uint256,t_address)"
      },
      {
        "astId": 603,
        "contract": "contracts/EconNFT.sol:EconNFT",
        "label": "_balances",
        "offset": 0,
        "slot": "3",
        "type": "t_mapping(t_address,t_uint256)"
      },
      {
        "astId": 607,
        "contract": "contracts/EconNFT.sol:EconNFT",
        "label": "_tokenApprovals",
        "offset": 0,
        "slot": "4",
        "type": "t_mapping(t_uint256,t_address)"
      },
      {
        "astId": 613,
        "contract": "contracts/EconNFT.sol:EconNFT",
        "label": "_operatorApprovals",
        "offset": 0,
        "slot": "5",
        "type": "t_mapping(t_address,t_mapping(t_address,t_bool))"
      },
      {
        "astId": 393,
        "contract": "contracts/EconNFT.sol:EconNFT",
        "label": "_owner",
        "offset": 0,
        "slot": "6",
        "type": "t_address"
      },
      {
        "astId": 2793,
        "contract": "contracts/EconNFT.sol:EconNFT",
        "label": "minter",
        "offset": 0,
        "slot": "7",
        "type": "t_address"
      },
      {
        "astId": 2795,
        "contract": "contracts/EconNFT.sol:EconNFT",
        "label": "totalSupply",
        "offset": 0,
        "slot": "8",
        "type": "t_uint256"
      },
      {
        "astId": 2797,
        "contract": "contracts/EconNFT.sol:EconNFT",
        "label": "_currentEconNFTId",
        "offset": 0,
        "slot": "9",
        "type": "t_uint256"
      },
      {
        "astId": 2799,
        "contract": "contracts/EconNFT.sol:EconNFT",
        "label": "isMinterLocked",
        "offset": 0,
        "slot": "10",
        "type": "t_bool"
      },
      {
        "astId": 2804,
        "contract": "contracts/EconNFT.sol:EconNFT",
        "label": "seeds",
        "offset": 0,
        "slot": "11",
        "type": "t_mapping(t_uint256,t_struct(Seed)2791_storage)"
      },
      {
        "astId": 2806,
        "contract": "contracts/EconNFT.sol:EconNFT",
        "label": "currentExpirationDate",
        "offset": 0,
        "slot": "12",
        "type": "t_uint256"
      },
      {
        "astId": 2810,
        "contract": "contracts/EconNFT.sol:EconNFT",
        "label": "_owners",
        "offset": 0,
        "slot": "13",
        "type": "t_mapping(t_uint256,t_address)"
      },
      {
        "astId": 2814,
        "contract": "contracts/EconNFT.sol:EconNFT",
        "label": "_balances",
        "offset": 0,
        "slot": "14",
        "type": "t_mapping(t_address,t_uint256)"
      },
      {
        "astId": 2826,
        "contract": "contracts/EconNFT.sol:EconNFT",
        "label": "maxNumberOfPath",
        "offset": 0,
        "slot": "15",
        "type": "t_uint256"
      },
      {
        "astId": 2828,
        "contract": "contracts/EconNFT.sol:EconNFT",
        "label": "maxNumberOfPathCommands",
        "offset": 0,
        "slot": "16",
        "type": "t_uint256"
      },
      {
        "astId": 2830,
        "contract": "contracts/EconNFT.sol:EconNFT",
        "label": "size",
        "offset": 0,
        "slot": "17",
        "type": "t_uint256"
      },
      {
        "astId": 2833,
        "contract": "contracts/EconNFT.sol:EconNFT",
        "label": "pathCommands",
        "offset": 0,
        "slot": "18",
        "type": "t_array(t_string_storage)dyn_storage"
      },
      {
        "astId": 2836,
        "contract": "contracts/EconNFT.sol:EconNFT",
        "label": "colors",
        "offset": 0,
        "slot": "19",
        "type": "t_array(t_string_storage)dyn_storage"
      }
    ],
    "types": {
      "t_address": {
        "encoding": "inplace",
        "label": "address",
        "numberOfBytes": "20"
      },
      "t_array(t_string_storage)dyn_storage": {
        "base": "t_string_storage",
        "encoding": "dynamic_array",
        "label": "string[]",
        "numberOfBytes": "32"
      },
      "t_bool": {
        "encoding": "inplace",
        "label": "bool",
        "numberOfBytes": "1"
      },
      "t_mapping(t_address,t_bool)": {
        "encoding": "mapping",
        "key": "t_address",
        "label": "mapping(address => bool)",
        "numberOfBytes": "32",
        "value": "t_bool"
      },
      "t_mapping(t_address,t_mapping(t_address,t_bool))": {
        "encoding": "mapping",
        "key": "t_address",
        "label": "mapping(address => mapping(address => bool))",
        "numberOfBytes": "32",
        "value": "t_mapping(t_address,t_bool)"
      },
      "t_mapping(t_address,t_uint256)": {
        "encoding": "mapping",
        "key": "t_address",
        "label": "mapping(address => uint256)",
        "numberOfBytes": "32",
        "value": "t_uint256"
      },
      "t_mapping(t_uint256,t_address)": {
        "encoding": "mapping",
        "key": "t_uint256",
        "label": "mapping(uint256 => address)",
        "numberOfBytes": "32",
        "value": "t_address"
      },
      "t_mapping(t_uint256,t_struct(Seed)2791_storage)": {
        "encoding": "mapping",
        "key": "t_uint256",
        "label": "mapping(uint256 => struct EconNFT.Seed)",
        "numberOfBytes": "32",
        "value": "t_struct(Seed)2791_storage"
      },
      "t_string_storage": {
        "encoding": "bytes",
        "label": "string",
        "numberOfBytes": "32"
      },
      "t_struct(Seed)2791_storage": {
        "encoding": "inplace",
        "label": "struct EconNFT.Seed",
        "members": [
          {
            "astId": 2788,
            "contract": "contracts/EconNFT.sol:EconNFT",
            "label": "expirationDate",
            "offset": 0,
            "slot": "0",
            "type": "t_uint256"
          },
          {
            "astId": 2790,
            "contract": "contracts/EconNFT.sol:EconNFT",
            "label": "numberOfBooks",
            "offset": 0,
            "slot": "1",
            "type": "t_uint256"
          }
        ],
        "numberOfBytes": "64"
      },
      "t_uint256": {
        "encoding": "inplace",
        "label": "uint256",
        "numberOfBytes": "32"
      }
    }
  }
}