{
  "address": "0x93C3a8c5da74255BD0F748f606aeAf3dc7237D7B",
  "abi": [
    {
      "inputs": [
        {
          "internalType": "address",
          "name": "_minter",
          "type": "address"
        }
      ],
      "stateMutability": "nonpayable",
      "type": "constructor"
    },
    {
      "anonymous": false,
      "inputs": [
        {
          "indexed": true,
          "internalType": "address",
          "name": "_owner",
          "type": "address"
        },
        {
          "indexed": true,
          "internalType": "address",
          "name": "_operator",
          "type": "address"
        },
        {
          "indexed": false,
          "internalType": "bool",
          "name": "_approved",
          "type": "bool"
        }
      ],
      "name": "ApprovalForAll",
      "type": "event"
    },
    {
      "anonymous": false,
      "inputs": [
        {
          "indexed": true,
          "internalType": "address",
          "name": "previousOwner",
          "type": "address"
        },
        {
          "indexed": true,
          "internalType": "address",
          "name": "newOwner",
          "type": "address"
        }
      ],
      "name": "OwnershipTransferred",
      "type": "event"
    },
    {
      "anonymous": false,
      "inputs": [
        {
          "indexed": true,
          "internalType": "address",
          "name": "_operator",
          "type": "address"
        },
        {
          "indexed": true,
          "internalType": "address",
          "name": "_from",
          "type": "address"
        },
        {
          "indexed": true,
          "internalType": "address",
          "name": "_to",
          "type": "address"
        },
        {
          "indexed": false,
          "internalType": "uint256[]",
          "name": "_ids",
          "type": "uint256[]"
        },
        {
          "indexed": false,
          "internalType": "uint256[]",
          "name": "_values",
          "type": "uint256[]"
        }
      ],
      "name": "TransferBatch",
      "type": "event"
    },
    {
      "anonymous": false,
      "inputs": [
        {
          "indexed": true,
          "internalType": "address",
          "name": "_operator",
          "type": "address"
        },
        {
          "indexed": true,
          "internalType": "address",
          "name": "_from",
          "type": "address"
        },
        {
          "indexed": true,
          "internalType": "address",
          "name": "_to",
          "type": "address"
        },
        {
          "indexed": false,
          "internalType": "uint256",
          "name": "_id",
          "type": "uint256"
        },
        {
          "indexed": false,
          "internalType": "uint256",
          "name": "_value",
          "type": "uint256"
        }
      ],
      "name": "TransferSingle",
      "type": "event"
    },
    {
      "anonymous": false,
      "inputs": [
        {
          "indexed": false,
          "internalType": "string",
          "name": "_value",
          "type": "string"
        },
        {
          "indexed": true,
          "internalType": "uint256",
          "name": "_id",
          "type": "uint256"
        }
      ],
      "name": "URI",
      "type": "event"
    },
    {
      "inputs": [],
      "name": "ERC1155Owner",
      "outputs": [
        {
          "internalType": "address",
          "name": "",
          "type": "address"
        }
      ],
      "stateMutability": "view",
      "type": "function"
    },
    {
      "inputs": [
        {
          "internalType": "address",
          "name": "account",
          "type": "address"
        },
        {
          "internalType": "uint256",
          "name": "id",
          "type": "uint256"
        }
      ],
      "name": "balanceOf",
      "outputs": [
        {
          "internalType": "uint256",
          "name": "",
          "type": "uint256"
        }
      ],
      "stateMutability": "view",
      "type": "function"
    },
    {
      "inputs": [
        {
          "internalType": "address[]",
          "name": "accounts",
          "type": "address[]"
        },
        {
          "internalType": "uint256[]",
          "name": "ids",
          "type": "uint256[]"
        }
      ],
      "name": "balanceOfBatch",
      "outputs": [
        {
          "internalType": "uint256[]",
          "name": "",
          "type": "uint256[]"
        }
      ],
      "stateMutability": "view",
      "type": "function"
    },
    {
      "inputs": [],
      "name": "econAuctionHouse",
      "outputs": [
        {
          "internalType": "address",
          "name": "",
          "type": "address"
        }
      ],
      "stateMutability": "view",
      "type": "function"
    },
    {
      "inputs": [
        {
          "internalType": "address",
          "name": "account",
          "type": "address"
        },
        {
          "internalType": "address",
          "name": "operator",
          "type": "address"
        }
      ],
      "name": "isApprovedForAll",
      "outputs": [
        {
          "internalType": "bool",
          "name": "",
          "type": "bool"
        }
      ],
      "stateMutability": "view",
      "type": "function"
    },
    {
      "inputs": [
        {
          "internalType": "address",
          "name": "_to",
          "type": "address"
        },
        {
          "internalType": "uint256",
          "name": "_tokenId",
          "type": "uint256"
        },
        {
          "internalType": "uint256",
          "name": "_amount",
          "type": "uint256"
        }
      ],
      "name": "mint",
      "outputs": [],
      "stateMutability": "nonpayable",
      "type": "function"
    },
    {
      "inputs": [],
      "name": "minter",
      "outputs": [
        {
          "internalType": "address",
          "name": "",
          "type": "address"
        }
      ],
      "stateMutability": "view",
      "type": "function"
    },
    {
      "inputs": [],
      "name": "owner",
      "outputs": [
        {
          "internalType": "address",
          "name": "",
          "type": "address"
        }
      ],
      "stateMutability": "view",
      "type": "function"
    },
    {
      "inputs": [],
      "name": "renounceOwnership",
      "outputs": [],
      "stateMutability": "nonpayable",
      "type": "function"
    },
    {
      "inputs": [
        {
          "internalType": "address",
          "name": "from",
          "type": "address"
        },
        {
          "internalType": "address",
          "name": "to",
          "type": "address"
        },
        {
          "internalType": "uint256[]",
          "name": "ids",
          "type": "uint256[]"
        },
        {
          "internalType": "uint256[]",
          "name": "amounts",
          "type": "uint256[]"
        },
        {
          "internalType": "bytes",
          "name": "data",
          "type": "bytes"
        }
      ],
      "name": "safeBatchTransferFrom",
      "outputs": [],
      "stateMutability": "nonpayable",
      "type": "function"
    },
    {
      "inputs": [
        {
          "internalType": "address",
          "name": "from",
          "type": "address"
        },
        {
          "internalType": "address",
          "name": "to",
          "type": "address"
        },
        {
          "internalType": "uint256",
          "name": "id",
          "type": "uint256"
        },
        {
          "internalType": "uint256",
          "name": "amount",
          "type": "uint256"
        },
        {
          "internalType": "bytes",
          "name": "data",
          "type": "bytes"
        }
      ],
      "name": "safeTransferFrom",
      "outputs": [],
      "stateMutability": "nonpayable",
      "type": "function"
    },
    {
      "inputs": [
        {
          "internalType": "address",
          "name": "operator",
          "type": "address"
        },
        {
          "internalType": "bool",
          "name": "approved",
          "type": "bool"
        }
      ],
      "name": "setApprovalForAll",
      "outputs": [],
      "stateMutability": "nonpayable",
      "type": "function"
    },
    {
      "inputs": [
        {
          "internalType": "address",
          "name": "_econAuctionHouse",
          "type": "address"
        }
      ],
      "name": "setEconAuctionHouse",
      "outputs": [],
      "stateMutability": "nonpayable",
      "type": "function"
    },
    {
      "inputs": [
        {
          "internalType": "address",
          "name": "_newMinter",
          "type": "address"
        }
      ],
      "name": "setMinter",
      "outputs": [],
      "stateMutability": "nonpayable",
      "type": "function"
    },
    {
      "inputs": [
        {
          "internalType": "bytes4",
          "name": "interfaceId",
          "type": "bytes4"
        }
      ],
      "name": "supportsInterface",
      "outputs": [
        {
          "internalType": "bool",
          "name": "",
          "type": "bool"
        }
      ],
      "stateMutability": "view",
      "type": "function"
    },
    {
      "inputs": [
        {
          "internalType": "address",
          "name": "newOwner",
          "type": "address"
        }
      ],
      "name": "transferOwnership",
      "outputs": [],
      "stateMutability": "nonpayable",
      "type": "function"
    },
    {
      "inputs": [
        {
          "internalType": "uint256",
          "name": "",
          "type": "uint256"
        }
      ],
      "name": "uri",
      "outputs": [
        {
          "internalType": "string",
          "name": "",
          "type": "string"
        }
      ],
      "stateMutability": "view",
      "type": "function"
    }
  ],
  "transactionHash": "0x2d0324af6d683a082a21a8a653d29af83769d0e612a00c35297479ceb1fda792",
  "args": [
    "0x4428161DBD37D935C64894525f91039E1a6E4a1e"
  ],
  "solcInputHash": "dba49fb66abd65e735eddea5aab89b61",
  "bytecode": "0x60806040523480156200001157600080fd5b50604051620033cf380380620033cf8339818101604052810190620000379190620002d9565b6040518060400160405280601a81526020017f68747470733a2f2f7777772e65636f6e74657269632e636f6d2f0000000000008152506200007e816200012860201b60201c565b33600460006101000a81548173ffffffffffffffffffffffffffffffffffffffff021916908373ffffffffffffffffffffffffffffffffffffffff16021790555050620000e0620000d46200014460201b60201c565b6200014c60201b60201c565b80600660006101000a81548173ffffffffffffffffffffffffffffffffffffffff021916908373ffffffffffffffffffffffffffffffffffffffff16021790555050620003c3565b80600290805190602001906200014092919062000212565b5050565b600033905090565b6000600560009054906101000a900473ffffffffffffffffffffffffffffffffffffffff16905081600560006101000a81548173ffffffffffffffffffffffffffffffffffffffff021916908373ffffffffffffffffffffffffffffffffffffffff1602179055508173ffffffffffffffffffffffffffffffffffffffff168173ffffffffffffffffffffffffffffffffffffffff167f8be0079c531659141344cd1fd0a4f28419497f9722a3daafe3b4186f6b6457e060405160405180910390a35050565b82805462000220906200033f565b90600052602060002090601f01602090048101928262000244576000855562000290565b82601f106200025f57805160ff191683800117855562000290565b8280016001018555821562000290579182015b828111156200028f57825182559160200191906001019062000272565b5b5090506200029f9190620002a3565b5090565b5b80821115620002be576000816000905550600101620002a4565b5090565b600081519050620002d381620003a9565b92915050565b600060208284031215620002f257620002f1620003a4565b5b60006200030284828501620002c2565b91505092915050565b600062000318826200031f565b9050919050565b600073ffffffffffffffffffffffffffffffffffffffff82169050919050565b600060028204905060018216806200035857607f821691505b602082108114156200036f576200036e62000375565b5b50919050565b7f4e487b7100000000000000000000000000000000000000000000000000000000600052602260045260246000fd5b600080fd5b620003b4816200030b565b8114620003c057600080fd5b50565b612ffc80620003d36000396000f3fe608060405234801561001057600080fd5b506004361061010a5760003560e01c8063715018a6116100a2578063e985e9c511610071578063e985e9c5146102a3578063f242432a146102d3578063f2fde38b146102ef578063f838904f1461030b578063fca3b5aa146103295761010a565b8063715018a61461024157806377810f801461024b5780638da5cb5b14610269578063a22cb465146102875761010a565b806313978570116100de57806313978570146101bd578063156e29f6146101d95780632eb2c2d6146101f55780634e1273f4146102115761010a565b8062fdd58e1461010f57806301ffc9a71461013f578063075461721461016f5780630e89341c1461018d575b600080fd5b61012960048036038101906101249190611f37565b610345565b60405161013691906126c7565b60405180910390f35b61015960048036038101906101549190612042565b61040e565b60405161016691906124ea565b60405180910390f35b6101776104f0565b60405161018491906123b4565b60405180910390f35b6101a760048036038101906101a2919061209c565b610516565b6040516101b49190612505565b60405180910390f35b6101d760048036038101906101d29190611d24565b6105aa565b005b6101f360048036038101906101ee9190611f77565b610648565b005b61020f600480360381019061020a9190611d91565b6106c2565b005b61022b60048036038101906102269190611fca565b610763565b6040516102389190612491565b60405180910390f35b61024961087c565b005b610253610904565b60405161026091906123b4565b60405180910390f35b61027161092a565b60405161027e91906123b4565b60405180910390f35b6102a1600480360381019061029c9190611ef7565b610954565b005b6102bd60048036038101906102b89190611d51565b610ad5565b6040516102ca91906124ea565b60405180910390f35b6102ed60048036038101906102e89190611e60565b610bc9565b005b61030960048036038101906103049190611d24565b610c6a565b005b610313610d62565b60405161032091906123b4565b60405180910390f35b610343600480360381019061033e9190611d24565b610d88565b005b60008073ffffffffffffffffffffffffffffffffffffffff168373ffffffffffffffffffffffffffffffffffffffff1614156103b6576040517f08c379a00000000000000000000000000000000000000000000000000000000081526004016103ad90612567565b60405180910390fd5b60008083815260200190815260200160002060008473ffffffffffffffffffffffffffffffffffffffff1673ffffffffffffffffffffffffffffffffffffffff16815260200190815260200160002054905092915050565b60007fd9b67a26000000000000000000000000000000000000000000000000000000007bffffffffffffffffffffffffffffffffffffffffffffffffffffffff1916827bffffffffffffffffffffffffffffffffffffffffffffffffffffffff191614806104d957507f0e89341c000000000000000000000000000000000000000000000000000000007bffffffffffffffffffffffffffffffffffffffffffffffffffffffff1916827bffffffffffffffffffffffffffffffffffffffffffffffffffffffff1916145b806104e957506104e882610e48565b5b9050919050565b600660009054906101000a900473ffffffffffffffffffffffffffffffffffffffff1681565b60606002805461052590612936565b80601f016020809104026020016040519081016040528092919081815260200182805461055190612936565b801561059e5780601f106105735761010080835404028352916020019161059e565b820191906000526020600020905b81548152906001019060200180831161058157829003601f168201915b50505050509050919050565b600460009054906101000a900473ffffffffffffffffffffffffffffffffffffffff1673ffffffffffffffffffffffffffffffffffffffff163373ffffffffffffffffffffffffffffffffffffffff161461060457600080fd5b80600360006101000a81548173ffffffffffffffffffffffffffffffffffffffff021916908373ffffffffffffffffffffffffffffffffffffffff16021790555050565b600660009054906101000a900473ffffffffffffffffffffffffffffffffffffffff1673ffffffffffffffffffffffffffffffffffffffff163373ffffffffffffffffffffffffffffffffffffffff16146106a257600080fd5b6106bd83838360405180602001604052806000815250610eb2565b505050565b6106ca611048565b73ffffffffffffffffffffffffffffffffffffffff168573ffffffffffffffffffffffffffffffffffffffff161480610710575061070f8561070a611048565b610ad5565b5b61074f576040517f08c379a0000000000000000000000000000000000000000000000000000000008152600401610746906125e7565b60405180910390fd5b61075c8585858585611050565b5050505050565b606081518351146107a9576040517f08c379a00000000000000000000000000000000000000000000000000000000081526004016107a090612667565b60405180910390fd5b6000835167ffffffffffffffff8111156107c6576107c5612a6f565b5b6040519080825280602002602001820160405280156107f45781602001602082028036833780820191505090505b50905060005b84518110156108715761084185828151811061081957610818612a40565b5b602002602001015185838151811061083457610833612a40565b5b6020026020010151610345565b82828151811061085457610853612a40565b5b6020026020010181815250508061086a90612999565b90506107fa565b508091505092915050565b610884611048565b73ffffffffffffffffffffffffffffffffffffffff166108a261092a565b73ffffffffffffffffffffffffffffffffffffffff16146108f8576040517f08c379a00000000000000000000000000000000000000000000000000000000081526004016108ef90612627565b60405180910390fd5b6109026000611364565b565b600460009054906101000a900473ffffffffffffffffffffffffffffffffffffffff1681565b6000600560009054906101000a900473ffffffffffffffffffffffffffffffffffffffff16905090565b8173ffffffffffffffffffffffffffffffffffffffff16610973611048565b73ffffffffffffffffffffffffffffffffffffffff1614156109ca576040517f08c379a00000000000000000000000000000000000000000000000000000000081526004016109c190612647565b60405180910390fd5b80600160006109d7611048565b73ffffffffffffffffffffffffffffffffffffffff1673ffffffffffffffffffffffffffffffffffffffff16815260200190815260200160002060008473ffffffffffffffffffffffffffffffffffffffff1673ffffffffffffffffffffffffffffffffffffffff16815260200190815260200160002060006101000a81548160ff0219169083151502179055508173ffffffffffffffffffffffffffffffffffffffff16610a84611048565b73ffffffffffffffffffffffffffffffffffffffff167f17307eab39ab6107e8899845ad3d59bd9653f200f220920489ca2b5937696c3183604051610ac991906124ea565b60405180910390a35050565b6000600360009054906101000a900473ffffffffffffffffffffffffffffffffffffffff1673ffffffffffffffffffffffffffffffffffffffff168273ffffffffffffffffffffffffffffffffffffffff161415610b365760019050610bc3565b600160008473ffffffffffffffffffffffffffffffffffffffff1673ffffffffffffffffffffffffffffffffffffffff16815260200190815260200160002060008373ffffffffffffffffffffffffffffffffffffffff1673ffffffffffffffffffffffffffffffffffffffff16815260200190815260200160002060009054906101000a900460ff1690505b92915050565b610bd1611048565b73ffffffffffffffffffffffffffffffffffffffff168573ffffffffffffffffffffffffffffffffffffffff161480610c175750610c1685610c11611048565b610ad5565b5b610c56576040517f08c379a0000000000000000000000000000000000000000000000000000000008152600401610c4d906125a7565b60405180910390fd5b610c63858585858561142a565b5050505050565b610c72611048565b73ffffffffffffffffffffffffffffffffffffffff16610c9061092a565b73ffffffffffffffffffffffffffffffffffffffff1614610ce6576040517f08c379a0000000000000000000000000000000000000000000000000000000008152600401610cdd90612627565b60405180910390fd5b600073ffffffffffffffffffffffffffffffffffffffff168173ffffffffffffffffffffffffffffffffffffffff161415610d56576040517f08c379a0000000000000000000000000000000000000000000000000000000008152600401610d4d90612587565b60405180910390fd5b610d5f81611364565b50565b600360009054906101000a900473ffffffffffffffffffffffffffffffffffffffff1681565b610d90611048565b73ffffffffffffffffffffffffffffffffffffffff16610dae61092a565b73ffffffffffffffffffffffffffffffffffffffff1614610e04576040517f08c379a0000000000000000000000000000000000000000000000000000000008152600401610dfb90612627565b60405180910390fd5b80600660006101000a81548173ffffffffffffffffffffffffffffffffffffffff021916908373ffffffffffffffffffffffffffffffffffffffff16021790555050565b60007f01ffc9a7000000000000000000000000000000000000000000000000000000007bffffffffffffffffffffffffffffffffffffffffffffffffffffffff1916827bffffffffffffffffffffffffffffffffffffffffffffffffffffffff1916149050919050565b600073ffffffffffffffffffffffffffffffffffffffff168473ffffffffffffffffffffffffffffffffffffffff161415610f22576040517f08c379a0000000000000000000000000000000000000000000000000000000008152600401610f19906126a7565b60405180910390fd5b6000610f2c611048565b9050610f4d81600087610f3e886116ac565b610f47886116ac565b87611726565b8260008086815260200190815260200160002060008773ffffffffffffffffffffffffffffffffffffffff1673ffffffffffffffffffffffffffffffffffffffff1681526020019081526020016000206000828254610fac919061282a565b925050819055508473ffffffffffffffffffffffffffffffffffffffff16600073ffffffffffffffffffffffffffffffffffffffff168273ffffffffffffffffffffffffffffffffffffffff167fc3d58168c5ae7397731d063d5bbf3d657854427343f4c083240f7aacaa2d0f62878760405161102a9291906126e2565b60405180910390a46110418160008787878761172e565b5050505050565b600033905090565b8151835114611094576040517f08c379a000000000000000000000000000000000000000000000000000000000815260040161108b90612687565b60405180910390fd5b600073ffffffffffffffffffffffffffffffffffffffff168473ffffffffffffffffffffffffffffffffffffffff161415611104576040517f08c379a00000000000000000000000000000000000000000000000000000000081526004016110fb906125c7565b60405180910390fd5b600061110e611048565b905061111e818787878787611726565b60005b84518110156112cf57600085828151811061113f5761113e612a40565b5b60200260200101519050600085838151811061115e5761115d612a40565b5b60200260200101519050600080600084815260200190815260200160002060008b73ffffffffffffffffffffffffffffffffffffffff1673ffffffffffffffffffffffffffffffffffffffff168152602001908152602001600020549050818110156111ff576040517f08c379a00000000000000000000000000000000000000000000000000000000081526004016111f690612607565b60405180910390fd5b81810360008085815260200190815260200160002060008c73ffffffffffffffffffffffffffffffffffffffff1673ffffffffffffffffffffffffffffffffffffffff168152602001908152602001600020819055508160008085815260200190815260200160002060008b73ffffffffffffffffffffffffffffffffffffffff1673ffffffffffffffffffffffffffffffffffffffff16815260200190815260200160002060008282546112b4919061282a565b92505081905550505050806112c890612999565b9050611121565b508473ffffffffffffffffffffffffffffffffffffffff168673ffffffffffffffffffffffffffffffffffffffff168273ffffffffffffffffffffffffffffffffffffffff167f4a39dc06d4c0dbc64b70af90fd698a233a518aa5d07e595d983b8c0526c8f7fb87876040516113469291906124b3565b60405180910390a461135c818787878787611915565b505050505050565b6000600560009054906101000a900473ffffffffffffffffffffffffffffffffffffffff16905081600560006101000a81548173ffffffffffffffffffffffffffffffffffffffff021916908373ffffffffffffffffffffffffffffffffffffffff1602179055508173ffffffffffffffffffffffffffffffffffffffff168173ffffffffffffffffffffffffffffffffffffffff167f8be0079c531659141344cd1fd0a4f28419497f9722a3daafe3b4186f6b6457e060405160405180910390a35050565b600073ffffffffffffffffffffffffffffffffffffffff168473ffffffffffffffffffffffffffffffffffffffff16141561149a576040517f08c379a0000000000000000000000000000000000000000000000000000000008152600401611491906125c7565b60405180910390fd5b60006114a4611048565b90506114c48187876114b5886116ac565b6114be886116ac565b87611726565b600080600086815260200190815260200160002060008873ffffffffffffffffffffffffffffffffffffffff1673ffffffffffffffffffffffffffffffffffffffff1681526020019081526020016000205490508381101561155b576040517f08c379a000000000000000000000000000000000000000000000000000000000815260040161155290612607565b60405180910390fd5b83810360008087815260200190815260200160002060008973ffffffffffffffffffffffffffffffffffffffff1673ffffffffffffffffffffffffffffffffffffffff168152602001908152602001600020819055508360008087815260200190815260200160002060008873ffffffffffffffffffffffffffffffffffffffff1673ffffffffffffffffffffffffffffffffffffffff1681526020019081526020016000206000828254611610919061282a565b925050819055508573ffffffffffffffffffffffffffffffffffffffff168773ffffffffffffffffffffffffffffffffffffffff168373ffffffffffffffffffffffffffffffffffffffff167fc3d58168c5ae7397731d063d5bbf3d657854427343f4c083240f7aacaa2d0f62888860405161168d9291906126e2565b60405180910390a46116a382888888888861172e565b50505050505050565b60606000600167ffffffffffffffff8111156116cb576116ca612a6f565b5b6040519080825280602002602001820160405280156116f95781602001602082028036833780820191505090505b509050828160008151811061171157611710612a40565b5b60200260200101818152505080915050919050565b505050505050565b61174d8473ffffffffffffffffffffffffffffffffffffffff16611afc565b1561190d578373ffffffffffffffffffffffffffffffffffffffff1663f23a6e6187878686866040518663ffffffff1660e01b8152600401611793959493929190612437565b602060405180830381600087803b1580156117ad57600080fd5b505af19250505080156117de57506040513d601f19601f820116820180604052508101906117db919061206f565b60015b611884576117ea612a9e565b806308c379a0141561184757506117ff612ed4565b8061180a5750611849565b806040517f08c379a000000000000000000000000000000000000000000000000000000000815260040161183e9190612505565b60405180910390fd5b505b6040517f08c379a000000000000000000000000000000000000000000000000000000000815260040161187b90612527565b60405180910390fd5b63f23a6e6160e01b7bffffffffffffffffffffffffffffffffffffffffffffffffffffffff1916817bffffffffffffffffffffffffffffffffffffffffffffffffffffffff19161461190b576040517f08c379a000000000000000000000000000000000000000000000000000000000815260040161190290612547565b60405180910390fd5b505b505050505050565b6119348473ffffffffffffffffffffffffffffffffffffffff16611afc565b15611af4578373ffffffffffffffffffffffffffffffffffffffff1663bc197c8187878686866040518663ffffffff1660e01b815260040161197a9594939291906123cf565b602060405180830381600087803b15801561199457600080fd5b505af19250505080156119c557506040513d601f19601f820116820180604052508101906119c2919061206f565b60015b611a6b576119d1612a9e565b806308c379a01415611a2e57506119e6612ed4565b806119f15750611a30565b806040517f08c379a0000000000000000000000000000000000000000000000000000000008152600401611a259190612505565b60405180910390fd5b505b6040517f08c379a0000000000000000000000000000000000000000000000000000000008152600401611a6290612527565b60405180910390fd5b63bc197c8160e01b7bffffffffffffffffffffffffffffffffffffffffffffffffffffffff1916817bffffffffffffffffffffffffffffffffffffffffffffffffffffffff191614611af2576040517f08c379a0000000000000000000000000000000000000000000000000000000008152600401611ae990612547565b60405180910390fd5b505b505050505050565b600080823b905060008111915050919050565b6000611b22611b1d84612730565b61270b565b90508083825260208201905082856020860282011115611b4557611b44612ac5565b5b60005b85811015611b755781611b5b8882611c31565b845260208401935060208301925050600181019050611b48565b5050509392505050565b6000611b92611b8d8461275c565b61270b565b90508083825260208201905082856020860282011115611bb557611bb4612ac5565b5b60005b85811015611be55781611bcb8882611d0f565b845260208401935060208301925050600181019050611bb8565b5050509392505050565b6000611c02611bfd84612788565b61270b565b905082815260208101848484011115611c1e57611c1d612aca565b5b611c298482856128f4565b509392505050565b600081359050611c4081612f6a565b92915050565b600082601f830112611c5b57611c5a612ac0565b5b8135611c6b848260208601611b0f565b91505092915050565b600082601f830112611c8957611c88612ac0565b5b8135611c99848260208601611b7f565b91505092915050565b600081359050611cb181612f81565b92915050565b600081359050611cc681612f98565b92915050565b600081519050611cdb81612f98565b92915050565b600082601f830112611cf657611cf5612ac0565b5b8135611d06848260208601611bef565b91505092915050565b600081359050611d1e81612faf565b92915050565b600060208284031215611d3a57611d39612ad4565b5b6000611d4884828501611c31565b91505092915050565b60008060408385031215611d6857611d67612ad4565b5b6000611d7685828601611c31565b9250506020611d8785828601611c31565b9150509250929050565b600080600080600060a08688031215611dad57611dac612ad4565b5b6000611dbb88828901611c31565b9550506020611dcc88828901611c31565b945050604086013567ffffffffffffffff811115611ded57611dec612acf565b5b611df988828901611c74565b935050606086013567ffffffffffffffff811115611e1a57611e19612acf565b5b611e2688828901611c74565b925050608086013567ffffffffffffffff811115611e4757611e46612acf565b5b611e5388828901611ce1565b9150509295509295909350565b600080600080600060a08688031215611e7c57611e7b612ad4565b5b6000611e8a88828901611c31565b9550506020611e9b88828901611c31565b9450506040611eac88828901611d0f565b9350506060611ebd88828901611d0f565b925050608086013567ffffffffffffffff811115611ede57611edd612acf565b5b611eea88828901611ce1565b9150509295509295909350565b60008060408385031215611f0e57611f0d612ad4565b5b6000611f1c85828601611c31565b9250506020611f2d85828601611ca2565b9150509250929050565b60008060408385031215611f4e57611f4d612ad4565b5b6000611f5c85828601611c31565b9250506020611f6d85828601611d0f565b9150509250929050565b600080600060608486031215611f9057611f8f612ad4565b5b6000611f9e86828701611c31565b9350506020611faf86828701611d0f565b9250506040611fc086828701611d0f565b9150509250925092565b60008060408385031215611fe157611fe0612ad4565b5b600083013567ffffffffffffffff811115611fff57611ffe612acf565b5b61200b85828601611c46565b925050602083013567ffffffffffffffff81111561202c5761202b612acf565b5b61203885828601611c74565b9150509250929050565b60006020828403121561205857612057612ad4565b5b600061206684828501611cb7565b91505092915050565b60006020828403121561208557612084612ad4565b5b600061209384828501611ccc565b91505092915050565b6000602082840312156120b2576120b1612ad4565b5b60006120c084828501611d0f565b91505092915050565b60006120d58383612396565b60208301905092915050565b6120ea81612880565b82525050565b60006120fb826127c9565b61210581856127f7565b9350612110836127b9565b8060005b8381101561214157815161212888826120c9565b9750612133836127ea565b925050600181019050612114565b5085935050505092915050565b61215781612892565b82525050565b6000612168826127d4565b6121728185612808565b9350612182818560208601612903565b61218b81612ad9565b840191505092915050565b60006121a1826127df565b6121ab8185612819565b93506121bb818560208601612903565b6121c481612ad9565b840191505092915050565b60006121dc603483612819565b91506121e782612af7565b604082019050919050565b60006121ff602883612819565b915061220a82612b46565b604082019050919050565b6000612222602b83612819565b915061222d82612b95565b604082019050919050565b6000612245602683612819565b915061225082612be4565b604082019050919050565b6000612268602983612819565b915061227382612c33565b604082019050919050565b600061228b602583612819565b915061229682612c82565b604082019050919050565b60006122ae603283612819565b91506122b982612cd1565b604082019050919050565b60006122d1602a83612819565b91506122dc82612d20565b604082019050919050565b60006122f4602083612819565b91506122ff82612d6f565b602082019050919050565b6000612317602983612819565b915061232282612d98565b604082019050919050565b600061233a602983612819565b915061234582612de7565b604082019050919050565b600061235d602883612819565b915061236882612e36565b604082019050919050565b6000612380602183612819565b915061238b82612e85565b604082019050919050565b61239f816128ea565b82525050565b6123ae816128ea565b82525050565b60006020820190506123c960008301846120e1565b92915050565b600060a0820190506123e460008301886120e1565b6123f160208301876120e1565b818103604083015261240381866120f0565b9050818103606083015261241781856120f0565b9050818103608083015261242b818461215d565b90509695505050505050565b600060a08201905061244c60008301886120e1565b61245960208301876120e1565b61246660408301866123a5565b61247360608301856123a5565b8181036080830152612485818461215d565b90509695505050505050565b600060208201905081810360008301526124ab81846120f0565b905092915050565b600060408201905081810360008301526124cd81856120f0565b905081810360208301526124e181846120f0565b90509392505050565b60006020820190506124ff600083018461214e565b92915050565b6000602082019050818103600083015261251f8184612196565b905092915050565b60006020820190508181036000830152612540816121cf565b9050919050565b60006020820190508181036000830152612560816121f2565b9050919050565b6000602082019050818103600083015261258081612215565b9050919050565b600060208201905081810360008301526125a081612238565b9050919050565b600060208201905081810360008301526125c08161225b565b9050919050565b600060208201905081810360008301526125e08161227e565b9050919050565b60006020820190508181036000830152612600816122a1565b9050919050565b60006020820190508181036000830152612620816122c4565b9050919050565b60006020820190508181036000830152612640816122e7565b9050919050565b600060208201905081810360008301526126608161230a565b9050919050565b600060208201905081810360008301526126808161232d565b9050919050565b600060208201905081810360008301526126a081612350565b9050919050565b600060208201905081810360008301526126c081612373565b9050919050565b60006020820190506126dc60008301846123a5565b92915050565b60006040820190506126f760008301856123a5565b61270460208301846123a5565b9392505050565b6000612715612726565b90506127218282612968565b919050565b6000604051905090565b600067ffffffffffffffff82111561274b5761274a612a6f565b5b602082029050602081019050919050565b600067ffffffffffffffff82111561277757612776612a6f565b5b602082029050602081019050919050565b600067ffffffffffffffff8211156127a3576127a2612a6f565b5b6127ac82612ad9565b9050602081019050919050565b6000819050602082019050919050565b600081519050919050565b600081519050919050565b600081519050919050565b6000602082019050919050565b600082825260208201905092915050565b600082825260208201905092915050565b600082825260208201905092915050565b6000612835826128ea565b9150612840836128ea565b9250827fffffffffffffffffffffffffffffffffffffffffffffffffffffffffffffffff03821115612875576128746129e2565b5b828201905092915050565b600061288b826128ca565b9050919050565b60008115159050919050565b60007fffffffff0000000000000000000000000000000000000000000000000000000082169050919050565b600073ffffffffffffffffffffffffffffffffffffffff82169050919050565b6000819050919050565b82818337600083830152505050565b60005b83811015612921578082015181840152602081019050612906565b83811115612930576000848401525b50505050565b6000600282049050600182168061294e57607f821691505b6020821081141561296257612961612a11565b5b50919050565b61297182612ad9565b810181811067ffffffffffffffff821117156129905761298f612a6f565b5b80604052505050565b60006129a4826128ea565b91507fffffffffffffffffffffffffffffffffffffffffffffffffffffffffffffffff8214156129d7576129d66129e2565b5b600182019050919050565b7f4e487b7100000000000000000000000000000000000000000000000000000000600052601160045260246000fd5b7f4e487b7100000000000000000000000000000000000000000000000000000000600052602260045260246000fd5b7f4e487b7100000000000000000000000000000000000000000000000000000000600052603260045260246000fd5b7f4e487b7100000000000000000000000000000000000000000000000000000000600052604160045260246000fd5b600060033d1115612abd5760046000803e612aba600051612aea565b90505b90565b600080fd5b600080fd5b600080fd5b600080fd5b600080fd5b6000601f19601f8301169050919050565b60008160e01c9050919050565b7f455243313135353a207472616e7366657220746f206e6f6e204552433131353560008201527f526563656976657220696d706c656d656e746572000000000000000000000000602082015250565b7f455243313135353a204552433131353552656365697665722072656a6563746560008201527f6420746f6b656e73000000000000000000000000000000000000000000000000602082015250565b7f455243313135353a2062616c616e636520717565727920666f7220746865207a60008201527f65726f2061646472657373000000000000000000000000000000000000000000602082015250565b7f4f776e61626c653a206e6577206f776e657220697320746865207a65726f206160008201527f6464726573730000000000000000000000000000000000000000000000000000602082015250565b7f455243313135353a2063616c6c6572206973206e6f74206f776e6572206e6f7260008201527f20617070726f7665640000000000000000000000000000000000000000000000602082015250565b7f455243313135353a207472616e7366657220746f20746865207a65726f20616460008201527f6472657373000000000000000000000000000000000000000000000000000000602082015250565b7f455243313135353a207472616e736665722063616c6c6572206973206e6f742060008201527f6f776e6572206e6f7220617070726f7665640000000000000000000000000000602082015250565b7f455243313135353a20696e73756666696369656e742062616c616e636520666f60008201527f72207472616e7366657200000000000000000000000000000000000000000000602082015250565b7f4f776e61626c653a2063616c6c6572206973206e6f7420746865206f776e6572600082015250565b7f455243313135353a2073657474696e6720617070726f76616c2073746174757360008201527f20666f722073656c660000000000000000000000000000000000000000000000602082015250565b7f455243313135353a206163636f756e747320616e6420696473206c656e67746860008201527f206d69736d617463680000000000000000000000000000000000000000000000602082015250565b7f455243313135353a2069647320616e6420616d6f756e7473206c656e6774682060008201527f6d69736d61746368000000000000000000000000000000000000000000000000602082015250565b7f455243313135353a206d696e7420746f20746865207a65726f2061646472657360008201527f7300000000000000000000000000000000000000000000000000000000000000602082015250565b600060443d1015612ee457612f67565b612eec612726565b60043d036004823e80513d602482011167ffffffffffffffff82111715612f14575050612f67565b808201805167ffffffffffffffff811115612f325750505050612f67565b80602083010160043d038501811115612f4f575050505050612f67565b612f5e82602001850186612968565b82955050505050505b90565b612f7381612880565b8114612f7e57600080fd5b50565b612f8a81612892565b8114612f9557600080fd5b50565b612fa18161289e565b8114612fac57600080fd5b50565b612fb8816128ea565b8114612fc357600080fd5b5056fea26469706673582212203e170739a6288cc9e7d21852ee1bd5d6f2d8cadefd1c877a01e7524f060f357964736f6c63430008060033",
  "devdoc": {
    "kind": "dev",
    "methods": {
      "balanceOf(address,uint256)": {
        "details": "See {IERC1155-balanceOf}. Requirements: - `account` cannot be the zero address."
      },
      "balanceOfBatch(address[],uint256[])": {
        "details": "See {IERC1155-balanceOfBatch}. Requirements: - `accounts` and `ids` must have the same length."
      },
      "isApprovedForAll(address,address)": {
        "details": "See {IERC1155-isApprovedForAll}."
      },
      "owner()": {
        "details": "Returns the address of the current owner."
      },
      "renounceOwnership()": {
        "details": "Leaves the contract without owner. It will not be possible to call `onlyOwner` functions anymore. Can only be called by the current owner. NOTE: Renouncing ownership will leave the contract without an owner, thereby removing any functionality that is only available to the owner."
      },
      "safeBatchTransferFrom(address,address,uint256[],uint256[],bytes)": {
        "details": "See {IERC1155-safeBatchTransferFrom}."
      },
      "safeTransferFrom(address,address,uint256,uint256,bytes)": {
        "details": "See {IERC1155-safeTransferFrom}."
      },
      "setApprovalForAll(address,bool)": {
        "details": "See {IERC1155-setApprovalForAll}."
      },
      "supportsInterface(bytes4)": {
        "details": "See {IERC165-supportsInterface}."
      },
      "transferOwnership(address)": {
        "details": "Transfers ownership of the contract to a new account (`newOwner`). Can only be called by the current owner."
      },
      "uri(uint256)": {
        "details": "See {IERC1155MetadataURI-uri}. This implementation returns the same URI for *all* token types. It relies on the token type ID substitution mechanism https://eips.ethereum.org/EIPS/eip-1155#metadata[defined in the EIP]. Clients calling this function must replace the `\\{id\\}` substring with the actual token type ID."
      }
    },
    "title": "Economics Design Property Right NFT.",
    "version": 1
  },
  "userdoc": {
    "kind": "user",
    "methods": {},
    "notice": "Contract used to verify the ownership of the Economics Design book property rights.",
    "version": 1
  },
  "storageLayout": {
    "storage": [
      {
        "astId": 599,
        "contract": "contracts/EconNFT.sol:EconNFT",
        "label": "_balances",
        "offset": 0,
        "slot": "0",
        "type": "t_mapping(t_uint256,t_mapping(t_address,t_uint256))"
      },
      {
        "astId": 605,
        "contract": "contracts/EconNFT.sol:EconNFT",
        "label": "_operatorApprovals",
        "offset": 0,
        "slot": "1",
        "type": "t_mapping(t_address,t_mapping(t_address,t_bool))"
      },
      {
        "astId": 607,
        "contract": "contracts/EconNFT.sol:EconNFT",
        "label": "_uri",
        "offset": 0,
        "slot": "2",
        "type": "t_string_storage"
      },
      {
        "astId": 609,
        "contract": "contracts/EconNFT.sol:EconNFT",
        "label": "econAuctionHouse",
        "offset": 0,
        "slot": "3",
        "type": "t_address"
      },
      {
        "astId": 611,
        "contract": "contracts/EconNFT.sol:EconNFT",
        "label": "ERC1155Owner",
        "offset": 0,
        "slot": "4",
        "type": "t_address"
      },
      {
        "astId": 7,
        "contract": "contracts/EconNFT.sol:EconNFT",
        "label": "_owner",
        "offset": 0,
        "slot": "5",
        "type": "t_address"
      },
      {
        "astId": 3613,
        "contract": "contracts/EconNFT.sol:EconNFT",
        "label": "minter",
        "offset": 0,
        "slot": "6",
        "type": "t_address"
      }
    ],
    "types": {
      "t_address": {
        "encoding": "inplace",
        "label": "address",
        "numberOfBytes": "20"
      },
      "t_bool": {
        "encoding": "inplace",
        "label": "bool",
        "numberOfBytes": "1"
      },
      "t_mapping(t_address,t_bool)": {
        "encoding": "mapping",
        "key": "t_address",
        "label": "mapping(address => bool)",
        "numberOfBytes": "32",
        "value": "t_bool"
      },
      "t_mapping(t_address,t_mapping(t_address,t_bool))": {
        "encoding": "mapping",
        "key": "t_address",
        "label": "mapping(address => mapping(address => bool))",
        "numberOfBytes": "32",
        "value": "t_mapping(t_address,t_bool)"
      },
      "t_mapping(t_address,t_uint256)": {
        "encoding": "mapping",
        "key": "t_address",
        "label": "mapping(address => uint256)",
        "numberOfBytes": "32",
        "value": "t_uint256"
      },
      "t_mapping(t_uint256,t_mapping(t_address,t_uint256))": {
        "encoding": "mapping",
        "key": "t_uint256",
        "label": "mapping(uint256 => mapping(address => uint256))",
        "numberOfBytes": "32",
        "value": "t_mapping(t_address,t_uint256)"
      },
      "t_string_storage": {
        "encoding": "bytes",
        "label": "string",
        "numberOfBytes": "32"
      },
      "t_uint256": {
        "encoding": "inplace",
        "label": "uint256",
        "numberOfBytes": "32"
      }
    }
  }
}