{
  "address": "0x1C98027C77627366a928F9202D6Df8058c7cADbE",
  "abi": [
    {
      "inputs": [
        {
          "internalType": "uint256",
          "name": "_totalSupply",
          "type": "uint256"
        },
        {
          "internalType": "uint256",
          "name": "_expirationTimestamp",
          "type": "uint256"
        }
      ],
      "stateMutability": "nonpayable",
      "type": "constructor"
    },
    {
      "anonymous": false,
      "inputs": [
        {
          "indexed": true,
          "internalType": "address",
          "name": "owner",
          "type": "address"
        },
        {
          "indexed": true,
          "internalType": "address",
          "name": "approved",
          "type": "address"
        },
        {
          "indexed": true,
          "internalType": "uint256",
          "name": "tokenId",
          "type": "uint256"
        }
      ],
      "name": "Approval",
      "type": "event"
    },
    {
      "anonymous": false,
      "inputs": [
        {
          "indexed": true,
          "internalType": "address",
          "name": "owner",
          "type": "address"
        },
        {
          "indexed": true,
          "internalType": "address",
          "name": "operator",
          "type": "address"
        },
        {
          "indexed": false,
          "internalType": "bool",
          "name": "approved",
          "type": "bool"
        }
      ],
      "name": "ApprovalForAll",
      "type": "event"
    },
    {
      "anonymous": false,
      "inputs": [
        {
          "indexed": true,
          "internalType": "address",
          "name": "previousOwner",
          "type": "address"
        },
        {
          "indexed": true,
          "internalType": "address",
          "name": "newOwner",
          "type": "address"
        }
      ],
      "name": "OwnershipTransferred",
      "type": "event"
    },
    {
      "anonymous": false,
      "inputs": [
        {
          "indexed": true,
          "internalType": "address",
          "name": "from",
          "type": "address"
        },
        {
          "indexed": true,
          "internalType": "address",
          "name": "to",
          "type": "address"
        },
        {
          "indexed": true,
          "internalType": "uint256",
          "name": "tokenId",
          "type": "uint256"
        }
      ],
      "name": "Transfer",
      "type": "event"
    },
    {
      "inputs": [
        {
          "internalType": "address",
          "name": "to",
          "type": "address"
        },
        {
          "internalType": "uint256",
          "name": "tokenId",
          "type": "uint256"
        }
      ],
      "name": "approve",
      "outputs": [],
      "stateMutability": "nonpayable",
      "type": "function"
    },
    {
      "inputs": [
        {
          "internalType": "address",
          "name": "owner",
          "type": "address"
        }
      ],
      "name": "balanceOf",
      "outputs": [
        {
          "internalType": "uint256",
          "name": "",
          "type": "uint256"
        }
      ],
      "stateMutability": "view",
      "type": "function"
    },
    {
      "inputs": [
        {
          "internalType": "uint256",
          "name": "econNFTId",
          "type": "uint256"
        }
      ],
      "name": "burn",
      "outputs": [],
      "stateMutability": "nonpayable",
      "type": "function"
    },
    {
      "inputs": [
        {
          "internalType": "uint256",
          "name": "",
          "type": "uint256"
        }
      ],
      "name": "colors",
      "outputs": [
        {
          "internalType": "string",
          "name": "",
          "type": "string"
        }
      ],
      "stateMutability": "view",
      "type": "function"
    },
    {
      "inputs": [],
      "name": "currentExpirationTimestamp",
      "outputs": [
        {
          "internalType": "uint256",
          "name": "",
          "type": "uint256"
        }
      ],
      "stateMutability": "view",
      "type": "function"
    },
    {
      "inputs": [
        {
          "internalType": "uint256",
          "name": "_randomNumber",
          "type": "uint256"
        }
      ],
      "name": "generatePath",
      "outputs": [
        {
          "internalType": "string",
          "name": "pathSvg",
          "type": "string"
        }
      ],
      "stateMutability": "view",
      "type": "function"
    },
    {
      "inputs": [
        {
          "internalType": "uint256",
          "name": "_randomNumber",
          "type": "uint256"
        }
      ],
      "name": "generatePathCommand",
      "outputs": [
        {
          "internalType": "string",
          "name": "pathCommand",
          "type": "string"
        }
      ],
      "stateMutability": "view",
      "type": "function"
    },
    {
      "inputs": [
        {
          "internalType": "uint256",
          "name": "_randomNumber",
          "type": "uint256"
        }
      ],
      "name": "generateSVG",
      "outputs": [
        {
          "internalType": "string",
          "name": "finalSvg",
          "type": "string"
        }
      ],
      "stateMutability": "view",
      "type": "function"
    },
    {
      "inputs": [
        {
          "internalType": "uint256",
          "name": "tokenId",
          "type": "uint256"
        }
      ],
      "name": "getApproved",
      "outputs": [
        {
          "internalType": "address",
          "name": "",
          "type": "address"
        }
      ],
      "stateMutability": "view",
      "type": "function"
    },
    {
      "inputs": [
        {
          "internalType": "address",
          "name": "owner",
          "type": "address"
        },
        {
          "internalType": "address",
          "name": "operator",
          "type": "address"
        }
      ],
      "name": "isApprovedForAll",
      "outputs": [
        {
          "internalType": "bool",
          "name": "",
          "type": "bool"
        }
      ],
      "stateMutability": "view",
      "type": "function"
    },
    {
      "inputs": [],
      "name": "isMinterLocked",
      "outputs": [
        {
          "internalType": "bool",
          "name": "",
          "type": "bool"
        }
      ],
      "stateMutability": "view",
      "type": "function"
    },
    {
      "inputs": [],
      "name": "lockMinter",
      "outputs": [],
      "stateMutability": "nonpayable",
      "type": "function"
    },
    {
      "inputs": [],
      "name": "maxNumberOfPath",
      "outputs": [
        {
          "internalType": "uint256",
          "name": "",
          "type": "uint256"
        }
      ],
      "stateMutability": "view",
      "type": "function"
    },
    {
      "inputs": [],
      "name": "maxNumberOfPathCommands",
      "outputs": [
        {
          "internalType": "uint256",
          "name": "",
          "type": "uint256"
        }
      ],
      "stateMutability": "view",
      "type": "function"
    },
    {
      "inputs": [],
      "name": "mint",
      "outputs": [
        {
          "internalType": "uint256",
          "name": "",
          "type": "uint256"
        }
      ],
      "stateMutability": "nonpayable",
      "type": "function"
    },
    {
      "inputs": [],
      "name": "minter",
      "outputs": [
        {
          "internalType": "address",
          "name": "",
          "type": "address"
        }
      ],
      "stateMutability": "view",
      "type": "function"
    },
    {
      "inputs": [],
      "name": "name",
      "outputs": [
        {
          "internalType": "string",
          "name": "",
          "type": "string"
        }
      ],
      "stateMutability": "view",
      "type": "function"
    },
    {
      "inputs": [],
      "name": "owner",
      "outputs": [
        {
          "internalType": "address",
          "name": "",
          "type": "address"
        }
      ],
      "stateMutability": "view",
      "type": "function"
    },
    {
      "inputs": [
        {
          "internalType": "uint256",
          "name": "tokenId",
          "type": "uint256"
        }
      ],
      "name": "ownerOf",
      "outputs": [
        {
          "internalType": "address",
          "name": "",
          "type": "address"
        }
      ],
      "stateMutability": "view",
      "type": "function"
    },
    {
      "inputs": [
        {
          "internalType": "uint256",
          "name": "",
          "type": "uint256"
        }
      ],
      "name": "pathCommands",
      "outputs": [
        {
          "internalType": "string",
          "name": "",
          "type": "string"
        }
      ],
      "stateMutability": "view",
      "type": "function"
    },
    {
      "inputs": [],
      "name": "renounceOwnership",
      "outputs": [],
      "stateMutability": "nonpayable",
      "type": "function"
    },
    {
      "inputs": [
        {
          "internalType": "address",
          "name": "from",
          "type": "address"
        },
        {
          "internalType": "address",
          "name": "to",
          "type": "address"
        },
        {
          "internalType": "uint256",
          "name": "tokenId",
          "type": "uint256"
        }
      ],
      "name": "safeTransferFrom",
      "outputs": [],
      "stateMutability": "nonpayable",
      "type": "function"
    },
    {
      "inputs": [
        {
          "internalType": "address",
          "name": "from",
          "type": "address"
        },
        {
          "internalType": "address",
          "name": "to",
          "type": "address"
        },
        {
          "internalType": "uint256",
          "name": "tokenId",
          "type": "uint256"
        },
        {
          "internalType": "bytes",
          "name": "_data",
          "type": "bytes"
        }
      ],
      "name": "safeTransferFrom",
      "outputs": [],
      "stateMutability": "nonpayable",
      "type": "function"
    },
    {
      "inputs": [
        {
          "internalType": "uint256",
          "name": "",
          "type": "uint256"
        }
      ],
      "name": "seeds",
      "outputs": [
        {
          "internalType": "uint256",
          "name": "expirationTimestamp",
          "type": "uint256"
        }
      ],
      "stateMutability": "view",
      "type": "function"
    },
    {
      "inputs": [
        {
          "internalType": "address",
          "name": "operator",
          "type": "address"
        },
        {
          "internalType": "bool",
          "name": "approved",
          "type": "bool"
        }
      ],
      "name": "setApprovalForAll",
      "outputs": [],
      "stateMutability": "nonpayable",
      "type": "function"
    },
    {
      "inputs": [
        {
          "internalType": "uint256",
          "name": "_newExpirationTimestamp",
          "type": "uint256"
        }
      ],
      "name": "setCurrentExpirationTimestamp",
      "outputs": [],
      "stateMutability": "nonpayable",
      "type": "function"
    },
    {
      "inputs": [
        {
          "internalType": "address",
          "name": "_minter",
          "type": "address"
        }
      ],
      "name": "setMinter",
      "outputs": [],
      "stateMutability": "nonpayable",
      "type": "function"
    },
    {
      "inputs": [],
      "name": "size",
      "outputs": [
        {
          "internalType": "uint256",
          "name": "",
          "type": "uint256"
        }
      ],
      "stateMutability": "view",
      "type": "function"
    },
    {
      "inputs": [
        {
          "internalType": "bytes4",
          "name": "interfaceId",
          "type": "bytes4"
        }
      ],
      "name": "supportsInterface",
      "outputs": [
        {
          "internalType": "bool",
          "name": "",
          "type": "bool"
        }
      ],
      "stateMutability": "view",
      "type": "function"
    },
    {
      "inputs": [
        {
          "internalType": "string",
          "name": "_svg",
          "type": "string"
        }
      ],
      "name": "svgToImageURI",
      "outputs": [
        {
          "internalType": "string",
          "name": "",
          "type": "string"
        }
      ],
      "stateMutability": "pure",
      "type": "function"
    },
    {
      "inputs": [],
      "name": "symbol",
      "outputs": [
        {
          "internalType": "string",
          "name": "",
          "type": "string"
        }
      ],
      "stateMutability": "view",
      "type": "function"
    },
    {
      "inputs": [
        {
          "internalType": "uint256",
          "name": "tokenId",
          "type": "uint256"
        }
      ],
      "name": "tokenURI",
      "outputs": [
        {
          "internalType": "string",
          "name": "",
          "type": "string"
        }
      ],
      "stateMutability": "view",
      "type": "function"
    },
    {
      "inputs": [
        {
          "internalType": "address",
          "name": "from",
          "type": "address"
        },
        {
          "internalType": "address",
          "name": "to",
          "type": "address"
        },
        {
          "internalType": "uint256",
          "name": "tokenId",
          "type": "uint256"
        }
      ],
      "name": "transferFrom",
      "outputs": [],
      "stateMutability": "nonpayable",
      "type": "function"
    },
    {
      "inputs": [
        {
          "internalType": "address",
          "name": "newOwner",
          "type": "address"
        }
      ],
      "name": "transferOwnership",
      "outputs": [],
      "stateMutability": "nonpayable",
      "type": "function"
    }
  ],
  "transactionHash": "0xbf4fbb72c3aff03d9f4b753bdf9769715310e02f26e686944c8d63706c11ce94",
  "args": [
    "0",
    1672441200
  ],
  "solcInputHash": "f7ae3fcaf91a4afebd8dfd436b30628f",
  "bytecode": "0x60806040523480156200001157600080fd5b5060405162004fe138038062004fe1833981810160405281019062000037919062000623565b6040518060400160405280600c81526020017f45636f6e746572696320495000000000000000000000000000000000000000008152506040518060400160405280600481526020017f45434950000000000000000000000000000000000000000000000000000000008152508160009080519060200190620000bb92919062000420565b508060019080519060200190620000d492919062000420565b505050620000f7620000eb6200035260201b60201c565b6200035a60201b60201c565b6000600960006101000a81548160ff021916908315150217905550600060088190555080600b81905550600a600c819055506005600d819055506101f4600e8190555060405180604001604052806040518060400160405280600181526020017f4d0000000000000000000000000000000000000000000000000000000000000081525081526020016040518060400160405280600181526020017f4c00000000000000000000000000000000000000000000000000000000000000815250815250600f906002620001cb929190620004b1565b506040518060c001604052806040518060400160405280600381526020017f726564000000000000000000000000000000000000000000000000000000000081525081526020016040518060400160405280600481526020017f626c75650000000000000000000000000000000000000000000000000000000081525081526020016040518060400160405280600581526020017f677265656e00000000000000000000000000000000000000000000000000000081525081526020016040518060400160405280600681526020017f79656c6c6f77000000000000000000000000000000000000000000000000000081525081526020016040518060400160405280600581526020017f626c61636b00000000000000000000000000000000000000000000000000000081525081526020016040518060400160405280600581526020017f776869746500000000000000000000000000000000000000000000000000000081525081525060109060066200034992919062000518565b505050620006f8565b600033905090565b6000600660009054906101000a900473ffffffffffffffffffffffffffffffffffffffff16905081600660006101000a81548173ffffffffffffffffffffffffffffffffffffffff021916908373ffffffffffffffffffffffffffffffffffffffff1602179055508173ffffffffffffffffffffffffffffffffffffffff168173ffffffffffffffffffffffffffffffffffffffff167f8be0079c531659141344cd1fd0a4f28419497f9722a3daafe3b4186f6b6457e060405160405180910390a35050565b8280546200042e9062000674565b90600052602060002090601f0160209004810192826200045257600085556200049e565b82601f106200046d57805160ff19168380011785556200049e565b828001600101855582156200049e579182015b828111156200049d57825182559160200191906001019062000480565b5b509050620004ad91906200057f565b5090565b82805482825590600052602060002090810192821562000505579160200282015b8281111562000504578251829080519060200190620004f392919062000420565b5091602001919060010190620004d2565b5b5090506200051491906200059e565b5090565b8280548282559060005260206000209081019282156200056c579160200282015b828111156200056b5782518290805190602001906200055a92919062000420565b509160200191906001019062000539565b5b5090506200057b91906200059e565b5090565b5b808211156200059a57600081600090555060010162000580565b5090565b5b80821115620005c25760008181620005b89190620005c6565b506001016200059f565b5090565b508054620005d49062000674565b6000825580601f10620005e8575062000609565b601f0160209004906000526020600020908101906200060891906200057f565b5b50565b6000815190506200061d81620006de565b92915050565b600080604083850312156200063d576200063c620006d9565b5b60006200064d858286016200060c565b925050602062000660858286016200060c565b9150509250929050565b6000819050919050565b600060028204905060018216806200068d57607f821691505b60208210811415620006a457620006a3620006aa565b5b50919050565b7f4e487b7100000000000000000000000000000000000000000000000000000000600052602260045260246000fd5b600080fd5b620006e9816200066a565b8114620006f557600080fd5b50565b6148d980620007086000396000f3fe608060405234801561001057600080fd5b50600436106102065760003560e01c8063715018a61161011a578063bd11f69d116100ad578063f0503e801161007c578063f0503e8014610615578063f26e54f314610645578063f2c5df9b14610661578063f2fde38b1461067f578063fca3b5aa1461069b57610206565b8063bd11f69d14610555578063c68b49d114610585578063c87b56dd146105b5578063e985e9c5146105e557610206565b8063955968d4116100e9578063955968d4146104cf57806395d89b41146104ff578063a22cb4651461051d578063b88d4fde1461053957610206565b8063715018a61461047f57806376daebe1146104895780638da5cb5b14610493578063949d225d146104b157610206565b806330d871c61161019d57806348e896ab1161016c57806348e896ab146103b3578063568a1844146103d15780636352211e146103ef5780636dcee4ca1461041f57806370a082311461044f57610206565b806330d871c61461031b57806333af59891461034b57806342842e0e1461037b57806342966c681461039757610206565b8063095ea7b3116101d9578063095ea7b3146102a75780631249c58b146102c35780631e688e10146102e157806323b872dd146102ff57610206565b806301ffc9a71461020b57806306fdde031461023b5780630754617214610259578063081812fc14610277575b600080fd5b61022560048036038101906102209190612e9d565b6106b7565b60405161023291906136bc565b60405180910390f35b610243610799565b60405161025091906136d7565b60405180910390f35b61026161082b565b60405161026e9190613655565b60405180910390f35b610291600480360381019061028c9190612f40565b610851565b60405161029e9190613655565b60405180910390f35b6102c160048036038101906102bc9190612e5d565b6108d6565b005b6102cb6109ee565b6040516102d89190613919565b60405180910390f35b6102e9610ac7565b6040516102f691906136bc565b60405180910390f35b61031960048036038101906103149190612d47565b610ada565b005b61033560048036038101906103309190612ef7565b610b3a565b60405161034291906136d7565b60405180910390f35b61036560048036038101906103609190612f40565b610bd3565b60405161037291906136d7565b60405180910390f35b61039560048036038101906103909190612d47565b610d9f565b005b6103b160048036038101906103ac9190612f40565b610dbf565b005b6103bb610e5b565b6040516103c89190613919565b60405180910390f35b6103d9610e61565b6040516103e69190613919565b60405180910390f35b61040960048036038101906104049190612f40565b610e67565b6040516104169190613655565b60405180910390f35b61043960048036038101906104349190612f40565b610f19565b60405161044691906136d7565b60405180910390f35b61046960048036038101906104649190612cda565b61101b565b6040516104769190613919565b60405180910390f35b6104876110d3565b005b61049161115b565b005b61049b611244565b6040516104a89190613655565b60405180910390f35b6104b961126e565b6040516104c69190613919565b60405180910390f35b6104e960048036038101906104e49190612f40565b611274565b6040516104f691906136d7565b60405180910390f35b610507611320565b60405161051491906136d7565b60405180910390f35b61053760048036038101906105329190612e1d565b6113b2565b005b610553600480360381019061054e9190612d9a565b611533565b005b61056f600480360381019061056a9190612f40565b611595565b60405161057c91906136d7565b60405180910390f35b61059f600480360381019061059a9190612f40565b611641565b6040516105ac91906136d7565b60405180910390f35b6105cf60048036038101906105ca9190612f40565b6117da565b6040516105dc91906136d7565b60405180910390f35b6105ff60048036038101906105fa9190612d07565b6118b4565b60405161060c91906136bc565b60405180910390f35b61062f600480360381019061062a9190612f40565b611948565b60405161063c9190613919565b60405180910390f35b61065f600480360381019061065a9190612f40565b611966565b005b6106696119ec565b6040516106769190613919565b60405180910390f35b61069960048036038101906106949190612cda565b6119f2565b005b6106b560048036038101906106b09190612cda565b611aea565b005b60007f80ac58cd000000000000000000000000000000000000000000000000000000007bffffffffffffffffffffffffffffffffffffffffffffffffffffffff1916827bffffffffffffffffffffffffffffffffffffffffffffffffffffffff1916148061078257507f5b5e139f000000000000000000000000000000000000000000000000000000007bffffffffffffffffffffffffffffffffffffffffffffffffffffffff1916827bffffffffffffffffffffffffffffffffffffffffffffffffffffffff1916145b80610792575061079182611bfa565b5b9050919050565b6060600080546107a890613ee9565b80601f01602080910402602001604051908101604052809291908181526020018280546107d490613ee9565b80156108215780601f106107f657610100808354040283529160200191610821565b820191906000526020600020905b81548152906001019060200180831161080457829003601f168201915b5050505050905090565b600760009054906101000a900473ffffffffffffffffffffffffffffffffffffffff1681565b600061085c82611c64565b61089b576040517f08c379a000000000000000000000000000000000000000000000000000000000815260040161089290613879565b60405180910390fd5b6004600083815260200190815260200160002060009054906101000a900473ffffffffffffffffffffffffffffffffffffffff169050919050565b60006108e182610e67565b90508073ffffffffffffffffffffffffffffffffffffffff168373ffffffffffffffffffffffffffffffffffffffff161415610952576040517f08c379a0000000000000000000000000000000000000000000000000000000008152600401610949906138d9565b60405180910390fd5b8073ffffffffffffffffffffffffffffffffffffffff16610971611cd0565b73ffffffffffffffffffffffffffffffffffffffff1614806109a0575061099f8161099a611cd0565b6118b4565b5b6109df576040517f08c379a00000000000000000000000000000000000000000000000000000000081526004016109d6906137f9565b60405180910390fd5b6109e98383611cd8565b505050565b6000600760009054906101000a900473ffffffffffffffffffffffffffffffffffffffff1673ffffffffffffffffffffffffffffffffffffffff163373ffffffffffffffffffffffffffffffffffffffff1614610a80576040517f08c379a0000000000000000000000000000000000000000000000000000000008152600401610a7790613739565b60405180910390fd5b610ac2600760009054906101000a900473ffffffffffffffffffffffffffffffffffffffff1660086000815480929190610ab990613f4c565b91905055611d91565b905090565b600960009054906101000a900460ff1681565b610aeb610ae5611cd0565b82611dd7565b610b2a576040517f08c379a0000000000000000000000000000000000000000000000000000000008152600401610b21906138f9565b60405180910390fd5b610b35838383611eb5565b505050565b606060006040518060400160405280601a81526020017f646174613a696d6167652f7376672b786d6c3b6261736536342c00000000000081525090506000610ba084604051602001610b8c919061347a565b604051602081830303815290604052612111565b905060008282604051602001610bb7929190613491565b6040516020818303038152906040529050809350505050919050565b606060006001600d5484610be79190613f95565b610bf19190613abb565b90506040518060400160405280600981526020017f3c7061746820643d220000000000000000000000000000000000000000000000815250915060005b81811015610cb95760008482600e54610c479190613abb565b604051602001610c58929190613934565b6040516020818303038152906040528051906020012060001c90506000610c7e82611641565b90508481604051602001610c93929190613491565b604051602081830303815290604052945050508080610cb190613f4c565b915050610c2e565b5060006010808054905085610cce9190613f95565b81548110610cdf57610cde614053565b5b906000526020600020018054610cf490613ee9565b80601f0160208091040260200160405190810160405280929190818152602001828054610d2090613ee9565b8015610d6d5780601f10610d4257610100808354040283529160200191610d6d565b820191906000526020600020905b815481529060010190602001808311610d5057829003601f168201915b505050505090508281604051602001610d87929190613507565b60405160208183030381529060405292505050919050565b610dba83838360405180602001604052806000815250611533565b505050565b600760009054906101000a900473ffffffffffffffffffffffffffffffffffffffff1673ffffffffffffffffffffffffffffffffffffffff163373ffffffffffffffffffffffffffffffffffffffff1614610e4f576040517f08c379a0000000000000000000000000000000000000000000000000000000008152600401610e4690613739565b60405180910390fd5b610e588161228a565b50565b600d5481565b600c5481565b6000806002600084815260200190815260200160002060009054906101000a900473ffffffffffffffffffffffffffffffffffffffff169050600073ffffffffffffffffffffffffffffffffffffffff168173ffffffffffffffffffffffffffffffffffffffff161415610f10576040517f08c379a0000000000000000000000000000000000000000000000000000000008152600401610f0790613839565b60405180910390fd5b80915050919050565b606060006001600c5484610f2d9190613f95565b610f379190613abb565b9050610f44600e5461239b565b610f4f600e5461239b565b604051602001610f60929190613563565b604051602081830303815290604052915060005b81811015610ff25760008482604051602001610f91929190613934565b6040516020818303038152906040528051906020012060001c90506000610fb782610bd3565b90508481604051602001610fcc929190613491565b604051602081830303815290604052945050508080610fea90613f4c565b915050610f74565b50816040516020016110049190613541565b604051602081830303815290604052915050919050565b60008073ffffffffffffffffffffffffffffffffffffffff168273ffffffffffffffffffffffffffffffffffffffff16141561108c576040517f08c379a000000000000000000000000000000000000000000000000000000000815260040161108390613819565b60405180910390fd5b600360008373ffffffffffffffffffffffffffffffffffffffff1673ffffffffffffffffffffffffffffffffffffffff168152602001908152602001600020549050919050565b6110db611cd0565b73ffffffffffffffffffffffffffffffffffffffff166110f9611244565b73ffffffffffffffffffffffffffffffffffffffff161461114f576040517f08c379a000000000000000000000000000000000000000000000000000000000815260040161114690613899565b60405180910390fd5b6111596000612524565b565b611163611cd0565b73ffffffffffffffffffffffffffffffffffffffff16611181611244565b73ffffffffffffffffffffffffffffffffffffffff16146111d7576040517f08c379a00000000000000000000000000000000000000000000000000000000081526004016111ce90613899565b60405180910390fd5b600960009054906101000a900460ff1615611227576040517f08c379a000000000000000000000000000000000000000000000000000000000815260040161121e906137d9565b60405180910390fd5b6001600960006101000a81548160ff021916908315150217905550565b6000600660009054906101000a900473ffffffffffffffffffffffffffffffffffffffff16905090565b600e5481565b600f818154811061128457600080fd5b90600052602060002001600091509050805461129f90613ee9565b80601f01602080910402602001604051908101604052809291908181526020018280546112cb90613ee9565b80156113185780601f106112ed57610100808354040283529160200191611318565b820191906000526020600020905b8154815290600101906020018083116112fb57829003601f168201915b505050505081565b60606001805461132f90613ee9565b80601f016020809104026020016040519081016040528092919081815260200182805461135b90613ee9565b80156113a85780601f1061137d576101008083540402835291602001916113a8565b820191906000526020600020905b81548152906001019060200180831161138b57829003601f168201915b5050505050905090565b6113ba611cd0565b73ffffffffffffffffffffffffffffffffffffffff168273ffffffffffffffffffffffffffffffffffffffff161415611428576040517f08c379a000000000000000000000000000000000000000000000000000000000815260040161141f90613799565b60405180910390fd5b8060056000611435611cd0565b73ffffffffffffffffffffffffffffffffffffffff1673ffffffffffffffffffffffffffffffffffffffff16815260200190815260200160002060008473ffffffffffffffffffffffffffffffffffffffff1673ffffffffffffffffffffffffffffffffffffffff16815260200190815260200160002060006101000a81548160ff0219169083151502179055508173ffffffffffffffffffffffffffffffffffffffff166114e2611cd0565b73ffffffffffffffffffffffffffffffffffffffff167f17307eab39ab6107e8899845ad3d59bd9653f200f220920489ca2b5937696c318360405161152791906136bc565b60405180910390a35050565b61154461153e611cd0565b83611dd7565b611583576040517f08c379a000000000000000000000000000000000000000000000000000000000815260040161157a906138f9565b60405180910390fd5b61158f848484846125ea565b50505050565b601081815481106115a557600080fd5b9060005260206000200160009150905080546115c090613ee9565b80601f01602080910402602001604051908101604052809291908181526020018280546115ec90613ee9565b80156116395780601f1061160e57610100808354040283529160200191611639565b820191906000526020600020905b81548152906001019060200180831161161c57829003601f168201915b505050505081565b6060600f8080549050836116559190613f95565b8154811061166657611665614053565b5b90600052602060002001805461167b90613ee9565b80601f01602080910402602001604051908101604052809291908181526020018280546116a790613ee9565b80156116f45780601f106116c9576101008083540402835291602001916116f4565b820191906000526020600020905b8154815290600101906020018083116116d757829003601f168201915b505050505090506000600e54836002600e546117109190613cfa565b604051602001611721929190613934565b6040516020818303038152906040528051906020012060001c6117449190613f95565b90506000600e548460016002600e5461175d9190613cfa565b6117679190613abb565b604051602001611778929190613934565b6040516020818303038152906040528051906020012060001c61179b9190613f95565b9050826117a78361239b565b6117b08361239b565b6040516020016117c2939291906134b5565b60405160208183030381529060405292505050919050565b60606000806000611800600a600087815260200190815260200160002060000154612646565b8093508194508295505050506000434261181a9190613bb2565b9050600061182782610f19565b9050600061183482610b3a565b9050600061187e6118448661239b565b61184d8861239b565b6118568a61239b565b8560405160200161186a94939291906135ca565b604051602081830303815290604052612111565b905060008160405160200161189391906135a8565b60405160208183030381529060405290508098505050505050505050919050565b6000600560008473ffffffffffffffffffffffffffffffffffffffff1673ffffffffffffffffffffffffffffffffffffffff16815260200190815260200160002060008373ffffffffffffffffffffffffffffffffffffffff1673ffffffffffffffffffffffffffffffffffffffff16815260200190815260200160002060009054906101000a900460ff16905092915050565b600a6020528060005260406000206000915090508060000154905081565b61196e611cd0565b73ffffffffffffffffffffffffffffffffffffffff1661198c611244565b73ffffffffffffffffffffffffffffffffffffffff16146119e2576040517f08c379a00000000000000000000000000000000000000000000000000000000081526004016119d990613899565b60405180910390fd5b80600b8190555050565b600b5481565b6119fa611cd0565b73ffffffffffffffffffffffffffffffffffffffff16611a18611244565b73ffffffffffffffffffffffffffffffffffffffff1614611a6e576040517f08c379a0000000000000000000000000000000000000000000000000000000008152600401611a6590613899565b60405180910390fd5b600073ffffffffffffffffffffffffffffffffffffffff168173ffffffffffffffffffffffffffffffffffffffff161415611ade576040517f08c379a0000000000000000000000000000000000000000000000000000000008152600401611ad590613719565b60405180910390fd5b611ae781612524565b50565b611af2611cd0565b73ffffffffffffffffffffffffffffffffffffffff16611b10611244565b73ffffffffffffffffffffffffffffffffffffffff1614611b66576040517f08c379a0000000000000000000000000000000000000000000000000000000008152600401611b5d90613899565b60405180910390fd5b600960009054906101000a900460ff1615611bb6576040517f08c379a0000000000000000000000000000000000000000000000000000000008152600401611bad906137d9565b60405180910390fd5b80600760006101000a81548173ffffffffffffffffffffffffffffffffffffffff021916908373ffffffffffffffffffffffffffffffffffffffff16021790555050565b60007f01ffc9a7000000000000000000000000000000000000000000000000000000007bffffffffffffffffffffffffffffffffffffffffffffffffffffffff1916827bffffffffffffffffffffffffffffffffffffffffffffffffffffffff1916149050919050565b60008073ffffffffffffffffffffffffffffffffffffffff166002600084815260200190815260200160002060009054906101000a900473ffffffffffffffffffffffffffffffffffffffff1673ffffffffffffffffffffffffffffffffffffffff1614159050919050565b600033905090565b816004600083815260200190815260200160002060006101000a81548173ffffffffffffffffffffffffffffffffffffffff021916908373ffffffffffffffffffffffffffffffffffffffff160217905550808273ffffffffffffffffffffffffffffffffffffffff16611d4b83610e67565b73ffffffffffffffffffffffffffffffffffffffff167f8c5be1e5ebec7d5bd14f71427d1e84f3dd0314c0f7b2291e5b200ac8c7c3b92560405160405180910390a45050565b60006040518060200160405280600b54815250600a600084815260200190815260200160002060008201518160000155905050611dce8383612675565b81905092915050565b6000611de282611c64565b611e21576040517f08c379a0000000000000000000000000000000000000000000000000000000008152600401611e18906137b9565b60405180910390fd5b6000611e2c83610e67565b90508073ffffffffffffffffffffffffffffffffffffffff168473ffffffffffffffffffffffffffffffffffffffff161480611e9b57508373ffffffffffffffffffffffffffffffffffffffff16611e8384610851565b73ffffffffffffffffffffffffffffffffffffffff16145b80611eac5750611eab81856118b4565b5b91505092915050565b8273ffffffffffffffffffffffffffffffffffffffff16611ed582610e67565b73ffffffffffffffffffffffffffffffffffffffff1614611f2b576040517f08c379a0000000000000000000000000000000000000000000000000000000008152600401611f22906138b9565b60405180910390fd5b600073ffffffffffffffffffffffffffffffffffffffff168273ffffffffffffffffffffffffffffffffffffffff161415611f9b576040517f08c379a0000000000000000000000000000000000000000000000000000000008152600401611f9290613779565b60405180910390fd5b611fa6838383612843565b611fb1600082611cd8565b6001600360008573ffffffffffffffffffffffffffffffffffffffff1673ffffffffffffffffffffffffffffffffffffffff16815260200190815260200160002060008282546120019190613de8565b925050819055506001600360008473ffffffffffffffffffffffffffffffffffffffff1673ffffffffffffffffffffffffffffffffffffffff16815260200190815260200160002060008282546120589190613abb565b92505081905550816002600083815260200190815260200160002060006101000a81548173ffffffffffffffffffffffffffffffffffffffff021916908373ffffffffffffffffffffffffffffffffffffffff160217905550808273ffffffffffffffffffffffffffffffffffffffff168473ffffffffffffffffffffffffffffffffffffffff167fddf252ad1be2c89b69c2b068fc378daa952ba7f163c4a11628f55a4df523b3ef60405160405180910390a4505050565b606060008251141561213457604051806020016040528060008152509050612285565b600060405180606001604052806040815260200161486460409139905060006003600285516121639190613abb565b61216d9190613bb2565b60046121799190613cfa565b9050600060208261218a9190613abb565b67ffffffffffffffff8111156121a3576121a2614082565b5b6040519080825280601f01601f1916602001820160405280156121d55781602001600182028036833780820191505090505b509050818152600183018586518101602084015b81831015612244576003830192508251603f8160121c168501518253600182019150603f81600c1c168501518253600182019150603f8160061c168501518253600182019150603f81168501518253600182019150506121e9565b60038951066001811461225e576002811461226e57612279565b613d3d60f01b6002830352612279565b603d60f81b60018303525b50505050508093505050505b919050565b600061229582610e67565b90506122a381600084612843565b6122ae600083611cd8565b6001600360008373ffffffffffffffffffffffffffffffffffffffff1673ffffffffffffffffffffffffffffffffffffffff16815260200190815260200160002060008282546122fe9190613de8565b925050819055506002600083815260200190815260200160002060006101000a81549073ffffffffffffffffffffffffffffffffffffffff021916905581600073ffffffffffffffffffffffffffffffffffffffff168273ffffffffffffffffffffffffffffffffffffffff167fddf252ad1be2c89b69c2b068fc378daa952ba7f163c4a11628f55a4df523b3ef60405160405180910390a45050565b606060008214156123e3576040518060400160405280600181526020017f3000000000000000000000000000000000000000000000000000000000000000815250905061251f565b600082905060005b600082146124155780806123fe90613f4c565b915050600a8261240e9190613bb2565b91506123eb565b60008167ffffffffffffffff81111561243157612430614082565b5b6040519080825280601f01601f1916602001820160405280156124635781602001600182028036833780820191505090505b50905060008290505b60008614612517576001816124819190613de8565b90506000600a80886124939190613bb2565b61249d9190613cfa565b876124a89190613de8565b60306124b49190613b11565b905060008160f81b9050808484815181106124d2576124d1614053565b5b60200101907effffffffffffffffffffffffffffffffffffffffffffffffffffffffffffff1916908160001a905350600a8861250e9190613bb2565b9750505061246c565b819450505050505b919050565b6000600660009054906101000a900473ffffffffffffffffffffffffffffffffffffffff16905081600660006101000a81548173ffffffffffffffffffffffffffffffffffffffff021916908373ffffffffffffffffffffffffffffffffffffffff1602179055508173ffffffffffffffffffffffffffffffffffffffff168173ffffffffffffffffffffffffffffffffffffffff167f8be0079c531659141344cd1fd0a4f28419497f9722a3daafe3b4186f6b6457e060405160405180910390a35050565b6125f5848484611eb5565b61260184848484612848565b612640576040517f08c379a0000000000000000000000000000000000000000000000000000000008152600401612637906136f9565b60405180910390fd5b50505050565b6000806000612662620151808561265d9190613bb2565b6129df565b8093508194508295505050509193909250565b600073ffffffffffffffffffffffffffffffffffffffff168273ffffffffffffffffffffffffffffffffffffffff1614156126e5576040517f08c379a00000000000000000000000000000000000000000000000000000000081526004016126dc90613859565b60405180910390fd5b6126ee81611c64565b1561272e576040517f08c379a000000000000000000000000000000000000000000000000000000000815260040161272590613759565b60405180910390fd5b61273a60008383612843565b6001600360008473ffffffffffffffffffffffffffffffffffffffff1673ffffffffffffffffffffffffffffffffffffffff168152602001908152602001600020600082825461278a9190613abb565b92505081905550816002600083815260200190815260200160002060006101000a81548173ffffffffffffffffffffffffffffffffffffffff021916908373ffffffffffffffffffffffffffffffffffffffff160217905550808273ffffffffffffffffffffffffffffffffffffffff16600073ffffffffffffffffffffffffffffffffffffffff167fddf252ad1be2c89b69c2b068fc378daa952ba7f163c4a11628f55a4df523b3ef60405160405180910390a45050565b505050565b60006128698473ffffffffffffffffffffffffffffffffffffffff16612b7e565b156129d2578373ffffffffffffffffffffffffffffffffffffffff1663150b7a02612892611cd0565b8786866040518563ffffffff1660e01b81526004016128b49493929190613670565b602060405180830381600087803b1580156128ce57600080fd5b505af19250505080156128ff57506040513d601f19601f820116820180604052508101906128fc9190612eca565b60015b612982573d806000811461292f576040519150601f19603f3d011682016040523d82523d6000602084013e612934565b606091505b5060008151141561297a576040517f08c379a0000000000000000000000000000000000000000000000000000000008152600401612971906136f9565b60405180910390fd5b805181602001fd5b63150b7a0260e01b7bffffffffffffffffffffffffffffffffffffffffffffffffffffffff1916817bffffffffffffffffffffffffffffffffffffffffffffffffffffffff1916149150506129d7565b600190505b949350505050565b600080600080849050600062253d8c62010bd9836129fd9190613a27565b612a079190613a27565b9050600062023ab1826004612a1c9190613be3565b612a269190613b48565b9050600460038262023ab1612a3b9190613be3565b612a459190613a27565b612a4f9190613b48565b82612a5a9190613d54565b9150600062164b09600184612a6f9190613a27565b610fa0612a7c9190613be3565b612a869190613b48565b9050601f6004826105b5612a9a9190613be3565b612aa49190613b48565b84612aaf9190613d54565b612ab99190613a27565b9250600061098f846050612acd9190613be3565b612ad79190613b48565b9050600060508261098f612aeb9190613be3565b612af59190613b48565b85612b009190613d54565b9050600b82612b0f9190613b48565b945084600c612b1e9190613be3565b600283612b2b9190613a27565b612b359190613d54565b91508483603186612b469190613d54565b6064612b529190613be3565b612b5c9190613a27565b612b669190613a27565b92508298508197508096505050505050509193909250565b600080823b905060008111915050919050565b6000612ba4612b9f84613982565b61395d565b905082815260208101848484011115612bc057612bbf6140b6565b5b612bcb848285613ea7565b509392505050565b6000612be6612be1846139b3565b61395d565b905082815260208101848484011115612c0257612c016140b6565b5b612c0d848285613ea7565b509392505050565b600081359050612c2481614807565b92915050565b600081359050612c398161481e565b92915050565b600081359050612c4e81614835565b92915050565b600081519050612c6381614835565b92915050565b600082601f830112612c7e57612c7d6140b1565b5b8135612c8e848260208601612b91565b91505092915050565b600082601f830112612cac57612cab6140b1565b5b8135612cbc848260208601612bd3565b91505092915050565b600081359050612cd48161484c565b92915050565b600060208284031215612cf057612cef6140c0565b5b6000612cfe84828501612c15565b91505092915050565b60008060408385031215612d1e57612d1d6140c0565b5b6000612d2c85828601612c15565b9250506020612d3d85828601612c15565b9150509250929050565b600080600060608486031215612d6057612d5f6140c0565b5b6000612d6e86828701612c15565b9350506020612d7f86828701612c15565b9250506040612d9086828701612cc5565b9150509250925092565b60008060008060808587031215612db457612db36140c0565b5b6000612dc287828801612c15565b9450506020612dd387828801612c15565b9350506040612de487828801612cc5565b925050606085013567ffffffffffffffff811115612e0557612e046140bb565b5b612e1187828801612c69565b91505092959194509250565b60008060408385031215612e3457612e336140c0565b5b6000612e4285828601612c15565b9250506020612e5385828601612c2a565b9150509250929050565b60008060408385031215612e7457612e736140c0565b5b6000612e8285828601612c15565b9250506020612e9385828601612cc5565b9150509250929050565b600060208284031215612eb357612eb26140c0565b5b6000612ec184828501612c3f565b91505092915050565b600060208284031215612ee057612edf6140c0565b5b6000612eee84828501612c54565b91505092915050565b600060208284031215612f0d57612f0c6140c0565b5b600082013567ffffffffffffffff811115612f2b57612f2a6140bb565b5b612f3784828501612c97565b91505092915050565b600060208284031215612f5657612f556140c0565b5b6000612f6484828501612cc5565b91505092915050565b612f7681613e1c565b82525050565b612f8581613e2e565b82525050565b6000612f96826139e4565b612fa081856139fa565b9350612fb0818560208601613eb6565b612fb9816140c5565b840191505092915050565b6000612fcf826139ef565b612fd98185613a0b565b9350612fe9818560208601613eb6565b612ff2816140c5565b840191505092915050565b6000613008826139ef565b6130128185613a1c565b9350613022818560208601613eb6565b80840191505092915050565b600061303b603283613a0b565b9150613046826140d6565b604082019050919050565b600061305e602683613a0b565b915061306982614125565b604082019050919050565b6000613081601883613a0b565b915061308c82614174565b602082019050919050565b60006130a4601c83613a0b565b91506130af8261419d565b602082019050919050565b60006130c7602483613a0b565b91506130d2826141c6565b604082019050919050565b60006130ea601983613a0b565b91506130f582614215565b602082019050919050565b600061310d600383613a1c565b91506131188261423e565b600382019050919050565b6000613130602c83613a0b565b915061313b82614267565b604082019050919050565b6000613153601083613a0b565b915061315e826142b6565b602082019050919050565b6000613176600183613a1c565b9150613181826142df565b600182019050919050565b6000613199603883613a0b565b91506131a482614308565b604082019050919050565b60006131bc602a83613a0b565b91506131c782614357565b604082019050919050565b60006131df602983613a0b565b91506131ea826143a6565b604082019050919050565b6000613202601583613a1c565b915061320d826143f5565b601582019050919050565b6000613225602083613a0b565b91506132308261441e565b602082019050919050565b6000613248600d83613a1c565b915061325382614447565b600d82019050919050565b600061326b602c83613a0b565b915061327682614470565b604082019050919050565b600061328e602083613a0b565b9150613299826144bf565b602082019050919050565b60006132b1602983613a0b565b91506132bc826144e8565b604082019050919050565b60006132d4603083613a1c565b91506132df82614537565b603082019050919050565b60006132f7600383613a1c565b915061330282614586565b600382019050919050565b600061331a602183613a0b565b9150613325826145af565b604082019050919050565b600061333d601d83613a1c565b9150613348826145fe565b601d82019050919050565b6000613360601d83613a1c565b915061336b82614627565b601d82019050919050565b6000613383603183613a0b565b915061338e82614650565b604082019050919050565b60006133a6602383613a1c565b91506133b18261469f565b602382019050919050565b60006133c9600283613a1c565b91506133d4826146ee565b600282019050919050565b60006133ec604183613a1c565b91506133f782614717565b604182019050919050565b600061340f600683613a1c565b915061341a8261478c565b600682019050919050565b6000613432600983613a1c565b915061343d826147b5565b600982019050919050565b6000613455600183613a1c565b9150613460826147de565b600182019050919050565b61347481613e90565b82525050565b60006134868284612ffd565b915081905092915050565b600061349d8285612ffd565b91506134a98284612ffd565b91508190509392505050565b60006134c18286612ffd565b91506134cc82613169565b91506134d88285612ffd565b91506134e382613169565b91506134ef8284612ffd565b91506134fa82613169565b9150819050949350505050565b60006135138285612ffd565b915061351e82613330565b915061352a8284612ffd565b9150613535826132ea565b91508190509392505050565b600061354d8284612ffd565b915061355882613402565b915081905092915050565b600061356e826132c7565b915061357a8285612ffd565b915061358582613425565b91506135918284612ffd565b915061359c826133bc565b91508190509392505050565b60006135b382613353565b91506135bf8284612ffd565b915081905092915050565b60006135d582613399565b91506135e0826133df565b91506135eb826131f5565b91506135f78287612ffd565b915061360282613448565b915061360e8286612ffd565b915061361982613448565b91506136258285612ffd565b91506136308261323b565b915061363c8284612ffd565b915061364782613100565b915081905095945050505050565b600060208201905061366a6000830184612f6d565b92915050565b60006080820190506136856000830187612f6d565b6136926020830186612f6d565b61369f604083018561346b565b81810360608301526136b18184612f8b565b905095945050505050565b60006020820190506136d16000830184612f7c565b92915050565b600060208201905081810360008301526136f18184612fc4565b905092915050565b600060208201905081810360008301526137128161302e565b9050919050565b6000602082019050818103600083015261373281613051565b9050919050565b6000602082019050818103600083015261375281613074565b9050919050565b6000602082019050818103600083015261377281613097565b9050919050565b60006020820190508181036000830152613792816130ba565b9050919050565b600060208201905081810360008301526137b2816130dd565b9050919050565b600060208201905081810360008301526137d281613123565b9050919050565b600060208201905081810360008301526137f281613146565b9050919050565b600060208201905081810360008301526138128161318c565b9050919050565b60006020820190508181036000830152613832816131af565b9050919050565b60006020820190508181036000830152613852816131d2565b9050919050565b6000602082019050818103600083015261387281613218565b9050919050565b600060208201905081810360008301526138928161325e565b9050919050565b600060208201905081810360008301526138b281613281565b9050919050565b600060208201905081810360008301526138d2816132a4565b9050919050565b600060208201905081810360008301526138f28161330d565b9050919050565b6000602082019050818103600083015261391281613376565b9050919050565b600060208201905061392e600083018461346b565b92915050565b6000604082019050613949600083018561346b565b613956602083018461346b565b9392505050565b6000613967613978565b90506139738282613f1b565b919050565b6000604051905090565b600067ffffffffffffffff82111561399d5761399c614082565b5b6139a6826140c5565b9050602081019050919050565b600067ffffffffffffffff8211156139ce576139cd614082565b5b6139d7826140c5565b9050602081019050919050565b600081519050919050565b600081519050919050565b600082825260208201905092915050565b600082825260208201905092915050565b600081905092915050565b6000613a3282613e66565b9150613a3d83613e66565b9250817f7fffffffffffffffffffffffffffffffffffffffffffffffffffffffffffffff03831360008312151615613a7857613a77613fc6565b5b817f8000000000000000000000000000000000000000000000000000000000000000038312600083121615613ab057613aaf613fc6565b5b828201905092915050565b6000613ac682613e90565b9150613ad183613e90565b9250827fffffffffffffffffffffffffffffffffffffffffffffffffffffffffffffffff03821115613b0657613b05613fc6565b5b828201905092915050565b6000613b1c82613e9a565b9150613b2783613e9a565b92508260ff03821115613b3d57613b3c613fc6565b5b828201905092915050565b6000613b5382613e66565b9150613b5e83613e66565b925082613b6e57613b6d613ff5565b5b600160000383147f800000000000000000000000000000000000000000000000000000000000000083141615613ba757613ba6613fc6565b5b828205905092915050565b6000613bbd82613e90565b9150613bc883613e90565b925082613bd857613bd7613ff5565b5b828204905092915050565b6000613bee82613e66565b9150613bf983613e66565b9250827f7fffffffffffffffffffffffffffffffffffffffffffffffffffffffffffffff0482116000841360008413161615613c3857613c37613fc6565b5b817f80000000000000000000000000000000000000000000000000000000000000000583126000841260008413161615613c7557613c74613fc6565b5b827f80000000000000000000000000000000000000000000000000000000000000000582126000841360008412161615613cb257613cb1613fc6565b5b827f7fffffffffffffffffffffffffffffffffffffffffffffffffffffffffffffff0582126000841260008412161615613cef57613cee613fc6565b5b828202905092915050565b6000613d0582613e90565b9150613d1083613e90565b9250817fffffffffffffffffffffffffffffffffffffffffffffffffffffffffffffffff0483118215151615613d4957613d48613fc6565b5b828202905092915050565b6000613d5f82613e66565b9150613d6a83613e66565b9250827f800000000000000000000000000000000000000000000000000000000000000001821260008412151615613da557613da4613fc6565b5b827f7fffffffffffffffffffffffffffffffffffffffffffffffffffffffffffffff018213600084121615613ddd57613ddc613fc6565b5b828203905092915050565b6000613df382613e90565b9150613dfe83613e90565b925082821015613e1157613e10613fc6565b5b828203905092915050565b6000613e2782613e70565b9050919050565b60008115159050919050565b60007fffffffff0000000000000000000000000000000000000000000000000000000082169050919050565b6000819050919050565b600073ffffffffffffffffffffffffffffffffffffffff82169050919050565b6000819050919050565b600060ff82169050919050565b82818337600083830152505050565b60005b83811015613ed4578082015181840152602081019050613eb9565b83811115613ee3576000848401525b50505050565b60006002820490506001821680613f0157607f821691505b60208210811415613f1557613f14614024565b5b50919050565b613f24826140c5565b810181811067ffffffffffffffff82111715613f4357613f42614082565b5b80604052505050565b6000613f5782613e90565b91507fffffffffffffffffffffffffffffffffffffffffffffffffffffffffffffffff821415613f8a57613f89613fc6565b5b600182019050919050565b6000613fa082613e90565b9150613fab83613e90565b925082613fbb57613fba613ff5565b5b828206905092915050565b7f4e487b7100000000000000000000000000000000000000000000000000000000600052601160045260246000fd5b7f4e487b7100000000000000000000000000000000000000000000000000000000600052601260045260246000fd5b7f4e487b7100000000000000000000000000000000000000000000000000000000600052602260045260246000fd5b7f4e487b7100000000000000000000000000000000000000000000000000000000600052603260045260246000fd5b7f4e487b7100000000000000000000000000000000000000000000000000000000600052604160045260246000fd5b600080fd5b600080fd5b600080fd5b600080fd5b6000601f19601f8301169050919050565b7f4552433732313a207472616e7366657220746f206e6f6e20455243373231526560008201527f63656976657220696d706c656d656e7465720000000000000000000000000000602082015250565b7f4f776e61626c653a206e6577206f776e657220697320746865207a65726f206160008201527f6464726573730000000000000000000000000000000000000000000000000000602082015250565b7f53656e646572206973206e6f7420746865206d696e7465720000000000000000600082015250565b7f4552433732313a20746f6b656e20616c7265616479206d696e74656400000000600082015250565b7f4552433732313a207472616e7366657220746f20746865207a65726f2061646460008201527f7265737300000000000000000000000000000000000000000000000000000000602082015250565b7f4552433732313a20617070726f766520746f2063616c6c657200000000000000600082015250565b7f22207d0000000000000000000000000000000000000000000000000000000000600082015250565b7f4552433732313a206f70657261746f7220717565727920666f72206e6f6e657860008201527f697374656e7420746f6b656e0000000000000000000000000000000000000000602082015250565b7f4d696e746572206973206c6f636b656400000000000000000000000000000000600082015250565b7f2000000000000000000000000000000000000000000000000000000000000000600082015250565b7f4552433732313a20617070726f76652063616c6c6572206973206e6f74206f7760008201527f6e6572206e6f7220617070726f76656420666f7220616c6c0000000000000000602082015250565b7f4552433732313a2062616c616e636520717565727920666f7220746865207a6560008201527f726f206164647265737300000000000000000000000000000000000000000000602082015250565b7f4552433732313a206f776e657220717565727920666f72206e6f6e657869737460008201527f656e7420746f6b656e0000000000000000000000000000000000000000000000602082015250565b7f2c202265787069726174696f6e44617465223a20220000000000000000000000600082015250565b7f4552433732313a206d696e7420746f20746865207a65726f2061646472657373600082015250565b7f222c2022696d616765223a202200000000000000000000000000000000000000600082015250565b7f4552433732313a20617070726f76656420717565727920666f72206e6f6e657860008201527f697374656e7420746f6b656e0000000000000000000000000000000000000000602082015250565b7f4f776e61626c653a2063616c6c6572206973206e6f7420746865206f776e6572600082015250565b7f4552433732313a207472616e73666572206f6620746f6b656e2074686174206960008201527f73206e6f74206f776e0000000000000000000000000000000000000000000000602082015250565b7f3c73766720786d6c6e733d22687474703a2f2f7777772e77332e6f72672f323060008201527f30302f73766722206865696768743d2200000000000000000000000000000000602082015250565b7f222f3e0000000000000000000000000000000000000000000000000000000000600082015250565b7f4552433732313a20617070726f76616c20746f2063757272656e74206f776e6560008201527f7200000000000000000000000000000000000000000000000000000000000000602082015250565b7f222066696c6c3d227472616e73706172656e7422207374726f6b653d22000000600082015250565b7f646174613a6170706c69636174696f6e2f6a736f6e3b6261736536342c000000600082015250565b7f4552433732313a207472616e736665722063616c6c6572206973206e6f74206f60008201527f776e6572206e6f7220617070726f766564000000000000000000000000000000602082015250565b7f7b20226e616d65223a202245636f6e6f6d6963732044657369676e20426f6f6b60008201527f222c200000000000000000000000000000000000000000000000000000000000602082015250565b7f223e000000000000000000000000000000000000000000000000000000000000600082015250565b7f226465736372697074696f6e223a202245636f6e6f6d69637320616e64204d6160008201527f7468206f6620546f6b656e20456e67696e656572696e6720616e64204465466960208201527f2200000000000000000000000000000000000000000000000000000000000000604082015250565b7f3c2f7376673e0000000000000000000000000000000000000000000000000000600082015250565b7f222077696474683d220000000000000000000000000000000000000000000000600082015250565b7f2f00000000000000000000000000000000000000000000000000000000000000600082015250565b61481081613e1c565b811461481b57600080fd5b50565b61482781613e2e565b811461483257600080fd5b50565b61483e81613e3a565b811461484957600080fd5b50565b61485581613e90565b811461486057600080fd5b5056fe4142434445464748494a4b4c4d4e4f505152535455565758595a6162636465666768696a6b6c6d6e6f707172737475767778797a303132333435363738392b2fa264697066735822122045be6d8db645570113a713064e1d849ae695029504433222db6f181e091eb05364736f6c63430008060033",
  "devdoc": {
    "kind": "dev",
    "methods": {
      "approve(address,uint256)": {
        "details": "See {IERC721-approve}."
      },
      "balanceOf(address)": {
        "details": "See {IERC721-balanceOf}."
      },
      "burn(uint256)": {
        "params": {
          "econNFTId": "the id of the NFT you want to burn."
        }
      },
      "constructor": {
        "details": "Variables used to make the JPEG are set in order to construct an SVG later on. ",
        "params": {
          "_expirationTimestamp": "the date where the EconNFT will expire (timestamp in seconds).",
          "_totalSupply": "maximum number of NFT that is going to be minted."
        }
      },
      "generatePath(uint256)": {
        "details": "Function called by the `generateSVG()` function.",
        "params": {
          "_randomNumber": "is a random number from the `generatePath()` function."
        },
        "returns": {
          "pathSvg": "a string containing all SVG instructions."
        }
      },
      "generatePathCommand(uint256)": {
        "details": "Called by the `generatePath()` function.",
        "params": {
          "_randomNumber": "is a random number from the `generatePath()` function."
        },
        "returns": {
          "pathCommand": "a string containing the paths to create the SVG."
        }
      },
      "generateSVG(uint256)": {
        "details": "The random number is used to print random lines and random colors on the final SVG.",
        "params": {
          "_randomNumber": "is a random number used to construct the SVG (the more random the better)."
        },
        "returns": {
          "finalSvg": "the full SVG component readable by a browser."
        }
      },
      "getApproved(uint256)": {
        "details": "See {IERC721-getApproved}."
      },
      "isApprovedForAll(address,address)": {
        "details": "See {IERC721-isApprovedForAll}."
      },
      "mint()": {
        "details": "Create a new NFT and send it to the minter.",
        "returns": {
          "_0": "Return the id of the minted NFT."
        }
      },
      "name()": {
        "details": "See {IERC721Metadata-name}."
      },
      "owner()": {
        "details": "Returns the address of the current owner."
      },
      "ownerOf(uint256)": {
        "details": "See {IERC721-ownerOf}."
      },
      "renounceOwnership()": {
        "details": "Leaves the contract without owner. It will not be possible to call `onlyOwner` functions anymore. Can only be called by the current owner. NOTE: Renouncing ownership will leave the contract without an owner, thereby removing any functionality that is only available to the owner."
      },
      "safeTransferFrom(address,address,uint256)": {
        "details": "See {IERC721-safeTransferFrom}."
      },
      "safeTransferFrom(address,address,uint256,bytes)": {
        "details": "See {IERC721-safeTransferFrom}."
      },
      "setApprovalForAll(address,bool)": {
        "details": "See {IERC721-setApprovalForAll}."
      },
      "setCurrentExpirationTimestamp(uint256)": {
        "params": {
          "_newExpirationTimestamp": "the new timestamp."
        }
      },
      "setMinter(address)": {
        "params": {
          "_minter": "The new minter address."
        }
      },
      "supportsInterface(bytes4)": {
        "details": "See {IERC165-supportsInterface}."
      },
      "svgToImageURI(string)": {
        "params": {
          "_svg": "is the SVG component."
        },
        "returns": {
          "_0": "imageURI a string readable by the browser which will display the SVG."
        }
      },
      "symbol()": {
        "details": "See {IERC721Metadata-symbol}."
      },
      "tokenURI(uint256)": {
        "params": {
          "tokenId": "the id of the token you would like to read information from."
        },
        "returns": {
          "_0": "data a 64 based encoded string containing a json object with all the informations."
        }
      },
      "transferFrom(address,address,uint256)": {
        "details": "See {IERC721-transferFrom}."
      },
      "transferOwnership(address)": {
        "details": "Transfers ownership of the contract to a new account (`newOwner`). Can only be called by the current owner."
      }
    },
    "title": "Economics Design Property Right NFT.",
    "version": 1
  },
  "userdoc": {
    "kind": "user",
    "methods": {
      "burn(uint256)": {
        "notice": "Call the ERC721 `_burn()` function which burn an NFT and sends it to the address(0)."
      },
      "generatePath(uint256)": {
        "notice": "Generate different paths that creates the SVG lines."
      },
      "generatePathCommand(uint256)": {
        "notice": "Generate the paths to create the SVG."
      },
      "generateSVG(uint256)": {
        "notice": "Generate a full SVG component."
      },
      "lockMinter()": {
        "notice": "Lock the minter from calling certain functions."
      },
      "mint()": {
        "notice": "Mint a new NFT."
      },
      "setCurrentExpirationTimestamp(uint256)": {
        "notice": "Change the expiration timestamp of the future NFTs about to get minted."
      },
      "setMinter(address)": {
        "notice": "Change the minter address."
      },
      "svgToImageURI(string)": {
        "notice": "Takes a SVG and encode it while still keeping it readable by a browser."
      },
      "tokenURI(uint256)": {
        "notice": "Contain all the informations needed for read this NFT informations."
      }
    },
    "notice": "Contract used to verify the ownership of the Economics Design book property rights.",
    "version": 1
  },
  "storageLayout": {
    "storage": [
      {
        "astId": 618,
        "contract": "contracts/EconNFT.sol:EconNFT",
        "label": "_name",
        "offset": 0,
        "slot": "0",
        "type": "t_string_storage"
      },
      {
        "astId": 620,
        "contract": "contracts/EconNFT.sol:EconNFT",
        "label": "_symbol",
        "offset": 0,
        "slot": "1",
        "type": "t_string_storage"
      },
      {
        "astId": 624,
        "contract": "contracts/EconNFT.sol:EconNFT",
        "label": "_owners",
        "offset": 0,
        "slot": "2",
        "type": "t_mapping(t_uint256,t_address)"
      },
      {
        "astId": 628,
        "contract": "contracts/EconNFT.sol:EconNFT",
        "label": "_balances",
        "offset": 0,
        "slot": "3",
        "type": "t_mapping(t_address,t_uint256)"
      },
      {
        "astId": 632,
        "contract": "contracts/EconNFT.sol:EconNFT",
        "label": "_tokenApprovals",
        "offset": 0,
        "slot": "4",
        "type": "t_mapping(t_uint256,t_address)"
      },
      {
        "astId": 638,
        "contract": "contracts/EconNFT.sol:EconNFT",
        "label": "_operatorApprovals",
        "offset": 0,
        "slot": "5",
        "type": "t_mapping(t_address,t_mapping(t_address,t_bool))"
      },
      {
        "astId": 393,
        "contract": "contracts/EconNFT.sol:EconNFT",
        "label": "_owner",
        "offset": 0,
        "slot": "6",
        "type": "t_address"
      },
      {
        "astId": 3533,
        "contract": "contracts/EconNFT.sol:EconNFT",
        "label": "minter",
        "offset": 0,
        "slot": "7",
        "type": "t_address"
      },
      {
        "astId": 3535,
        "contract": "contracts/EconNFT.sol:EconNFT",
        "label": "_currentEconNFTId",
        "offset": 0,
        "slot": "8",
        "type": "t_uint256"
      },
      {
        "astId": 3537,
        "contract": "contracts/EconNFT.sol:EconNFT",
        "label": "isMinterLocked",
        "offset": 0,
        "slot": "9",
        "type": "t_bool"
      },
      {
        "astId": 3542,
        "contract": "contracts/EconNFT.sol:EconNFT",
        "label": "seeds",
        "offset": 0,
        "slot": "10",
        "type": "t_mapping(t_uint256,t_struct(Seed)3531_storage)"
      },
      {
        "astId": 3544,
        "contract": "contracts/EconNFT.sol:EconNFT",
        "label": "currentExpirationTimestamp",
        "offset": 0,
        "slot": "11",
        "type": "t_uint256"
      },
      {
        "astId": 3556,
        "contract": "contracts/EconNFT.sol:EconNFT",
        "label": "maxNumberOfPath",
        "offset": 0,
        "slot": "12",
        "type": "t_uint256"
      },
      {
        "astId": 3558,
        "contract": "contracts/EconNFT.sol:EconNFT",
        "label": "maxNumberOfPathCommands",
        "offset": 0,
        "slot": "13",
        "type": "t_uint256"
      },
      {
        "astId": 3560,
        "contract": "contracts/EconNFT.sol:EconNFT",
        "label": "size",
        "offset": 0,
        "slot": "14",
        "type": "t_uint256"
      },
      {
        "astId": 3563,
        "contract": "contracts/EconNFT.sol:EconNFT",
        "label": "pathCommands",
        "offset": 0,
        "slot": "15",
        "type": "t_array(t_string_storage)dyn_storage"
      },
      {
        "astId": 3566,
        "contract": "contracts/EconNFT.sol:EconNFT",
        "label": "colors",
        "offset": 0,
        "slot": "16",
        "type": "t_array(t_string_storage)dyn_storage"
      }
    ],
    "types": {
      "t_address": {
        "encoding": "inplace",
        "label": "address",
        "numberOfBytes": "20"
      },
      "t_array(t_string_storage)dyn_storage": {
        "base": "t_string_storage",
        "encoding": "dynamic_array",
        "label": "string[]",
        "numberOfBytes": "32"
      },
      "t_bool": {
        "encoding": "inplace",
        "label": "bool",
        "numberOfBytes": "1"
      },
      "t_mapping(t_address,t_bool)": {
        "encoding": "mapping",
        "key": "t_address",
        "label": "mapping(address => bool)",
        "numberOfBytes": "32",
        "value": "t_bool"
      },
      "t_mapping(t_address,t_mapping(t_address,t_bool))": {
        "encoding": "mapping",
        "key": "t_address",
        "label": "mapping(address => mapping(address => bool))",
        "numberOfBytes": "32",
        "value": "t_mapping(t_address,t_bool)"
      },
      "t_mapping(t_address,t_uint256)": {
        "encoding": "mapping",
        "key": "t_address",
        "label": "mapping(address => uint256)",
        "numberOfBytes": "32",
        "value": "t_uint256"
      },
      "t_mapping(t_uint256,t_address)": {
        "encoding": "mapping",
        "key": "t_uint256",
        "label": "mapping(uint256 => address)",
        "numberOfBytes": "32",
        "value": "t_address"
      },
      "t_mapping(t_uint256,t_struct(Seed)3531_storage)": {
        "encoding": "mapping",
        "key": "t_uint256",
        "label": "mapping(uint256 => struct EconNFT.Seed)",
        "numberOfBytes": "32",
        "value": "t_struct(Seed)3531_storage"
      },
      "t_string_storage": {
        "encoding": "bytes",
        "label": "string",
        "numberOfBytes": "32"
      },
      "t_struct(Seed)3531_storage": {
        "encoding": "inplace",
        "label": "struct EconNFT.Seed",
        "members": [
          {
            "astId": 3530,
            "contract": "contracts/EconNFT.sol:EconNFT",
            "label": "expirationTimestamp",
            "offset": 0,
            "slot": "0",
            "type": "t_uint256"
          }
        ],
        "numberOfBytes": "32"
      },
      "t_uint256": {
        "encoding": "inplace",
        "label": "uint256",
        "numberOfBytes": "32"
      }
    }
  }
}